:020000040800F2
:10000000102100209D0100083D15000895110008F1
:1000100039150008B50200086D180008000000003E
:10002000000000000000000000000000451500086E
:10003000B902000800000000411500084915000839
:10004000B7010008B7010008B7010008B7010008B0
:10005000B7010008B7010008B7010008B7010008A0
:10006000B7010008B7010008B7010008B701000890
:10007000B7010008B7010008B7010008B701000880
:10008000B7010008B7010008B7010008B701000870
:10009000B7010008B7010008B7010008B701000860
:1000A000B7010008B7010008B7010008B701000850
:1000B000B7010008B7010008B7010008B701000840
:1000C000B7010008B7010008B7010008B701000830
:1000D000B7010008B7010008B7010008B701000820
:1000E000B7010008B7010008B7010008B701000810
:1000F000B7010008B7010008B7010008B701000800
:10010000B7010008B701000809160008B701000888
:10011000B7010008B7010008B7010008B7010008DF
:10012000B7010008B7010008B7010008B7010008CF
:10013000B7010008B7010008B7010008B7010008BF
:10014000B7010008B7010008B7010008B7010008AF
:10015000B7010008B7010008B7010008B70100089F
:10016000B7010008B7010008B7010008B70100088F
:10017000B7010008B7010008B7010008000000003F
:10018000B7010008B7010008DFF80CD000F07AF8DA
:1001900000480047711800081021002006488047D9
:1001A00006480047FEE7FEE7FEE7FEE7FEE7FEE75C
:1001B000FEE7FEE7FEE7FEE7F51500088901000807
:1001C0002DE9F05F0546002092469B46884606468C
:1001D000814640241BE0284641464746224600F01F
:1001E00041F853465A46C01A914110D31146184659
:1001F000224600F028F82D1A67EB01084F462246E8
:100200000120002100F01FF817EB00094E41201ECD
:10021000A4F10104DFDC484631462A464346BDE8E6
:10022000F09FD2B201E000F8012B491EFBD27047CB
:100230000022F6E710B513460A4604461946FFF7B2
:10024000F0FF204610BD202A04DB203A00FA02F11C
:10025000002070479140C2F1200320FA03F31943B4
:1002600090407047202A04DB203A21FA02F0002156
:10027000704721FA02F3D040C2F1200291400843B6
:10028000194670471CB50948009009480190054679
:10029000009C06E0E06840F0010394E807009847FE
:1002A0001034AC42F6D3FFF773FF0000D8180008F3
:1002B000F8180008FEE700007047000072B600BFA3
:1002C000FEE700002DE9F04F83B000F1200200F1BD
:1002D0003E4741F60045009207F1FF77C4F2020560
:1002E00008224FEAB726A84208BF072200254FF090
:1002F00000084FF00009072E38BF4FEAB7220192DD
:100300000AE000BF09F1010908F10208B9F1100F74
:1003100005F1040500F0A2800F68012202FA09FE2F
:1003200017EA0E0AEED0D1F804C003220CF003073E
:100330007E1E02FA08F4012E6FEA040B12D88468BC
:10034000CE6804EA0B0406FA08F634438460446875
:1003500024EA0E06CCF3001404FA09F4264346609E
:1003600004E000BF032F01D103271EE0C6688C689C
:1003700006EA0B0604FA08F42643022FC66014D1DD
:100380006FF00302009E02EA590756F807C005F015
:100390001C040F220B69A2402CEA0202A3401A435C
:1003A000F251D1F804C00CF00307026807FA08F311
:1003B00002EA0B021A431CF4403F0260A2D0002262
:1003C00043F644030292C4F202031A6843F600445F
:1003D00042F480421A601A68C4F2010402F48042B6
:1003E0000292029A29F003024FF6084C2244CFF6FB
:1003F000FF7C52F80C3005F00C070F26BE40B343CB
:10040000019E06FA07F73B4342F80C30A2684B689E
:1004100042EA0A0743F60C4CDE0258BF22EA0A07FA
:10042000A760C4F2010CDCF800209E0242EA0A0731
:1004300058BF22EA0A07CCF8007062689E0342EABD
:100440000A0758BF22EA0A0767602268DB0342EA0C
:100450000A0758BF22EA0A07276053E703B0BDE83E
:10046000F08F0000002A08BF090481617047000076
:1004700040F20C10C2F200000068704740F2000029
:1004800040F20C11C2F20000C2F2000100780A68CA
:10049000104408607047000080B543F60040C4F285
:1004A0000200016841F400710160016841F480615B
:1004B0000160016841F480710160032000F086F85A
:1004C0000F2000F005F800F027F8002080BD0000A4
:1004D00070B540F20006C2F2000640F21C0132780C
:1004E000C2F200014FF47A730968B3FBF2F20446DA
:1004F000B1FBF2F1084600F061FB0F2C4FF0010553
:1005000008D838B94FF0FF3021460022002500F00E
:1005100031F87460284670BD82B0002043F6400177
:100520000190C4F202014A6842F480424A604A687B
:1005300002F480420192019A0090086840F08050D5
:100540000860086800F080500090009802B0704782
:10055000002848BF704700F01F01012202FA01F194
:100560001C2202EAD0004EF20012CEF200028150AC
:100570007047000010B54EF60C5CCEF2000CDCF8B3
:100580000030C3F3022E8EF00704042C28BF04248D
:10059000BEF103034FF0FF3E0EFA04F438BF002310
:1005A000A14399400EFA03F39A43114300F00F025E
:1005B00000F160430901043A03F5644362440028F2
:1005C00048BF02F10C03197010BD00004EF60C512B
:1005D000CEF200010A684FF6FF031A4060F30A22C8
:1005E00042F0806040F0FD7008607047002804BF52
:1005F000012070472DE9F04143F60808C4F20208D3
:100600000446D8F8F8030D4600F00700814207D9E8
:1006100088F8F853D8F8F80300F00700A84277D11B
:100620002068810717D5410705D5D8F8001041F497
:10063000E051C8F80010010705D5D8F8001041F4C2
:100640006041C8F80010D8F80010A26821F0F0014D
:100650001143C8F80010C00740D1D8F8F80300F0E3
:100660000700854207D288F8F853D8F8F80300F05D
:100670000700A8424CD12068410707D5D8F80010E0
:10068000E26821F4E0511143C8F80010000708D5D2
:10069000D8F80000216920F4604040EAC100C8F8A1
:1006A000000000F07DF8D8F8001041F6C002C1F358
:1006B0000311C0F60002515C40F21C0220FA01F165
:1006C00040F20400C2F200000068C2F200021160B1
:1006D000FFF7FEFE0020BDE8F08100BF6068811ECC
:1006E000022907D258F8081C89015CBF0120BDE827
:1006F000F08111E0012807D158F8081C89035CBF7C
:100700000120BDE8F08107E058F8081C890703D4F0
:100710000120BDE8F08100BFD8F8001021F00301EE
:100720000843C8F80000FFF7A3FE064641F28837E9
:10073000D8F80000616800F00C00B0EB810F8CD09D
:10074000FFF796FE801BB842F2D90320BDE8F08186
:1007500040F21C0043F60801C2F20000C4F202019C
:100760000068096841F6D002C1F38221C0F6000298
:10077000515CC8407047000040F21C0043F608017D
:10078000C2F20000C4F202010068096841F6D0021A
:10079000C1F34231C0F60002515CC840704700000E
:1007A00010B543F60404C4F202046168C1F3810188
:1007B00042F20040C0F2F400DFE801F002040A0255
:1007C00010BD00BF41F20020C0F27A0010BD00BF92
:1007D000216801F03F02216823684902C3F38811B0
:1007E00006D4A1FB00010023FFF7EAFC07E000BFED
:1007F00041F20020C0F27A004843B0FBF2F02168D9
:100800000222C1F3014102EB4101B0FBF1F010BD46
:10081000002804BF012070472DE9F04182B0044652
:10082000007843F60006C007C4F202060CD0B06898
:1008300000F00C00042840F081803068800303D56C
:100840006068002800F06881207880071BD5B068B8
:1008500010F00C0F09D0B06800F00C00082840F030
:1008600087807068400200F183803068800703D57C
:10087000E068012840F050813068216920F0F800DC
:1008800040EAC10030602078000713D42078400788
:100890002AD4A569002D00F03A81B06800F00C0060
:1008A000082840F0A580012D40F00E81012002B003
:1008B000BDE8F0816069002800F082800020C4F269
:1008C00047200121C0F8801EFFF7D2FD054600BF7A
:1008D000706F8007DAD4FFF7CBFD401B0228F7D9F1
:1008E000032002B0BDE8F081306C5FEAC0080AD492
:1008F00000200190306C40F080503064306C00F08B
:1009000080500190019847F20007C4F20007386850
:10091000C00547D4386840F480703860FFF7A8FD00
:10092000054600BF3868C0053CD4FFF7A1FD401B59
:100930000228F7D9032002B0BDE8F081B06800F0CA
:100940000C00082803D1706840023FF576AF61685B
:100950003068B1F5803F07D0B1F5A02F40F09A8004
:1009600040F480203060306840F4803030609AE09D
:10097000E068002840F20000C4F247205CD001216A
:100980000160FFF775FD0546306880073FF574AFDD
:10099000FFF76EFD401B0228F6D9032002B0BDE828
:1009A000F08100BFA168306F012905D0052955D11C
:1009B00040F004003067306F40F00100306756E0CF
:1009C0000020C4F247200021C0F8801EFFF750FD30
:1009D000054600BF706F80077FF558AFFFF748FDF1
:1009E000401B0228F6D9032002B0BDE8F08100BF09
:1009F0000027C4F2472700203866FFF739FD022D93
:100A000005460DD13068800140F18A80FFF730FD46
:100A1000401B02284FF00300F4D902B0BDE8F0817A
:100A20003068800173D5FFF723FD401B02284FF08B
:100A30000300F5D9F1E700BF00210160FFF718FDC1
:100A4000054600BF306880077FF51DAFFFF710FD3A
:100A5000401B02284FF00300F4D9DEE720F001002C
:100A60003067306F002920F0040030677AD0FFF73C
:100A7000FFFC054641F28837306F800700F1848023
:100A8000FFF7F6FC401BB842F6D9032002B0BDE8E0
:100A9000F08100BF20F4803030603068002920F4FD
:100AA000802030607AD0FFF7E3FC05463068800391
:100AB0003FF5CAAEFFF7DCFC401B6428F6D90320E3
:100AC00002B0BDE8F08100BF7068E16900F4800207
:100AD0008A4221D1216A00F03F028A421CD147F6A6
:100AE000C071626A0140B1EB821F15D1A16A4FF655
:100AF000FF73C903994300F44032A1F580318A4263
:100B00000AD1E16A00F07060B0EB016F04D10020FF
:100B100002B0BDE8F08100BF012002B0BDE8F08165
:100B200004F11C052FCD084340EA8210D9034FF68B
:100B3000FF729143A1F5803140EA0560084370607F
:100B400001203866FFF794FC044600BF306880013E
:100B5000DDD4FFF78DFC001B02284FF00300F5D910
:100B60005BE700BFFFF784FC054641F2883700BF12
:100B7000306F800708D5FFF77BFC401BB8424FF071
:100B80000300F5D949E700BFB8F1000F3FF581AE8A
:100B9000306C20F0805030647BE600BFFFF768FCCB
:100BA000054600BF306880037FF54EAEFFF760FC5E
:100BB000401B64284FF00300F4D92EE7411E0020AB
:100BC000B0EB116F1CBF012070474EF21002CEF245
:100BD000000251604EF62351CEF20001F0230B705B
:100BE0000721906011607047704700007047000057
:100BF00090F83C20012A4FF0020254D010B580F842
:100C00003D200268D2F804E0D2F808C00C682EF04B
:100C10007003234341F2FF74C4F20004A242536004
:100C20000EDC40F2FF73C4F200039A4216DCB2F10C
:100C3000804F2BD040F20043C4F2000324E000BFF9
:100C400040F2FF33C4F201039A4213DC41F6000381
:100C5000C4F200039A4219D0002313E040F60003C7
:100C6000C4F200039A4211D040F60043C4F20003DC
:100C70000AE000BF44F20003C4F201039A4205D027
:100C800040F20043C4F201039A4204D149682CF0B7
:100C90008003194391600121002280F83D1080F803
:100CA0003C20BDE81040104670470000002804BFFB
:100CB0000120704710B5044690F83D0028B9002087
:100CC00084F83C00204600F01FF8022084F83D0024
:100CD0002068211D00F0B8FC012084F8460084F84B
:100CE0003E0084F83F0084F8400084F8410084F816
:100CF000420084F8430084F8440084F8450084F8F6
:100D00003D00002010BD000080B586B0006840F6B0
:100D10000042C4F2000200219042CDE90411CDE965
:100D2000021101912ED0B0F1804F29D1002043F65D
:100D300040010090C4F202010A6842F001020A6018
:100D40000A6802F001020092009A009051F8102CFB
:100D500042F0010241F8102C51F8101C01F0010181
:100D600000910099202101910221CDE90210049007
:100D7000012005900020C4F2020001A9FFF7A2FAA9
:100D800006B080BD43F640000091C4F20200016845
:100D9000002241F0080101600068002100F0080015
:100DA000009000983220FFF7E5FB322006B0BDE846
:100DB0008040FFF7CDBB000090F83C20012A4FF0A7
:100DC00002026CD080B580F83D20D0F800C04FF60C
:100DD0007772DCF8083023EA0202CCF808200B68AE
:100DE0004F2B29DC1F2B45DD202B46D0302B44D048
:100DF000402B40F0AF80D1F804E0C968DCF8203027
:100E0000DCF8202022F00102CCF82020DCF81820A9
:100E100022F0F00242EA011123F00A0242EA0E0235
:100E2000CCF81810CCF82020DCF8081041F047016D
:100E300021F0300128E000BF6F2B33DDB3F5005FF8
:100E400074D0B3F5805F21D0702B40F08380D1E95E
:100E500001E3C968DCF8082043EA0E0322F47F426C
:100E600043EA01211143CCF80810DCF8081041F0E6
:100E7000770109E00BB1102B6CD1DCF8081021F0E0
:100E80007001194341F00701CCF80810002201213C
:100E900080F83D10002180F83C10BDE880401046ED
:100EA000704700BF502B21D0602B53D1D1F804E004
:100EB000C968DCF82030DCF8202022F01002CCF8E1
:100EC0002020DCF8182022F4704242EA013123F09D
:100ED000A00242EA0E12CCF81810CCF82020DCF860
:100EE000081041F0670121F01001CDE7D1F804E0CE
:100EF000C968DCF82030DCF8202022F00102CCF8B0
:100F00002020DCF8182022F0F00242EA011123F040
:100F10000A0242EA0E02CCF81810CCF82020DCF8C5
:100F2000081041F0570121F02001ADE7D1E901E3BC
:100F3000C968DCF8082043EA0E0322F47F4243EA42
:100F400001211143CCF80810DCF8081041F480416D
:100F50009AE700BF01229AE77047000070B5044687
:100F60000068C5680669B10716D515F0020113D0EF
:100F70006FF002010161012121778069800703D0B0
:100F80002046FFF7E9FF05E0204600F08FF82046F5
:100F900000F08EF800202077700719D515F00400B6
:100FA00016D020686FF00401016102212177806969
:100FB00010F4407F04D02046FFF7CEFF06E000BFCC
:100FC000204600F073F8204600F072F800202077E9
:100FD000300717D515F0080014D020686FF008010D
:100FE000016104212177C069800703D02046FFF703
:100FF000B3FF05E0204600F059F8204600F058F80D
:1010000000202077F00619D515F0100016D02068C2
:101010006FF01001016108212177C06910F4407F51
:1010200004D02046FFF798FF06E000BF204600F0FE
:101030003DF8204600F03CF800202077F00718BF6C
:1010400015F0010002D1300609D412E020686FF0DB
:1010500001010161204600F02DF8300609D515F098
:10106000800006D020686FF0800101612046FFF704
:10107000BBFD700609D515F0400006D020686FF062
:1010800040010161204600F017F8B00658BF70BD5E
:1010900015F0200008D021686FF0200220460A6178
:1010A000BDE87040FFF7A2BD70BD000070470000B2
:1010B000704700007047000070470000002804BF20
:1010C0000120704710B5044690F8410028B900206F
:1010D00084F84000204600F021F8242084F84100E4
:1010E0002068C16821F40051C160204600F04AFB2D
:1010F0002068016921F490410161416921F02A01D0
:101100004161C16841F40051C16000202021606448
:1011100084F8411084F84210606310BD80B586B039
:1011200041F200010068C4F20101002288420592E8
:10113000CDE903220292019202D006B080BD00BF29
:1011400043F630000092C4F20200436943F01003FA
:101150004361436903F010030093009B009203680E
:1011600043F001030360006800F001000090009864
:101170004FF4C06001900220CDE9020203200490E8
:101180000720059001F5704001A9FFF79BF806B014
:1011900080BD0000FEE7000070B540F22C05C2F2F1
:1011A0000005287840F20806C2F20006305C00F024
:1011B00047F8012000F044F841F20044C4F2020470
:1011C000204604210022FFF74DF920460421012288
:1011D000FFF748F96878305C00F032F8022000F040
:1011E0002FF8204604210022FFF73CF92046042175
:1011F0000122FFF737F9A878305C00F021F80420CD
:1012000000F01EF8204604210022FFF72BF92046AB
:1012100004210122FFF726F9E878305C00F010F88D
:10122000082000F00DF8204604210022FFF71AF9EB
:10123000204604210122BDE87040FFF713B90000E9
:10124000B0B541F20044C4F202040546C20920468A
:101250000221FFF707F9204601210022FFF702F9DA
:10126000204601210122FFF7FDF8C5F38012204638
:101270000221FFF7F7F8204601210022FFF7F2F8DC
:10128000204601210122FFF7EDF8C5F34012204668
:101290000221FFF7E7F8204601210022FFF7E2F8DC
:1012A000204601210122FFF7DDF8C5F30012204698
:1012B0000221FFF7D7F8204601210022FFF7D2F8DC
:1012C000204601210122FFF7CDF8C5F3C0022046D8
:1012D0000221FFF7C7F8204601210022FFF7C2F8DC
:1012E000204601210122FFF7BDF8C5F38002204608
:1012F0000221FFF7B7F8204601210022FFF7B2F8DC
:10130000204601210122FFF7ADF8C5F34002204637
:101310000221FFF7A7F8204601210022FFF7A2F8DB
:10132000204601210122FFF79DF805F00102204629
:101330000221FFF797F8204601210022FFF792F8DB
:10134000204601210122BDE8B040FFF78BB8000024
:101350002DE9F04387B0002743F630000697CDE92A
:101360000477CDE902770197C4F20200016840F2E8
:10137000004941F0200101600168C4F2020901F056
:101380002001019101990197016809F5805541F00B
:10139000800101600168002201F080010191019942
:1013A00001970168072641F001010160016801F021
:1013B0000101019101990197016841F00201016069
:1013C0000068072100F00200019001982846FFF70D
:1013D00049F84846102101224FF010080124FFF778
:1013E00041F8CDE90264022002AE0590284631465C
:1013F0000497FEF767FF0320059048463146CDE984
:1014000002840497FEF75EFF07B0BDE8F08300009A
:1014100010B586B040F234000024C2F200004FF054
:1014200080414FF0FF32CDE90044C0E90014C0E92B
:10143000024204618461FFF739FC002818BFFEF7FF
:101440003DFF4FF40050CDE9020440F23400C2F2F7
:10145000000002A9CDE90444FFF7AEFC002818BF44
:10146000FEF72CFF0020CDE9000040F23400C2F26C
:1014700000006946FFF7BCFB002818BFFEF71EFFFF
:1014800006B010BD80B586B040F27C0040F6004248
:101490000021C2F20000C4F2000240F21F3340F209
:1014A0008F1C0591CDE90311CDE90011C0E900239E
:1014B000C0E9021C01618161FFF7F8FB002818BF39
:1014C000FEF7FCFE4FF48050029040F27C00C2F226
:1014D000000002A9FFF770FC002818BFFEF7EEFE1F
:1014E00040F27C00C2F200006946FFF781FB002851
:1014F00018BFFEF7E3FE06B080BD000080B540F2E5
:10150000C40041F20001C2F20000C4F20101002354
:101510004FF00C0C4FF4E13280E80E00C0E90333C9
:10152000C0E905C3C361FFF7C9FD002808BF80BD3E
:10153000BDE88040FEF7C2BEFEE70000FEE7000007
:101540007047000070470000FEF798BF70B592B07A
:1015500006AC20463021FEF76BFE002543F6400026
:101560000595CDE90355CDE901550095C4F202007A
:101570000168022641F080510160006800F080504F
:101580000090009847F200000095C4F20000016846
:1015900041F4804101600068A02100F48040009087
:1015A0000098012006904FF4803007904FF480009F
:1015B0000D9004200E90119020460C96CDE90F1648
:1015C000FFF726F910B172B6FEE700BF0F20CDE994
:1015D00001064FF4A05004904FF48050059001A8EC
:1015E00005210395FFF702F810B172B6FEE700BFC0
:1015F00012B070BD4EF68850CEF20000016841F482
:101600007001016070470000242140F22002C4F202
:101610000001C2F20002086853689060984209D144
:10162000B0F5827F02D9012303E000BFC72801D8AB
:1016300000231370506040F27C000022C2F20000D0
:101640000A60FFF78BBC0000B0B540F6FF3E0568AE
:10165000C4F2000E40F2004C7045C4F2010C25DCCF
:10166000B0F1804F2FD040F20043C4F20003984203
:1016700029D040F60003C4F20003984223D041F67B
:10168000FF73C4F20003984228DC70453ADCB0F1E5
:10169000804F5BD040F20043C4F20003984255D023
:1016A00040F60003C4F200034EE000BF40F60043E2
:1016B000C4F20003984206D0604504D00023C4F26F
:1016C00001039842DBD14B6825F0700243EA020522
:1016D00041F6FF73C4F200039842D6DD43F6FF7370
:1016E000C4F2010398421FDC42F20003C4F200037B
:1016F00098422BD00023C4F20103984226D06045C3
:1017000024D028E040F60043C4F2000398421DD0E4
:1017100041F60003C4F20003984217D041F600439B
:10172000C4F2000310E000BF44F20003C4F201035E
:1017300098420BD044F60003C4F20103984205D04E
:1017400044F20043C4F20103984204D1CB6825F46B
:10175000407243EA02050A688C684B69C46240F42F
:1017600080648262644504BF09690163026825F0F0
:10177000800142F0040219430260012242610160CB
:10178000B0BD0000B0B50446006804F108030ECBFC
:101790000569194325F440552A4302616269E369EA
:1017A0001143C268194349F20C639A431143C16063
:1017B0004169A26921F4407141F20043114340F4B0
:1017C0008062C4F201039A42416103D1FEF7D4FF63
:1017D00002E000BFFEF7BCFFE1694FF69C7563684D
:1017E0001922C0F6FF75B1F5004FA0FB02011FD111
:1017F0005A00DB0FFEF7E4FC48F21F51C5F2EB1173
:10180000A0FB01235A0905F1805302FB0300322398
:1018100003EBC000A0FB01014FF4F87000EA1110C7
:1018200000EB0210C1F34211084421688860B0BD8A
:101830009A009B0FFEF7C4FC48F21F51C5F2EB1152
:10184000A0FB01235A0902FB0500322303EB001021
:10185000A0FB0101F02000EA511000EB0210C1F3DF
:101860004311084421688860B0BD0000FEE7000015
:10187000FEF712FEFFF76AFEFFF76AFDFFF73EFE76
:10188000FFF700FEFFF7C4FD40F22C0040F20031EC
:10189000C2F20000C0F20331016000BFFFF77CFC20
:1018A000FCE702E008C8121F08C1002AFAD17047FD
:1018B0007047002001E001C1121F002AFBD17047D0
:1018C00000000000000000000102030406070809F0
:1018D0000000000001020304F818000800000020C6
:1018E00020000000A218000818190008200000209D
:1018F000F0200000B21800080100000010000000F5
:10190000C0F9A4B0999282F880908CBFC6A186FFDE
:08191000BF0000000024F400F8
:040000050800018965
:00000001FF
