:020000040800F2
:10000000B06B00209D010008B93300082D2D0008B9
:10001000B533000855070008ED4400080000000053
:10002000000000000000000000000000A1340008F3
:100030002D08000800000000313400088935000850
:10004000B7010008B7010008B7010008B7010008B0
:10005000B7010008B7010008B7010008B7010008A0
:10006000B7010008B7010008B7010008B701000890
:10007000B7010008B7010008B7010008B701000880
:10008000B7010008B7010008B7010008B701000870
:10009000B7010008B7010008B7010008B701000860
:1000A000B701000879360008B7010008B701000859
:1000B000B7010008B7010008B7010008B701000840
:1000C000B7010008B7010008B7010008B701000830
:1000D000B7010008B7010008B7010008B701000820
:1000E000B7010008B7010008B7010008B701000810
:1000F000B7010008B7010008B7010008B701000800
:10010000B7010008B701000895360008B7010008DC
:10011000B7010008B70100085D370008B701000803
:10012000B7010008B7010008B7010008B7010008CF
:10013000B7010008B7010008B7010008B7010008BF
:10014000B7010008B7010008B7010008B7010008AF
:10015000B7010008B7010008B7010008B70100089F
:10016000B7010008B7010008B7010008B70100088F
:10017000B7010008B7010008B7010008000000003F
:10018000B7010008B7010008DFF80CD000F0CAFA88
:100190000048004769460008B06B002006488047C9
:1001A00006480047FEE7FEE7FEE7FEE7FEE7FEE75C
:1001B000FEE7FEE7FEE7FEE7653600088901000876
:1001C0002DE9F05F0546002092469B46884606468C
:1001D000814640241BE0284641464746224600F01F
:1001E000F1F953465A46C01A914110D311461846A8
:1001F000224600F0D8F92D1A67EB01084F46224637
:100200000120002100F0CFF917EB00094E41201E1C
:10021000A4F10104DFDC484631462A464346BDE8E6
:10022000F09F40EA01039B0703D009E008C9121FB1
:1002300008C0042AFAD203E011F8013B00F8013BA0
:10024000521EF9D27047D2B201E000F8012B491ECC
:10025000FBD270470022F6E710B513460A46044663
:100260001946FFF7F0FF204610BD2DE9FE4F8046EE
:1002700081EA0300C00F0C46009021F0004123F0FA
:100280000045B8EB0200A94105D240462146904600
:100290001C460B46024623F00040104347D0270D72
:1002A000C7F30A00C3F30A510290401A0190402894
:1002B0006BDAC3F3130040F4801B0098924620B120
:1002C0000023D2EB030A63EB0B0B01985946C0F1F4
:1002D0004002504600F067F906460D465046594622
:1002E000019A00F07FF910EB08006141002487EAD1
:1002F000115284EAE7731A4340D0009A62B3019A1C
:10030000012A4FEA075215DC001B61EB02014FF096
:10031000004202EA0752CDE90042001C41F580117B
:1003200032462B4600F07FF903B0BDE8F08F40461F
:100330002146F9E7001B61EB0201001C41F5801327
:1003400000185B412018A2F5001747EB030140EAB3
:10035000D570B6196D4111E06D084FEA360645EAD1
:10036000C0754FEA0752001B61EB0201001C41F50A
:10037000801149084FEA30000019514132462B469E
:1003800003B0BDE8F04F00F03FB9009801224000F3
:100390000023D0EB020263EBE073009821464FEAA2
:1003A000E074B8EB000061EB0401E9E783F000437F
:1003B0005BE781F0004158E72DE9FE4F81EA030435
:1003C00004F0004421F0004100944FF0000B23F0B2
:1003D000004350EA01045ED052EA03045BD0C3F349
:1003E0000A54C1F30A552C44A4F2F3340194A0FB3F
:1003F0000254C1F3130141F48011C3F3130343F416
:10040000801301FB024400FB034E840A970A44EA6E
:10041000815447EA8357A4FB076802958D0A05FBC0
:1004200007854FEA932C04FB0C542705029D4FEAE5
:10043000065847EA1637B5EB08056EEB070C870E32
:10044000920E47EA811742EA8312A7FB0201B6EB3C
:100450000B0164EB00042B0D43EA0C335E1844EBF4
:100460001C50DA465146E7FB0201C5F313044FEA7C
:100470000B3343EA14534FEA0432019C43EA060368
:10048000A4F10C040294009CCDE900B400F0CBF878
:1004900003B0BDE8F08F00200146F9E72DE9F04DEB
:1004A00081EA030404F0004B21F0004514464FF0AC
:1004B000000A23F0004150EA050220D054EA01026C
:1004C0001DD0C5F30A570246C5F31303C1F3130049
:1004D000C1F30A5640F4801543F48013A7EB0608D5
:1004E000101BD64608F2FD3873EB050002D308F165
:1004F000010801E092185B41B8F1000F03DA002017
:100500000146BDE8F08D00204FF480110646844678
:100510000EE0171B73EB050705D3121B63EB0503F6
:1005200006434CEA010C49084FEA300092185B413F
:1005300050EA0107EDD152EA030012D082EA04002A
:1005400083EA0501084305D0101BAB4106D2012206
:10055000002306E000224FF0004302E06FF00102AA
:1005600053101AEB06004CEB085110EB0A0041EB5C
:100570000B01BDE8F04D00F047B830B50B46014621
:1005800000202022012409E021FA02F59D4205D332
:1005900003FA02F5491B04FA02F52844151EA2F1DC
:1005A0000102F1DC30BD202A04DB203A00FA02F11E
:1005B000002070479140C2F1200320FA03F3194351
:1005C00090407047202A04DB203A21FA02F00021F3
:1005D000704721FA02F3D040C2F120029140084353
:1005E00019467047202A06DBCB17203A41FA02F061
:1005F00043EAE07306E041FA02F3D040C2F1200280
:10060000914008431946704710B5141E73F1000459
:1006100008DA401C41F1000192185B411A4301D1F4
:1006200020F0010010BD2DE9F04D92469B4611B11E
:10063000B1FA81F202E0B0FA80F220329046FFF780
:10064000B2FF04460F4640EA0A0041EA0B01534656
:100650005A46084313D0114653EA010019D0C8F195
:1006600040025046FFF7AEFF05460E46504659463B
:100670004246FFF798FF084305D0012004E02046DA
:100680003946BDE8F08D0020054346EAE0762C436C
:1006900037430A986305E40AA0EB08000022FD0A2C
:1006A00044EA47540A3002D500200146E9E7010533
:1006B00010196941DDE9084500196941BDE8F04DAF
:1006C000A2E7C1F30A52C1F3130140F2FF3341F430
:1006D00080119A4202DA00200146704740F233430B
:1006E0009A42A2F2334202DC5242FFF76BBFFFF79D
:1006F0005ABF000030B5041E71F1000404DB4FF056
:100700000044404264EB0101141E73F1000405DB58
:100710001C464FF00043524263EB0403994208BF6A
:10072000904230BD1CB5094800900948019005462B
:10073000009C06E0E06840F0010394E80700984759
:100740001034AC42F6D3FFF723FD0000E87F000829
:1007500008800008FFE7FEE780B586B08DF8170037
:10076000002002908DF8160041F20000C4F2020051
:100770004021012200F0E6FB02988DF81600FFE709
:100780009DF8160007284FDCFFE79DF817000006CC
:10079000002809D5FFE741F20000C4F20200402121
:1007A000012200F0CFFB08E041F20000C4F2020099
:1007B0004021002200F0C6FBFFE741F20000C4F236
:1007C000020020210022019200F0BCFB019804905D
:1007D000FFE70498B0F5A07F05DAFFE7FFE704988C
:1007E00001300490F5E741F20000C4F2020020213C
:1007F000012200F0A7FB00200390FFE70398B0F56B
:10080000A07F05DAFFE7FFE7039801300390F5E7E3
:100810009DF8170040008DF81700FFE79DF81600BF
:1008200001308DF81600ABE706B080BD70470000C0
:1008300072B6FFE7FEE7000081B0009001B070479C
:1008400087B005900491039200208DF80B00059865
:1008500018B1FFE7049820B9FFE701208DF81B00CD
:1008600049E0FFE705984079012804D1FFE702201D
:100870008DF81B003FE0059901204871FFE7FFE775
:100880000599022008710598006800680190039896
:1008900000F0100140F6FE7000FA01F10198884363
:1008A00001900499086849680843009000980399EA
:1008B00001F0100100FA01F101980843019001983C
:1008C000059909680860039800F01001C02000FA3B
:1008D00001F20598016808689043086005990120B5
:1008E0000871FFE7059900204871FFE79DF80B00AC
:1008F0008DF81B00FFE79DF81B0007B07047000054
:1009000081B0009001B0704780B584B00390039827
:1009100000680068029003980068406B01909DF8A1
:100920000900800600281ED5FFE79DF80500800617
:10093000002817D5FFE70399042008710399086977
:1009400040F001000861039801684FF400504863CB
:1009500003980168086820F4805008600398FFF746
:10096000CFFFFFE7FFE79DF80B00800600281ED5AC
:10097000FFE79DF807008006002817D5FFE70399D9
:10098000042008710399086940F002000861039887
:1009900001684FF00050486303980168086820F030
:1009A000805008600398FFF747FFFFE7FFE704B0B8
:1009B00080BD000080B582B00090009820B9FFE7AC
:1009C00001208DF8070016E00098007938B9FFE79C
:1009D000009900204871009800F012F8FFE7009994
:1009E00002200871009900200861009A012111710C
:1009F0008DF80700FFE79DF8070002B080BD0000FA
:100A000080B58AB009900020089007900690059064
:100A100004900998006847F20041C4F2000188423E
:100A200039D1FFE7FFE70020039043F64000C4F20E
:100A30000200016841F000510160006800F00050C0
:100A400003900398FFE7FFE70020029043F6300091
:100A5000C4F20200016841F001010160006800F089
:100A6000010002900298FFE71020049003200590F7
:100A70000020009006900020C4F2020004A900F0BB
:100A80006DF8009A36200190052100F047FB01988F
:100A900000F03AFBFFE70AB080BD000083B0019090
:100AA0000091019820B9FFE701208DF80B0050E07C
:100AB000FFE701984079012804D1FFE702208DF873
:100AC0000B0046E0019901204871FFE7FFE701991B
:100AD00002200871009800F01001012000FA01F2D4
:100AE00001980168086810430860009880B9FFE722
:100AF00001980068006800F03C003C2807D1FFE73F
:100B000001980168486840F001004860FFE714E080
:100B100001980068006800F47010009901F010025C
:100B20003C219140884207D1FFE70198016848685D
:100B300040F002004860FFE7FFE7019901200871DB
:100B4000FFE7019900204871FFE700208DF80B00B6
:100B5000FFE79DF80B0003B0704700008EB00D90CA
:100B60000C9100200A90099008900B90FFE70B98D9
:100B70000F2800F2CC81FFE70B99012088400A90F2
:100B80000C9800680A990840099009980A998842C7
:100B900040F0B881FFE70C98406800F0030001289E
:100BA00007D0FFE70C98406800F0030002282FD11F
:100BB000FFE70D98806808900B984100032000FA29
:100BC00001F10898884308900C98C0680B99490077
:100BD00000FA01F108980843089008980D99886078
:100BE0000D98406808900B99012000FA01F10898CF
:100BF000884308900C984068C0F300100B9900FAE5
:100C000001F108980843089008980D994860FFE79B
:100C10000C98406800F00300032818D0FFE70D98F7
:100C2000C06808900B984100032000FA01F1089871
:100C3000884308900C9880680B99490000FA01F1EC
:100C400008980843089008980D99C860FFE70C9829
:100C5000406800F00300022826D1FFE70D980B99A9
:100C60006FF0030202EA51010844006A08900B98F1
:100C700000F0070081000F2000FA01F10898884376
:100C800008900C9800690B9901F00701890000FA9F
:100C900001F108980843089008980D990B9B02EA07
:100CA000530211440862FFE70D98006808900B9802
:100CB0004100032000FA01F10898884308900C983D
:100CC000406800F003000B99490000FA01F1089810
:100CD0000843089008980D9908600C98807980075F
:100CE000002800F00E81FFE7FFE70020079043F6A1
:100CF0004400C4F20200016841F4804101600068D0
:100D000000F4804007900798FFE70B9820F003005D
:100D100043F60801C4F20101405808900B9800F016
:100D2000030081000F2000FA01F108988843089021
:100D30000D980021C4F20201884203D1FFE7002090
:100D400006905EE00D9840F20041C4F20201884234
:100D500003D1FFE70120059050E00D9840F6000117
:100D6000C4F20201884203D1FFE70220049042E06E
:100D70000D9840F60041C4F20201884203D1FFE71A
:100D80000320039034E00D9841F20001C4F2020107
:100D9000884203D1FFE70420029026E00D9841F23B
:100DA0000041C4F20201884203D1FFE7052001900F
:100DB00018E00D9841F60001C4F20201884203D107
:100DC000FFE7062000900AE00D9941F60042C4F2C8
:100DD00002020820914208BF07200090FFE7009818
:100DE0000190FFE701980290FFE702980390FFE768
:100DF00003980490FFE704980590FFE70598069094
:100E0000FFE70698C0B20B9901F00301890000FAD0
:100E100001F108980843089008980B9921F0030104
:100E200043F60802C4F20102885043F60840C4F2B7
:100E300001000068089009990898884308900C9868
:100E40008079C006002805D5FFE70999089808436E
:100E50000890FFE7089843F60841C4F201010860D2
:100E600043F60C40C4F20100006808900999089804
:100E7000884308900C9880798006002805D5FFE704
:100E80000999089808430890FFE7089843F60C4131
:100E9000C4F20101086043F60440C4F20100006896
:100EA000089009990898884308900C9880798007E1
:100EB000002805D5FFE70999089808430890FFE73F
:100EC000089843F60441C4F20101086043F600406B
:100ED000C4F20100006808900999089888430890B6
:100EE0000C988079C00728B1FFE709990898084352
:100EF0000890FFE7089843F60041C4F2010108603A
:100F0000FFE7FFE7FFE70B9801300B902FE60EB0ED
:100F10007047000082B00190ADF80210019800699E
:100F2000BDF80210084204D0FFE701208DF801004F
:100F300003E000208DF80100FFE79DF8010002B0FA
:100F40007047000082B00190ADF802108DF80120CA
:100F50009DF8010028B1FFE7BDF802000199886102
:100F600005E0BDF80200000401998861FFE702B0C6
:100F70007047000044F2D430C2F2000000687047AD
:100F800040F21E00C2F20000027844F2D431C2F2F4
:100F900000010868104408607047000080B543F6FF
:100FA0000041C4F20201086840F40070086008685B
:100FB00040F480600860086840F480700860032096
:100FC00000F0C6F8052000F005F800F071F80020E8
:100FD00080BD000080B58CB00B900020059004907F
:100FE000FFE70020019043F64400C4F202000168CC
:100FF00041F400310160006800F400300190019874
:10100000FFE706A803A900F0DDF900F01DFA400093
:10101000059005984DF68361C4F21B31A0FB0101D8
:101020004FF0FF3000EB9140049040F29C00C2F280
:10103000000044F20041C4F20101016040F2E731D6
:10104000C16004994160002101618160816100F00B
:10105000D5FE8DF80B009DF80B0028BBFFE740F292
:101060009C00C2F2000001F051F88DF80B009DF8D1
:101070000B00C0B9FFE7192000F046F80B980F28C5
:101080000CD8FFE70B991920002200F047F80B98C5
:1010900040F22001C2F20001086003E001208DF857
:1010A0000B00FFE7FFE7FFE79DF80B000CB080BDEA
:1010B00080B582B0FFE70020019043F64400C4F2FF
:1010C0000200016841F480410160006800F4804042
:1010D00001900198FFE7FFE70020009043F64000F1
:1010E000C4F20200016841F080510160006800F024
:1010F000805000900098FFE76FF001000F21002260
:1011000000F00CF802B080BD80B582B08DF8070009
:101110009DF9070003F0ECF902B080BD80B586B000
:101120008DF81700049103920020029003F0F8F963
:1011300002909DF91700019002980499039A02F019
:101140003DF90146019803F0F3F906B080BD0000B7
:1011500080B582B00190019803F02EFA02B080BDF4
:1011600080B584B002900191029820B9FFE7012078
:101170008DF80F0021E1019843F60041C4F202010D
:10118000096801F00701884212D9FFE7019943F687
:101190000040C4F202000170006800F007000199ED
:1011A000884204D0FFE701208DF80F0005E1FFE73A
:1011B00002980078800700282AD5FFE70298007877
:1011C0004007002809D5FFE743F60801C4F20201F1
:1011D000086840F4E0500860FFE7029800780007D4
:1011E000002809D5FFE743F60801C4F202010868A8
:1011F00040F460400860FFE743F60801C4F20201D2
:10120000086820F0F000029A926810430860FFE737
:1012100002980078C00700286ED0FFE70298406867
:10122000012811D1FFE743F60000C4F20200006874
:1012300000F400310020B0EB514F04D1FFE7012052
:101240008DF80F00B9E02CE002984068022805D024
:10125000FFE702984068032811D1FFE743F600003A
:10126000C4F20200006800F000710020B0EB516F82
:1012700004D1FFE701208DF80F009EE010E043F657
:101280000000C4F20200006800F002010020B0EB90
:10129000510F04D1FFE701208DF80F008DE0FFE72B
:1012A000FFE743F60801C4F20201086820F00300DA
:1012B000029A526810430860FFF75CFE0090FFE757
:1012C00043F60800C4F20200006800F00C00029926
:1012D0004968B0EB810F0ED0FFE7FFF74BFE009996
:1012E000401A41F28931884204D3FFE703208DF888
:1012F0000F0062E0E4E7FFE7019843F60041C4F223
:101300000201096801F00701884212D2FFE7019942
:1013100043F60040C4F202000170006800F00700CC
:101320000199884204D0FFE701208DF80F0044E0C6
:10133000FFE702980078400700280CD5FFE743F646
:101340000801C4F20201086820F4E050029AD26851
:1013500010430860FFE702980078000700280DD5C9
:10136000FFE743F60801C4F20201086820F4604078
:10137000029A126940EAC2000860FFE700F076F8BE
:1013800043F60801C4F202010968C9B20A0947F626
:101390001E71C0F60001895CC84040F20401C2F22F
:1013A0000001086040F22000C2F200000068FFF770
:1013B00011FE00208DF80F00FFE79DF80F0004B02C
:1013C00080BD000082B00190009101990F2008605B
:1013D00043F60800C4F20200016801F00301019A1B
:1013E0005160016801F0F001019A9160016801F417
:1013F000E051019AD160006800F46040C008019992
:10140000086143F60040C4F20200006800F00700E3
:101410000099086002B0704740F20400C2F2000078
:101420000068704780B5FFF7F7FF43F60801C4F284
:1014300002010968C1F3822247F62E71C0F600014D
:10144000895CC84080BD000080B5FFF7E5FF43F62A
:101450000801C4F20201096889B24A0B47F62E71ED
:10146000C0F60001895CC84080BD000080B586B030
:101470000020059004900390029043F60800C4F207
:101480000200006800F00C000146019140B1FFE746
:10149000019804280AD0FFE7019808280CD04FE0F3
:1014A00042F20040C0F2F40002904FE041F200200E
:1014B000C0F27A00029049E043F60400C4F2020050
:1014C000016801F03F01059100684002002813D532
:1014D000FFE743F60400C4F202000068C0F388107E
:1014E00041F20021C0F27A01A0FB0101059A00231C
:1014F000FEF766FE049012E043F60400C4F2020018
:101500000068C0F3881042F20041C0F2F401A0FB71
:101510000101059A0023FEF753FE0490FFE743F60E
:101520000400C4F20200006800F44031022000EB25
:10153000D130039004980399B0FBF1F0029005E0DC
:1015400042F20040C0F2F4000290FFE7029806B0B9
:1015500080BD000080B586B00490049820B9FFE7F4
:1015600001208DF8170050E304980078C007002888
:1015700000F0A580FFE743F60800C4F2020000680F
:1015800000F00C00042813D0FFE743F60800C4F273
:101590000200006800F00C0008281ED1FFE743F6A7
:1015A0000400C4F2020000684002002815D5FFE7DD
:1015B00043F60000C4F20200006800F4003100208D
:1015C000B0EB514F08D0FFE70498406820B9FFE71F
:1015D00001208DF8170018E370E0FFE704984068D9
:1015E000B0F5803F09D1FFE743F60001C4F20201E4
:1015F000086840F48030086020E004984068B0F546
:10160000A02F0DD1FFE743F60001C4F202010868E4
:1016100040F480200860086840F4803008600CE0E6
:1016200043F60001C4F20201086820F4803008602B
:10163000086820F480200860FFE7FFE7FFE70498D0
:101640004068E8B1FFE7FFF795FC0390FFE743F63A
:101650000000C4F20200006800F400310020B0EB8A
:10166000514F0CD1FFE7FFF785FC0399401A65281D
:1016700004D3FFE703208DF81700C6E2E7E71CE07C
:10168000FFF778FC0390FFE743F60000C4F2020086
:10169000006800F400310020B0EB514F0CD0FFE7A0
:1016A000FFF768FC0399401A652804D3FFE703207D
:1016B0008DF81700A9E2E7E7FFE7FFE7FFE70498E7
:1016C00000788007002840F19680FFE743F6080085
:1016D000C4F20200006810F00C0F13D0FFE743F6CD
:1016E0000800C4F20200006800F00C0008282CD1A9
:1016F000FFE743F60400C4F202000068400200283D
:1017000023D4FFE743F60000C4F20200006800F0B3
:1017100002010020B0EB510F09D0FFE70498C06828
:10172000012804D0FFE701208DF817006DE243F691
:101730000001C4F20201086820F0F800049A12695E
:1017400040EAC2000860FFE754E00498C06870B344
:10175000FFE70021C4F2472101200860FFF70AFCDF
:101760000390FFE743F60000C4F20200006800F0B7
:1017700002010020B0EB510F0CD1FFE7FFF7FAFB9D
:101780000399401A032804D3FFE703208DF81700BC
:101790003BE2E7E743F60001C4F20201086820F0EB
:1017A000F800049A126940EAC200086021E00021B2
:1017B000C4F2472100200860FFF7DCFB0390FFE73D
:1017C00043F60000C4F20200006800F002010020AD
:1017D000B0EB510F0CD0FFE7FFF7CCFB0399401A99
:1017E000032804D3FFE703208DF817000DE2E7E795
:1017F000FFE7FFE7FFE704980078000700284BD5D4
:10180000FFE70498406918B3FFE740F68061C4F22F
:10181000472101200860FFF7ADFB0390FFE743F687
:101820007400C4F20200006800F002010020B0EB76
:10183000510F0CD1FFE7FFF79DFB0399401A0328D6
:1018400004D3FFE703208DF81700DEE1E7E722E08D
:1018500040F68061C4F2472100200860FFF78AFB50
:101860000390FFE743F67400C4F20200006800F042
:1018700002010020B0EB510F0CD0FFE7FFF77AFB1D
:101880000399401A032804D3FFE703208DF81700BB
:10189000BBE1E7E7FFE7FFE704980078400700288F
:1018A00040F1CE80FFE700208DF8070043F64000AE
:1018B000C4F202000068C000002815D4FFE7FFE76B
:1018C0000020009043F64000C4F20200016841F09D
:1018D00080510160006800F0805000900098FFE7A0
:1018E00001208DF80700FFE747F20000C4F2000076
:1018F0000068C005002822D4FFE747F20001C4F2C7
:101900000001086840F480700860FFF733FB039023
:10191000FFE747F20000C4F200000068C00500289D
:101920000CD4FFE7FFF726FB0399401A032804D3E2
:10193000FFE703208DF8170067E1EAE7FFE7FFE71D
:1019400004988068012809D1FFE743F67001C4F2CA
:101950000201086840F0010008601FE004988068F8
:1019600005280DD1FFE743F67001C4F202010868B3
:1019700040F004000860086840F0010008600CE0D6
:1019800043F67001C4F20201086820F0010008600B
:10199000086820F004000860FFE7FFE7FFE704980D
:1019A0008068F8B1FFE7FFF7E5FA0390FFE743F639
:1019B0007000C4F20200006800F002010020B0EBE9
:1019C000510F0ED1FFE7FFF7D5FA0399401A41F204
:1019D0008931884204D3FFE703208DF8170014E112
:1019E000E5E71EE0FFF7C6FA0390FFE743F6700055
:1019F000C4F20200006800F002010020B0EB510FB9
:101A00000ED0FFE7FFF7B6FA0399401A41F2893189
:101A1000884204D3FFE703208DF81700F5E0E5E7DF
:101A2000FFE79DF80700012809D1FFE743F64001D1
:101A3000C4F20201086820F080500860FFE7FFE769
:101A400004988069002800F0DC80FFE743F6080076
:101A5000C4F20200006800F00C00082800F0858045
:101A6000FFE70498806902285CD1FFE76021C4F297
:101A7000472100200860FFF77DFA0390FFE743F657
:101A80000000C4F20200006800F000710020B0EB1A
:101A9000516F0CD0FFE7FFF76DFA0399401A032846
:101AA00004D3FFE703208DF81700AEE0E7E70499C1
:101AB000C869D1F820C04B6A8A6A40EA0C0040EA43
:101AC0008310D2034FF6FF739A43A2F5803210437E
:101AD000C96A40EA016043F60401C4F202010860E9
:101AE0006021C4F2472101200860FFF743FA039008
:101AF000FFE743F60000C4F20200006800F0007146
:101B00000020B0EB516F0CD1FFE7FFF733FA0399D8
:101B1000401A032804D3FFE703208DF8170074E070
:101B2000E7E721E06021C4F2472100200860FFF7C9
:101B300021FA0390FFE743F60000C4F202000068B8
:101B400000F000710020B0EB516F0CD0FFE7FFF701
:101B500011FA0399401A032804D3FFE703208DF8F4
:101B6000170052E0E7E7FFE74AE0049880690128A0
:101B700004D1FFE701208DF8170046E043F604008A
:101B8000C4F202000068029004988069012831D0F4
:101B9000FFE7029800F480000499C969884229D1BE
:101BA000FFE7029800F03F000499096A884221D1BA
:101BB000FFE7029847F6C07108400499496AB0EB04
:101BC000811F17D1FFE7029800F440300499896A19
:101BD000C9034FF6FF729143A1F58031884209D1C4
:101BE000FFE7029800F070600499C96AB0EB016FDA
:101BF00004D0FFE701208DF8170006E0FFE7FFE7BC
:101C0000FFE700208DF81700FFE79DF8170006B0EA
:101C100080BD000081B0009001B0704781B000909D
:101C200001B0704784B00290019100200090FFE75E
:101C3000029890F83C00012804D1FFE702208DF8BB
:101C40000F0044E00299012081F83C00FFE7FFE724
:101C5000009820F0FF000199C9680843009000989F
:101C600020F440700199896808430090009820F49E
:101C700080600199496808430090009820F4006052
:101C80000199096808430090009820F48050019958
:101C9000096908430090009820F4005001994969AF
:101CA00008430090009820F480400199C9690843D6
:101CB00000900098029909684864FFE702990020A3
:101CC00081F83C00FFE700208DF80F00FFE79DF84A
:101CD0000F0004B07047000085B003900291FFE749
:101CE000039890F83C00012804D1FFE702208DF80A
:101CF00013007EE00399012081F83C00FFE7FFE735
:101D00000399022081F83D00039800684068019023
:101D10000398006880680090019820F0700001909E
:101D20000298016801980843019001980399096895
:101D30004860039800680021C4F2010188423CD049
:101D4000FFE703980068B0F1804F36D0FFE70398B3
:101D5000006840F20041C4F2000188422DD0FFE744
:101D60000398006840F60001C4F20001884224D0C4
:101D7000FFE70398006840F60041C4F20001884282
:101D80001BD0FFE70398006840F20041C4F2010154
:101D9000884212D0FFE70398006844F20001C4F2C1
:101DA0000101884209D0FFE70398006841F600016D
:101DB000C4F2000188420ED1FFE7009820F08000B5
:101DC0000090029841680098084300900098039999
:101DD00009688860FFE70399012081F83D00FFE76B
:101DE0000399002081F83C00FFE700208DF81300E4
:101DF000FFE79DF8130005B07047000080B582B082
:101E00000090009820B9FFE701208DF807003FE01F
:101E1000009890F83D0040B9FFE70099002081F854
:101E20003C00009800F038F8FFE70099022081F8A4
:101E30003D00009951F8040B01F098FC0099012035
:101E400081F84600FFE70099012081F83E000099E3
:101E500081F83F00009981F84000009981F8410025
:101E6000FFE7FFE70099012081F84200009981F81F
:101E70004300009981F84400009981F84500FFE78C
:101E80000099012081F83D0000208DF80700FFE750
:101E90009DF8070002B080BD80B58EB00D90002087
:101EA0000C900B900A90099008900D980068002102
:101EB000C4F2010188421BD1FFE7FFE70020079031
:101EC00043F64400C4F20200016841F001010160E0
:101ED000006800F0010007900798FFE719200190C3
:101EE00005210022FFF71AF90198FFF70DF995E097
:101EF0000D980068B0F1804F32D1FFE7FFE7002076
:101F0000069043F64000C4F20200016841F001016E
:101F10000160006800F0010006900698FFE7FFE707
:101F20000020059043F63000C4F20200016841F041
:101F300001010160006800F0010005900598FFE7CD
:101F4000202008900220099000200A900B90012088
:101F50000C900020C4F2020008A9FEF7FFFD5CE02F
:101F60000D98006840F20041C4F20001884212D18D
:101F7000FFE7FFE70020049043F64000C4F20200B0
:101F8000016841F002010160006800F00200049065
:101F90000498FFE740E00D98006840F60001C4F2A5
:101FA0000001884212D1FFE7FFE70020039043F6CB
:101FB0004000C4F20200016841F0040101600068C1
:101FC00000F0040003900398FFE724E00D980068F8
:101FD00040F60041C4F2000188421BD1FFE7FFE751
:101FE0000020029043F64000C4F20200016841F074
:101FF00008010160006800F0080002900298FFE705
:102000003220009005210022FFF788F80098FFF7A2
:102010007BF8FFE7FFE7FFE7FFE7FFE70EB080BDD4
:1020200083B00190019890F83D00012804D0FFE7AB
:1020300001208DF80B0064E00199022081F83D0039
:10204000019800680021C4F2010188423CD0FFE7FA
:1020500001980068B0F1804F36D0FFE70198006822
:1020600040F20041C4F2000188422DD0FFE7019800
:10207000006840F60001C4F20001884224D0FFE766
:102080000198006840F60041C4F2000188421BD06C
:10209000FFE70198006840F20041C4F20101884264
:1020A00012D0FFE70198006844F20001C4F2010178
:1020B000884209D0FFE70198006841F60001C4F2A8
:1020C0000001884212D1FFE701980068806800F0A3
:1020D000070000900098062807D0FFE701980168E4
:1020E000086840F001000860FFE706E00198016819
:1020F000086840F001000860FFE700208DF80B0041
:10210000FFE79DF80B0003B07047000083B001901B
:10211000019890F83D00012804D0FFE701208DF8D8
:102120000B006AE00199022081F83D0001980168E6
:10213000C86840F00100C860019800680021C4F23E
:10214000010188423CD0FFE701980068B0F1804F60
:1021500036D0FFE70198006840F20041C4F2000168
:1021600088422DD0FFE70198006840F60001C4F2D4
:102170000001884224D0FFE70198006840F6004142
:10218000C4F2000188421BD0FFE70198006840F2CA
:102190000041C4F20101884212D0FFE701980068B3
:1021A00044F20001C4F20101884209D0FFE701981E
:1021B000006841F60001C4F20001884212D1FFE735
:1021C00001980068806800F00700009000980628D9
:1021D00007D0FFE701980168086840F00100086037
:1021E000FFE706E001980168086840F00100086018
:1021F000FFE700208DF80B00FFE79DF80B0003B010
:102200007047000080B586B00490039100208DF8DF
:102210000B00FFE7049890F83C00012804D1FFE789
:1022200002208DF81700ABE00499012081F83C00F2
:10223000FFE7FFE70499022081F83D000498006859
:1022400080680190019820F077000190019820F4B7
:102250007F4001900198049909688860039800689C
:102260000090002872D0FFE7009810286ED0FFE79A
:10227000009820286AD0FFE70098302866D0FFE752
:102280000098402855D0FFE70098502837D0FFE746
:102290000098602840D0FFE7009870280BD0FFE737
:1022A0000098B0F5805F05D0FFE70098B0F5005FBB
:1022B00016D052E055E004980068039B5A6899686C
:1022C000DB6801F041FB0498006880680190019888
:1022D00040F077000190019804990968886040E017
:1022E00004980068039B5A689968DB6801F02CFB2E
:1022F00004980168886840F48040886031E0049860
:102300000068039A5168D26801F00AFD04980068D9
:10231000502101F033FB24E004980068039A5168CF
:10232000D26801F025FD04980068602101F026FBC9
:1023300017E004980068039A5168D26801F0F0FC35
:1023400004980068402101F019FB0AE00498006835
:102350000399096801F012FB03E001208DF80B00DE
:10236000FFE70499012081F83D00FFE70499002070
:1023700081F83C00FFE79DF80B008DF81700FFE7A0
:102380009DF8170006B080BD81B0009001B0704785
:1023900080B584B0039003980068C06802900398E9
:1023A0000068006901909DF804008007002824D58A
:1023B000FFE79DF80800800700281DD5FFE7039878
:1023C00001686FF002000861039901200877039803
:1023D00000688069800720B1FFE70398FFF7D4FF0A
:1023E00006E0039800F07AF9039800F06FFAFFE72F
:1023F000039900200877FFE7FFE79DF804004007F6
:10240000002825D5FFE79DF80800400700281ED5C5
:10241000FFE7039801686FF0040008610399022048
:10242000087703980068806910F4407F04D0FFE7C4
:102430000398FFF7A9FF06E0039800F04FF903980F
:1024400000F044FAFFE7039900200877FFE7FFE771
:102450009DF804000007002824D5FFE79DF8080038
:10246000000700281DD5FFE7039801686FF00800FA
:10247000086103990420087703980068C069800701
:1024800020B1FFE70398FFF77FFF06E0039800F015
:1024900025F9039800F01AFAFFE70399002008775E
:1024A000FFE7FFE79DF80400C006002825D5FFE7F9
:1024B0009DF80800C00600281ED5FFE703980168B4
:1024C0006FF01000086103990820087703980068EE
:1024D000C06910F4407F04D0FFE70398FFF754FF72
:1024E00006E0039800F0FAF8039800F0EFF9FFE730
:1024F000039900200877FFE7FFE79DF80400C00775
:1025000078B1FFE79DF80800C00748B1FFE70398DE
:1025100001686FF001000861039800F0C1FAFFE75D
:10252000FFE79DF804000006002810D5FFE79DF89E
:1025300008000006002809D5FFE7039801686FF03E
:10254000800008610398FFF765FBFFE7FFE79DF850
:1025500004004006002810D5FFE79DF8080040065B
:10256000002809D5FFE7039801686FF04000086173
:10257000039800F0A7FAFFE7FFE79DF80400800644
:10258000002810D5FFE79DF808008006002809D52F
:10259000FFE7039801686FF0200008610398FFF7D8
:1025A0003DFBFFE7FFE704B080BD000080B58CB0C5
:1025B0000B9000200A9009900890079006900B98C5
:1025C00000680021C4F20101884222D1FFE7FFE741
:1025D0000020059043F63000C4F20200016841F08B
:1025E00010010160006800F0100005900598FFE7F9
:1025F0004FF4007006900220079008900990012087
:102600000A9041F20000C4F2020006A9FEF7A6FA01
:1026100062E00B98006840F20041C4F20001884279
:102620002ED1FFE7FFE70020049043F63000C4F20C
:102630000200016841F001010160006800F0010042
:1026400004900498FFE74020069002200090079035
:10265000089009900A900020C4F20200019006A997
:102660000291FEF77BFA009A019802998023069363
:1026700007920023089309930A92FEF76FFA2AE063
:102680000B98006840F60001C4F20001884221D195
:10269000FFE7FFE70020039043F63000C4F202009A
:1026A000016841F008010160006800F00800039033
:1026B0000398FFE74FF4805006900220079008909F
:1026C00009900A9040F60040C4F2020006A9FEF705
:1026D00045FAFFE7FFE7FFE70CB080BD81B000904F
:1026E00001B0704780B586B004900391029200203B
:1026F0008DF80700FFE7049890F83C00012804D10A
:10270000FFE702208DF8170089E00499012081F885
:102710003C00FFE7FFE7029800900C2800F2708071
:102720000099DFE801F0076D6D6D206D6D6D3A6DFC
:102730006D6D530004980068039901F035F9049811
:102740000168886940F00800886104980168886918
:1027500020F0040088610398026904980168886980
:102760001043886150E004980068039901F092F9E1
:1027700004980168886940F40060886104980168E1
:10278000886920F480608861039802690498016870
:10279000886940EA0220886136E00498006803995D
:1027A00001F0F2F904980168C86940F00800C861B6
:1027B00004980168C86920F00400C86103980269A0
:1027C00004980168C8691043C8611DE00498006856
:1027D000039901F053FA04980168C86940F4006055
:1027E000C86104980168C86920F48060C8610398D2
:1027F000026904980168C86940EA0220C86103E0E0
:1028000001208DF80700FFE7FFE70499002081F819
:102810003C00FFE79DF807008DF81700FFE79DF8E3
:10282000170006B080BD000080B582B0009000980F
:1028300020B9FFE701208DF807003FE0009890F8ED
:102840003D0040B9FFE70099002081F83C00009866
:1028500000F038F8FFE70099022081F83D00009968
:1028600051F8040B00F082FF0099012081F8460026
:10287000FFE70099012081F83E00009981F83F00B0
:10288000009981F84000009981F84100FFE7FFE7D7
:102890000099012081F84200009981F843000099D5
:1028A00081F84400009981F84500FFE70099012074
:1028B00081F83D0000208DF80700FFE79DF8070034
:1028C00002B080BD81B0009001B0704781B000902F
:1028D00001B0704780B58CB00A900991099828B969
:1028E000FFE70A9890F83E0007901CE0099804283A
:1028F00005D1FFE70A9890F83F00069010E009988C
:10290000082805D1FFE70A9890F84000059004E0F8
:102910000A9890F841000590FFE705980690FFE7B8
:1029200006980790FFE70798012804D0FFE70120E9
:102930008DF82F00AFE0099828B9FFE70A99022027
:1029400081F83E001EE00998042806D1FFE70A99A5
:10295000022081F83F00049012E00998082806D16F
:10296000FFE70A99022081F84000039005E00A99E8
:10297000022081F841000390FFE703980490FFE7ED
:102980000498FFE70A98006809990122019200F073
:10299000BFFF01980A9909680022C4F2010291421E
:1029A00002900CD0FFE70A9800684FF60041CBF682
:1029B000FE710844B0FA80F040090290FFE70298E7
:1029C000C00738B1FFE70A980168486C40F400403E
:1029D0004864FFE70A9800680021C4F201018842B8
:1029E0003CD0FFE70A980068B0F1804F36D0FFE78F
:1029F0000A98006840F20041C4F2000188422DD0DC
:102A0000FFE70A98006840F60001C4F2000188421E
:102A100024D0FFE70A98006840F60041C4F20001A4
:102A200088421BD0FFE70A98006840F20041C4F2D8
:102A30000101884212D0FFE70A98006844F20001C1
:102A4000C4F20101884209D0FFE70A98006841F604
:102A50000001C4F20001884212D1FFE70A98006821
:102A6000806800F0070008900898062807D0FFE764
:102A70000A980168086840F001000860FFE706E076
:102A80000A980168086840F001000860FFE700202C
:102A90008DF82F00FFE79DF82F000CB080BD0000DF
:102AA00080B582B001900198006844F20041C4F200
:102AB0000101884203D1FFE7FEF762FAFFE702B0A7
:102AC00080BD000081B0009001B0704780B582B039
:102AD0000090009820B9FFE701208DF8070040E042
:102AE0000098806908B1FFE700E0FFE7009890F8E0
:102AF000410040B9FFE70099002081F840000098AC
:102B000000F034F8FFE70099242081F84100009894
:102B10000168C86820F40050C860009801F0DAFB32
:102B200000980168086920F49040086100980168E5
:102B3000486920F02A00486100980168C86840F49C
:102B40000050C860009900204864009A202182F853
:102B50004110009A82F84210009948638DF80700EE
:102B6000FFE79DF8070002B080BD000080B588B087
:102B7000079000200690059004900390029007981B
:102B8000006841F20001C4F20101884234D1FFE73C
:102B9000FFE70020019043F64400C4F20200016800
:102BA00041F010010160006800F0100001900198F0
:102BB000FFE7FFE70020009043F63000C4F2020078
:102BC000016841F001010160006800F0010000901F
:102BD0000098FFE74FF4C0600290022003900020AD
:102BE000049003200590072006900020C4F2020004
:102BF00002A9FDF7B3FFFFE708B080BD80B58AB03A
:102C000008900791ADF81A200593002002900898CB
:102C100090F84100202840F08180FFE7079820B11C
:102C2000FFE7BDF81A0020B9FFE701208DF8270063
:102C300078E00899002048640899212081F8410033
:102C4000FEF798F90290BDF81A0008998884BDF83B
:102C50001A000899C88408988068B0F5805F09D187
:102C6000FFE70898006928B9FFE70020049007985B
:102C7000039004E00798049000200390FFE7FFE72B
:102C80000898C08C78B3FFE70898029B05996A46BC
:102C900011608021002201F0BBFB40B1FFE70899E1
:102CA000202081F8410003208DF827003AE00498A5
:102CB00058B9FFE7039800886FF35F200899096807
:102CC000486003980230039008E00498007808995F
:102CD00009684860049801300490FFE70899C88C9F
:102CE0000138C884CCE70898029B05996A461160B0
:102CF0004021002201F08CFB40B1FFE70899202021
:102D000081F8410003208DF827000BE0089920206E
:102D100081F8410000208DF8270003E002208DF8A3
:102D20002700FFE79DF827000AB080BDFFE7FEE718
:102D300080B582B000200190009040F24000C2F2C5
:102D4000000047F20041C4F200010160FDF732FECD
:102D500018B1FFE7FDF76CFDFFE70022009201923A
:102D600040F24000C2F200006946FDF769FD18B16B
:102D7000FFE7FDF75DFDFFE702B080BD80B582B0E3
:102D800043F2D540C0F6000047F66C72C0F6000270
:102D90000021019101F03AFD019940F23802C2F29E
:102DA0000002106043F2E540C0F6000047F63872BA
:102DB000C0F6000201F02AFD019940F23002C2F291
:102DC0000002106043F24150C0F6000047F69072D6
:102DD000C0F6000201F01AFD40F25821C2F20001D3
:102DE000086002B080BD000080B594B00020139050
:102DF0001290119010900F90FFE700200E9043F674
:102E00003000C4F20200016841F010010160006866
:102E100000F010000E900E98FFE7FFE700200D90E5
:102E200043F63000C4F20200016841F02001016065
:102E3000006800F020000D900D98FFE7FFE70020EC
:102E40000C9043F63000C4F20200016841F08001AA
:102E50000160006800F080000C900C98FFE7FFE72D
:102E600000200B9043F63000C4F20200016841F0EC
:102E700001010160006800F001000B900B98FFE772
:102E8000FFE700200A9043F63000C4F20200016818
:102E900041F008010160006800F008000A900A98FB
:102EA000FFE7FFE70020099043F63000C4F202007C
:102EB000016841F002010160006800F00200099021
:102EC0000998FFE741F20000C4F2020000906C2173
:102ED00000220692FEF736F8069A41F20040C4F24C
:102EE0000200029007210391FEF72CF840F2004007
:102EF000C4F2020007901021049101220592FEF70E
:102F000021F8009805990C220F921091119102213D
:102F1000019112910FA90891FDF720FE0098019AE6
:102F2000DDF814C0069B08994FF0600ECDF83CE028
:102F3000CDF840C011931292FDF710FE019A02984D
:102F4000DDF814C0069B0899DDF80CE0CDF83CE0F4
:102F5000CDF840C011931292FDF700FEDDF810C0CD
:102F6000059B069A07980899CDF83CC010931192DA
:102F700003221292FDF7F2FD14B080BD80B598B027
:102F800000210191179116911591149113911291AD
:102F9000119110910F910E910D910C910B910A913D
:102FA000099108910791069105910491039140F2CE
:102FB0005400C2F2000002900022C4F2010202603A
:102FC000416081609F22C260016141618021816115
:102FD000FEF714FF18B1FFE7FDF72AFCFFE74FF4F7
:102FE0008050149040F25400C2F2000014A9FFF780
:102FF00009F918B1FFE7FDF71BFCFFE740F25400A9
:10300000C2F20000FFF710FC18B1FFE7FDF710FC5B
:10301000FFE700201290139040F25400C2F200002B
:1030200012A9FEF759FE18B1FFE7FDF701FCFFE713
:1030300060200B904F200C9000220D920E920F9268
:103040001092119240F25400C2F200000BA9FFF757
:1030500049FB18B1FFE7FDF7EBFBFFE7002003900A
:1030600004900590069007904FF4005108910A9043
:1030700040F25400C2F2000003A9FEF7D3FD18B1DC
:10308000FFE7FDF7D5FBFFE740F25400C2F2000076
:10309000FFF78CFA18B080BD80B588B0002101918F
:1030A00007910691059104910391029140F2E40089
:1030B000C2F200004FF080420260416081604FF038
:1030C000FF32C26001618161FEF798FE18B1FFE72F
:1030D000FDF7AEFBFFE74FF4005004900020059091
:1030E0000690079040F2E400C2F2000004A9FFF746
:1030F00089F818B1FFE7FDF79BFBFFE7002002907E
:10310000039040F2E400C2F2000002A9FEF7E4FDE1
:1031100018B1FFE7FDF78CFBFFE708B080BD0000AA
:1031200080B58EB0002100910D910C910B910A9108
:1031300009910891079106910591049103910291DB
:10314000019140F22C10C2F2000040F20042C4F2A1
:103150000002026041608160A522C260016180219D
:103160008161FEF74BFE18B1FFE7FDF761FBFFE75A
:103170004FF480500A9040F22C10C2F200000AA9CD
:10318000FFF740F818B1FFE7FDF752FBFFE740F209
:103190002C10C2F20000FFF747FB18B1FFE7FDF764
:1031A00047FBFFE700200890099040F22C10C2F284
:1031B000000008A9FEF790FD18B1FFE7FDF738FB06
:1031C000FFE76020019053200290002203920592B5
:1031D00040F22C10C2F2000001A9FFF783FA18B1E7
:1031E000FFE7FDF725FBFFE740F22C10C2F20000DD
:1031F00001A90422FFF776FA18B1FFE7FDF718FBE3
:10320000FFE740F22C10C2F20000FFF7CFF90EB03A
:1032100080BD000080B58EB0002100910D910C9111
:103220000B910A91099108910791069105910491DA
:1032300003910291019140F27410C2F2000040F635
:103240000002C4F200020260416081607F22C2601D
:10325000016180218161FEF7D1FD18B1FFE7FDF723
:10326000E7FAFFE74FF480500A9040F27410C2F280
:1032700000000AA9FEF7C6FF18B1FFE7FDF7D8FA6C
:10328000FFE740F27410C2F20000FFF7CDFA18B168
:10329000FFE7FDF7CDFAFFE700200890099040F224
:1032A0007410C2F2000008A9FEF716FD18B1FFE77E
:1032B000FDF7BEFAFFE76020019042200290002255
:1032C0000392059240F27410C2F2000001A9FFF7C8
:1032D00009FA18B1FFE7FDF7ABFAFFE740F2741007
:1032E000C2F20000FFF762F90EB080BD80B588B071
:1032F000002101910791069105910491039102919A
:1033000040F2BC10C2F2000040F60042C4F20002DB
:10331000026040F21F324260816040F28F12C26050
:1033200001618161FEF76AFD18B1FFE7FDF780FAE0
:10333000FFE74FF48050049040F2BC10C2F200004E
:1033400004A9FEF75FFF18B1FFE7FDF771FAFFE789
:1033500000200290039040F2BC10C2F2000002A9CB
:10336000FEF7BAFC18B1FFE7FDF762FAFFE708B015
:1033700080BD000080B582B040F20420C2F200009F
:10338000019041F20001C4F2010101604FF4E1310A
:10339000416000218160C16001610C224261816154
:1033A000C161FFF793FB18B1FFE7FDF741FAFFE7B3
:1033B00002B080BDFFE7FEE7FFE7FEE788B00790B9
:1033C00006910592079800F0070004900498C0F158
:1033D0000700052803D3FFE70420019004E00498C8
:1033E000C0F107000190FFE70198039004980430B2
:1033F000062803D8FFE70020009003E00498033874
:103400000090FFE70098029006980399012202FAC3
:1034100001F101390840029B984005999A40013A10
:103420001140084308B07047000000000000000091
:10343000EFF30980BFF36F8F154B1A681EF0100F62
:1034400008BF20ED108A20E9F04F10602DE9090037
:103450004FF0500080F31188BFF34F8FBFF36F8F91
:1034600002F046FF4FF0000080F31188BDE809002C
:1034700019680868B0E8F04F1EF0100F08BFB0ECF4
:10348000108A80F30988BFF36F8F704700BF00BFB9
:1034900050030020000000000000000000000000B9
:1034A000074B19680868B0E8F04F80F30988BFF34C
:1034B0006F8F4FF0000080F31188704700BF00BF8E
:1034C0005003002080B56FF00400002101F052F895
:1034D00080BD000080B582B00190FFE7012001F0BF
:1034E00015F9FBE780B584B00390FFE701F02AF9F6
:1034F0000290029840F25021C2F200010968401A7D
:1035000041F2893188420AD3FFE76946002008600A
:103510001523184619461A4600F0F6FD0FE040F252
:103520005423C2F20003187859789A78DB78EE4673
:103530004FF0000CCEF800C000F0E6FDFFE7D5E745
:1035400080B582B00190FFE740F2CB70C2F200007C
:103550000078A8B1FFE701F0F5F840F25021C2F27F
:103560000001086040F2C870C2F20000007801F06B
:10357000FBF940F2CB71C2F2000100200870FFE7B6
:10358000012001F0C3F8DFE780B54EF21000CEF263
:103590000000006803F0BEFC012803D0FFE702F042
:1035A000D7FFFFE780BD000080B594B008A83021A8
:1035B000FCF750FE002007900690059004900390C1
:1035C000FFE70020029043F64000C4F202000168C9
:1035D00041F080510160006800F080500290029834
:1035E000FFE7FFE70020019047F20000C4F200006F
:1035F000016841F480410160006800F4804001905E
:103600000198FFE7012008904FF4803009900221D3
:103610000E914FF480000F9004201090A022119280
:103620001291139008A8FDF795FF18B1FFE7FDF779
:10363000FFF8FFE70F200390022004900020059080
:103640004FF4A05006904FF48050079003A8052136
:10365000FDF786FD18B1FFE7FDF7EAF8FFE714B0C4
:1036600080BD00004EF68851CEF20001086840F49B
:10367000700008607047000080B540F25400C2F24C
:103680000000FEF785FE40F29C00C2F20000FEF74B
:103690007FFE80BD80B52420C4F20000016840F2A6
:1036A0003C00C2F200000160006840F24C21C2F20E
:1036B00000010968401A022833D8FFE740F23C00B5
:1036C000C2F20000006804282BD3FFE740F23C0060
:1036D000C2F200000068C82807D3FFE740F2C871B3
:1036E000C2F20001012008700FE040F23C00C2F27B
:1036F00000000068C72807D8FFE740F2C871C2F28F
:10370000000100200870FFE7FFE740F2CB71C2F232
:103710000001012008702421C4F20001002008608B
:10372000FFE740F2C870C2F20000017847F6D1709E
:10373000C0F6000003F07AFF40F23C00C2F2000045
:10374000006840F24C21C2F20001086040F2BC1057
:10375000C2F20000FEF71CFE80BD000080B540F202
:103760004000C2F20000FDF7CFF880BD83B00290A8
:10377000019102980068009002980021C4F20101B2
:10378000884225D0FFE70298B0F1804F20D0FFE7B4
:10379000029840F20041C4F20001884218D0FFE7CD
:1037A000029840F60001C4F20001884210D0FFE701
:1037B000029840F60041C4F20001884208D0FFE7B9
:1037C000029840F20041C4F2010188420AD1FFE7A9
:1037D000009820F07000009001984168009808431C
:1037E0000090FFE702980021C4F20101884255D001
:1037F000FFE70298B0F1804F50D0FFE7029840F207
:103800000041C4F20001884248D0FFE7029840F628
:103810000001C4F20001884240D0FFE7029840F660
:103820000041C4F20001884238D0FFE7029840F21C
:103830000041C4F20101884230D0FFE7029844F20F
:103840000001C4F20101884228D0FFE7029844F247
:103850000041C4F20101884220D0FFE7029844F6FB
:103860000001C4F20101884218D0FFE7029841F636
:103870000001C4F20001884210D0FFE7029841F62F
:103880000041C4F20001884208D0FFE7029842F2EA
:103890000001C4F2000188420AD1FFE7009820F439
:1038A000407000900198C168009808430090FFE7BD
:1038B000009820F080000199496908430090019820
:1038C00080680299C862019800680299886202982B
:1038D0000021C4F20101884208D0FFE7029840F2BB
:1038E0000041C4F20101884205D1FFE70198006957
:1038F00002990863FFE70299086840F00400086035
:1039000002990120486100980299086003B070474D
:1039100084B0039002910192029800F01F010120EF
:1039200088400090009A0399086A904308620198C1
:10393000029901F01F0100FA01F20399086A10438D
:10394000086204B07047000085B0049003910292B1
:103950000193049880680090009820F47F400090C4
:1039600003980299019A41EA022101430098084311
:10397000009000980499886005B0704783B0029069
:103980000191029880680090009820F070000090EB
:1039900001980099084340F00700009000980299B0
:1039A000886003B07047000085B0049003910498CC
:1039B000006A01900499086A20F0010008620498E6
:1039C00040680090049880690290029820F070008E
:1039D0000290029820F00300029003980168029878
:1039E00008430290019820F002000190039881683A
:1039F00001980843019004980021C4F20101884213
:103A000008D0FFE7049840F20041C4F20101884267
:103A10000ED1FFE7019820F0080001900398C168DB
:103A2000019808430190019820F004000190FFE7FD
:103A300004980021C4F20101884208D0FFE70498ED
:103A400040F20041C4F20101884213D1FFE700981F
:103A500020F480700090009820F40070009003988B
:103A600041690098084300900398816900980843D1
:103A70000090FFE7009804994860029804998861D3
:103A8000039840680499486301980499086205B056
:103A90007047000085B0049003910498006A01907B
:103AA0000499086A20F010000862049840680090A9
:103AB000049880690290029820F4E04002900298F5
:103AC00020F44070029003980168029840EA0120B7
:103AD0000290019820F020000190039881680198DD
:103AE00040EA0110019004980021C4F201018842CB
:103AF00008D0FFE7049840F20041C4F20101884277
:103B00000FD1FFE7019820F0800001900398C16871
:103B1000019840EA01100190019820F040000190C6
:103B2000FFE704980021C4F20101884208D0FFE7B2
:103B3000049840F20041C4F20101884215D1FFE728
:103B4000009820F480600090009820F400600090BD
:103B500003984169009840EA8100009003988169C8
:103B6000009840EA81000090FFE7009804994860BF
:103B700002980499886103984068049988630198C1
:103B80000499086205B0704785B0049003910498C9
:103B9000006A01900499086A20F480700862049811
:103BA000406800900498C0690290029820F070006C
:103BB0000290029820F00300029003980168029896
:103BC00008430290019820F40070019003988168E6
:103BD000019840EA0120019004980021C4F20101FB
:103BE000884208D0FFE7049840F20041C4F2010186
:103BF00088420FD1FFE7019820F4006001900398FC
:103C0000C168019840EA01200190019820F4806089
:103C10000190FFE704980021C4F20101884208D016
:103C2000FFE7049840F20041C4F20101884215D137
:103C3000FFE7009820F480500090009820F4005096
:103C4000009003984169009840EA011000900398A1
:103C50008169009840EA01100090FFE700980499FC
:103C6000486002980499C861039840680499C86341
:103C700001980499086205B07047000085B004906F
:103C800003910498006A01900499086A20F4805016
:103C900008620498406800900498C06902900298F5
:103CA00020F4E0400290029820F4407002900398C3
:103CB0000168029840EA01200290019820F4005027
:103CC000019003988168019840EA013001900498BE
:103CD0000021C4F20101884208D0FFE7049840F2B5
:103CE0000041C4F2010188420BD1FFE7009820F4A3
:103CF0008040009003984169009840EA811000904C
:103D0000FFE700980499486002980499C8610398F5
:103D100040680499086401980499086205B07047E6
:103D200085B00490039102920498006A009004996F
:103D3000086A20F0010008620498806901900198E7
:103D400020F0F00001900299019840EA01100190E2
:103D5000009820F00A000090039900980843009012
:103D600001980499886100980499086205B0704729
:103D700085B00490039102920498006A009004991F
:103D8000086A20F010000862049880690190019888
:103D900020F4704001900299019840EA01300190AE
:103DA000009820F0A00000900399009840EA0110CC
:103DB000009001980499886100980499086205B000
:103DC0007047000080B588B00020079006900590ED
:103DD00004900390FFE70020029043F63000C4F205
:103DE0000200016841F010010160006800F010005D
:103DF00002900298FFE76C2003900120019004904C
:103E000005900220069041F20000C4F202000090EA
:103E100003A9FCF7A3FE0098019A0421FDF792F88C
:103E20000098019A0821FDF78DF80098019A202149
:103E3000FDF788F80098019A4021FDF783F808B053
:103E400080BD000080B586B004A9029101460298A9
:103E50008DF8171080ED000A0020ADF80E0040F23A
:103E60002801C2F20001087048709DF8170028B1BF
:103E7000FFE79DF8170002280DD1FFE740F2280167
:103E8000C2F20001487840F080004870487800F0A5
:103E9000EF00487017E09DF81700012805D0FFE7F4
:103EA0009DF8170003280DD1FFE740F22801C2F268
:103EB0000001487800F07F004870487800F0EF007B
:103EC0004870FFE7FFE7029840F22802C2F20002C2
:103ED000517841F040015170517801F0DF0151708B
:103EE00090ED000AB1EE041AB4EE410AF1EE10FAB8
:103EF00012DCFFE7029890ED000A9FED3C1A20EEDD
:103F0000010AB1EE041A80EE010ABCEEC00A10EEFE
:103F1000100AADF80E00FFE79DF80F2040F22801CF
:103F2000C2F20001487802F00F0200F0F0001044E5
:103F30004870BDF80E0008709DF8170028B1FFE723
:103F40009DF81700012809D1FFE741F20000C4F2F3
:103F5000020004210022FCF7F5FF13E09DF8170092
:103F6000022805D0FFE79DF81700032809D1FFE7D5
:103F700041F20000C4F2020008210022FCF7E2FF37
:103F8000FFE7FFE740F22800C2F20000019040780E
:103F9000FCF7E2FB01980078FCF7DEFB9DF81700C8
:103FA00028B1FFE79DF81700012809D1FFE741F28A
:103FB0000000C4F2020004210122FCF7C3FF13E059
:103FC0009DF81700022805D0FFE79DF81700032889
:103FD00009D1FFE741F20000C4F2020008210122EA
:103FE000FCF7B0FFFFE7FFE706B080BD00F07F45BC
:103FF00080B582B08DF8070000208DF80600FFE73D
:104000009DF8060007283ADCFFE741F20040C4F2C1
:10401000020001210022FCF795FF9DF80700C00770
:1040200048B1FFE741F20040C4F202000221012240
:10403000FCF788FF08E041F20040C4F202000221D0
:104040000022FCF77FFFFFE70320009000F0D2FA88
:104050009DF8070040088DF8070041F20040C4F2C7
:10406000020001221146FCF76DFF009800F0C2FA31
:10407000FFE79DF8060001308DF80600C0E702B0AA
:1040800080BD000080B584B041F20040C4F202005F
:1040900001210022FCF756FF052000F0ABFAFFE7F4
:1040A00041F20040C4F202000221FCF733FF014656
:1040B00000200129029008D1FFE79DF80F10002091
:1040C000FA29B8BF01200290FFE70298C00730B17B
:1040D000FFE79DF80F0001308DF80F00E0E741F297
:1040E0000040C4F202000090012201921146FCF748
:1040F00029FF022000F07EFA009801990022FCF7C7
:1041000021FF04B080BD000080B584B084460698CD
:104110008DF80FC08DF80E108DF80D208DF80C3035
:104120008DF80B0000F044F84020FFF761FFFFF727
:10413000A9FF00F059F800F03BF8C020FFF758FF46
:10414000FFF7A0FF9DF80F1040F20800C2F2000038
:104150000190405CFFF74CFFFFF794FF01989DF83A
:104160000E10405C9DF80B10C901C9B20843FFF75F
:104170003FFFFFF787FF01989DF80D10405CFFF7A8
:1041800037FFFFF77FFF01989DF80C10405CFFF7A9
:104190002FFFFFF777FF00F027F800F009F88F20D6
:1041A000FFF726FFFFF76EFF00F01EF804B080BD9A
:1041B00080B584B041F20040C4F2020002900122B6
:1041C00001921146FCF7BEFE019A0298022103916A
:1041D000FCF7B8FE039800F00DFA0298039900224C
:1041E000FCF7B0FE04B080BD80B584B041F2004061
:1041F000C4F2020001900121029100220092FCF71A
:10420000A1FE0220039000F0F5F9009A01980399AD
:10421000FCF798FE039800F0EDF90198029A114618
:10422000FCF790FE039800F0E5F90198029A0399D3
:10423000FCF788FE039800F0DDF904B080BD0000B3
:1042400084B00390FFE7FFE70398006850E8030F8E
:1042500020F490700290FFE702990398026842E808
:1042600003100028F0D1FFE7FFE7FFE7FFE703981F
:10427000006850E8050F20F001000190FFE7019968
:104280000398026842E805100028F0D1FFE7FFE735
:104290000398006B012814D1FFE7FFE7FFE70398BD
:1042A000006850E8030F20F010000090FFE700992D
:1042B0000398026842E803100028F0D1FFE7FFE707
:1042C000FFE70399202081F842000399002008634A
:1042D00004B0704780B586B0059005980068006905
:1042E00020F44050059A1168D2681043086105997E
:1042F00088680B694A69C9691843104308430490E8
:1043000005980068C06849F20C6188430499084325
:1043100005990968C86005980068406920F44070F4
:10432000059A11689269104348610598006841F246
:104330000001C4F20101884209D0FFE70598006836
:1043400041F20041C4F20101884204D1FFE7FDF7C8
:104350007BF8039003E0FDF765F80390FFE705980D
:10436000C069B0F5004F29D1FFE703981921A0FBE0
:104370000101059A1368029353685A00DB0FFBF79B
:104380001FFF0299864648F21F53C5F2EB13AEFB9E
:104390000320420910014FF0640C02FB1CEC322296
:1043A00002EBCC02A2FB0332F82303EA521300EB28
:1043B0004300C2F342121044886026E0039819219A
:1043C000A0FB0101059A1368019353689A009B0FA3
:1043D000FBF7F6FE0199844648F21F52C5F2EB1234
:1043E000ACFB02304309642003FB10CC322000EB0D
:1043F0000C10A0FB0202F02000EA521000EB0310A8
:10440000C2F3431210448860FFE706B080BD00008D
:1044100080B586B0DDF820C0049003918DF80B20A4
:104420000193FFE704980068006803990840401A68
:10443000B0FA80F040099DF80B1088424DD1FFE79B
:1044400008980130002847D0FFE7FCF793FD019959
:10445000401A0899884203D8FFE7089820B9FFE777
:1044600003208DF817003CE004980068C0684007FE
:10447000002830D5FFE7039880282CD0FFE7039869
:10448000402828D0FFE704980068006800F0080181
:104490000120B0EBD10F1DD1FFE7FFE70020009016
:1044A00004980068006800900498006840680090D4
:1044B0000098FFE70498FFF7C3FE049908204864BA
:1044C000FFE70499002081F84000FFE701208DF804
:1044D000170006E0FFE7FFE7A4E700208DF81700CC
:1044E000FFE79DF8170006B080BD0000FFE7FEE77C
:1044F00081B08DF803009DF9030000280ED4FFE77A
:104500009DF9031001F01F02012090404A094EF26C
:104510000011CEF2000141F82200FFE701B0704720
:104520004EF60C50CEF200000068C0F30220704737
:1045300082B08DF8070000919DF9070000280AD489
:10454000FFE7009800019DF907104EF20042CEF2FD
:10455000000288540BE0009800019DF8071001F05C
:104560000F014EF61452CEF200028854FFE702B05B
:104570007047000082B08DF8070000919DF9070098
:1045800000280AD4FFE7009800019DF907104EF2B9
:104590000042CEF2000288540BE0009800019DF822
:1045A000071001F00F014EF61452CEF200028854AB
:1045B000FFE702B07047000083B00290029800F05D
:1045C000070000904EF60C51CEF2000108680190F1
:1045D00001984FF6FF02104001900198009A40EABE
:1045E00002200022C0F2FA521043019001980860A4
:1045F00003B0704783B00290FFE7029801281DDBEB
:10460000FFE700200190FFE70198A62811DCFFE7F3
:1046100000200090FFE70098092805DCFFE7FFE78E
:10462000009801300090F6E7FFE701980130019013
:10463000EAE7FFE7029801380290DEE703B070472F
:1046400080B584B00390029103988DF8070040F282
:104650000420C2F200000DF1070101220223FEF73F
:10466000CDFA039804B080BD80B582B000200090E0
:104670000190FCF793FCFEF797FFFEF7B5FBFEF702
:1046800079FEFEF733FEFEF707FDFEF751FBFEF75E
:1046900075FCFEF745FDFEF7BDFD40F2BC10C2F211
:1046A0000000FDF733FD40F2E400C2F20000FDF728
:1046B000B7FC009940F24000C2F20000FCF7EEF9AE
:1046C000009940F25400C2F20000FEF703F900998D
:1046D00040F22C10C2F20000FEF7FCF8009940F204
:1046E0007410C2F20000FEF7F5F8FFF76BFB0098BC
:1046F0009FED050AFFF7A6FB00F03AF8FEF73EFB38
:1047000000F05AF8FFE7FEE7CDCC8C3F80B584B0CF
:104710000290EFF305800390039820B1FFE76FF05C
:10472000050001900AE000200190029828B1FFE7FF
:10473000BDF8080001F0BEFCFFE7FFE7019804B0F8
:1047400080BD000080B582B0EFF305800190019834
:1047500028B1FFE702F00CFCADF8020004E002F023
:10476000F5FBADF80200FFE7BDF8020002B080BD26
:1047700082B0EFF305800190019820B1FFE76FF060
:104780000500009014E040F22C00C2F20000006826
:1047900048B9FFE740F22C01C2F200010120086095
:1047A0000020009003E04FF0FF300090FFE7FFE7AC
:1047B000009802B07047000080B582B0EFF305802A
:1047C0000190019820B1FFE76FF00500009019E01B
:1047D00040F22C00C2F20000006801280DD1FFE772
:1047E000FEF770FE40F22C01C2F2000102200860C8
:1047F00001F006FD0020009003E04FF0FF30009034
:10480000FFE7FFE7009802B080BD0000B0B58EB0B2
:104810000B900A91099200200690EFF305800D900D
:104820000D98002840F09980FFE70B98002800F0D1
:104830009480FFE7802007901820059000200890C2
:104840004FF0FF300490099800284DD0FFE70998F9
:10485000006820B1FFE7099800680890FFE7099811
:10486000806920B1FFE7099880690590FFE7059806
:1048700048B1FFE70598382805D8FFE7099800797F
:10488000C00718B1FFE700200C9069E00998406963
:1048900028B1FFE70998406980080790FFE7099869
:1048A000806880B1FFE70998C0685C280BD3FFE7F8
:1048B0000998006938B1FFE70998406918B1FFE726
:1048C000012004900FE00998806858B9FFE7099823
:1048D000C06838B9FFE70998006918B9FFE70020F8
:1048E0000490FFE7FFE702E000200490FFE7049850
:1048F000012817D1FFE70B980899079A0A9BDDF862
:1049000014C0DDF824E0DEF80850DEF81040EE4672
:10491000CEF80850CEF80440CEF800C002F092FA6B
:10492000069019E00498B0B9FFE70B980899BDF814
:104930001C200A9BDDF814C0EE4606ACCEF80440FD
:10494000CEF800C002F02EFA012803D0FFE70020C5
:104950000690FFE7FFE7FFE7FFE706980C90FFE709
:104960000C980EB0B0BD000083B08DF80B0040F283
:10497000C970C2F2000000780146009120B1FFE743
:104980000098012822D086E040F2CA70C2F20000EE
:1049900002789DF80B1041EA4201017000783C2832
:1049A00013D1FFE740F2C971C2F200010120087083
:1049B00040F23401C2F200011020087040F23601CA
:1049C000C2F2000100200880FFE764E040F23601F7
:1049D000C2F200010A889DF80B0040EA42000880FC
:1049E00040F23400C2F20000017801390170007811
:1049F00000284FD1FFE740F23600C2F200000188E4
:104A0000090B8DF80710417801F00F018DF808109F
:104A10000188C1F303118DF80910008800F00F0020
:104A20008DF80A0001208DF8060000208DF80500A1
:104A3000FFE79DF80500032820DCFFE79DF805202F
:104A40000DF10700815C47F65C70C0F60000415C28
:104A500040F25420C2F2000081549DF80510405CE1
:104A6000FF2804D1FFE700208DF80600FFE7FFE7ED
:104A70009DF8050001308DF80500DAE740F2C971B4
:104A8000C2F200010020087040F2CA71C2F20001B7
:104A90000870FFE7FFE703B07047000080B584B0FF
:104AA000ADF80E00029144F6A030C2F2000000887A
:104AB000ADF8040040F25030C2F20000006804304B
:104AC00001F0AAF808B9FFE700E0FFE7BDF80E0023
:104AD0004FF6FF71884210D1FFE7029868B1FFE7F7
:104AE00040F25030C2F200000068011D44F67830F8
:104AF000C2F2000001F03AF945E0BDF80400BDF84B
:104B00000E100844ADF80600BDF8060040F2503122
:104B1000C2F2000109688880BDF80600BDF80410E3
:104B200088420EDAFFE740F26030C2F2000000680F
:104B300040F25031C2F200010968043101F0DCF8A2
:104B400020E040F25830C2F20000006840F25031DC
:104B5000C2F200010968043101F0CEF8BDF8060088
:104B600044F60431C2F200010988884208DAFFE7FE
:104B7000BDF8060044F60431C2F20001088000E0EE
:104B8000FFE7FFE7FFE704B080BD000080B582B01B
:104B9000019001F013F944F2D831C2F20001086823
:104BA0000130086040F25030C2F20000006898B94D
:104BB000FFE7019840F25031C2F20001086044F270
:104BC000D830C2F200000068012803D1FFE700F0EE
:104BD000FBFA00E0FFE71CE044F66C30C2F2000094
:104BE0000068A0B9FFE740F25030C2F20000006850
:104BF000C06A0199C96A884207D8FFE7019840F264
:104C00005031C2F20001086000E0FFE700E0FFE77A
:104C1000FFE744F2E430C2F20000016801310160B4
:104C20000068019948640198C06A44F2E831C2F210
:104C300000010968884208D9FFE70198C06A44F278
:104C4000E831C2F200010860FFE70199C86A00EB91
:104C5000800240F26830C2F2000000EB82000431B2
:104C600001F084F801F0D6F844F66C30C2F200008E
:104C70000068C8B1FFE740F25030C2F2000000689F
:104C8000C06A0199C96A88420CD2FFE74EF6045106
:104C9000CEF200014FF080500860BFF34F8FBFF39A
:104CA0006F8F00E0FFE700E0FFE702B080BD00008B
:104CB00080B584B001F082F844F6A430C2F200005E
:104CC0000068002840D1FFE744F6A420C2F20000AB
:104CD000029000F0F1FF44F6B820C2F20000039009
:104CE00000F0EAFF0299039840F25432C2F2000247
:104CF000116040F26431C2F2000108606946002090
:104D0000086040F25C22C2F2000240F2FC23C2F2D0
:104D100000030A20102101F03BFC014644F6A430B8
:104D2000C2F200000160006860B1FFE744F6A43001
:104D3000C2F20000006847F6DB71C0F6000101F026
:104D40005BF900E0FFE700E0FFE701F063F804B083
:104D500080BD000080B582B0FFE744F2DC30C2F2D3
:104D60000000006808B3FFE701F028F844F68C3033
:104D7000C2F20000C068C06801900198043000F0E1
:104D80004BFF44F2D831C2F20001086801380860D4
:104D900044F2DC31C2F2000108680138086001F019
:104DA00039F8019800F08CF8D7E702B080BD000018
:104DB00080B582B0019000910198006CB8B1FFE716
:104DC0000199C8680A6C1044C86001988168C0687D
:104DD000884204D3FFE701990868C86000E0FFE754
:104DE0000098019AD168126CFBF71BFAFFE702B03A
:104DF00080BD000080B586B005900491039200202C
:104E000002900598806B01900598006C78B9FFE7D7
:104E10000598006848B9FFE70598806802F0B4F982
:104E2000029005990020886000E0FFE741E00398C8
:104E3000B8B9FFE7059A04995068126CFBF7F1F9CD
:104E4000059948680A6C1044486005994868896863
:104E5000884204D3FFE705990868486000E0FFE74F
:104E600026E0059A0499D068126CFBF7DAF90599E7
:104E7000C8680A6C801AC86005980168C0688842D2
:104E800006D2FFE7059988680A6C801AC86000E0BE
:104E9000FFE70398022809D1FFE7019820B1FFE757
:104EA00001980138019000E0FFE700E0FFE7FFE72D
:104EB000FFE70198013005998863029806B080BD2C
:104EC00080B582B00090009890F8590040B9FFE793
:104ED0000098006B00F0C4FF009800F0C1FF1CE0D8
:104EE000009890F85900012804D1FFE7009800F0DD
:104EF000B7FF11E0009890F8590002280BD0FFE7A7
:104F00004FF0500080F31188BFF36F8FBFF34F8FC6
:104F10000190FFE7FEE7FFE7FFE702B080BD00007A
:104F200082B0019040F25430C2F200000068006884
:104F3000B0FA80F04009019908600198006850B902
:104F4000FFE740F25430C2F200000068C0680088F9
:104F5000ADF8020003E00020ADF80200FFE7BDF865
:104F6000020002B07047000084B04FF4705000900F
:104F700040F2CC70C2F2000001909DF8040040079E
:104F800088B1FFE7019807300190019820F00700F1
:104F90000190019A40F2CC71C2F200010098891A86
:104FA00008440090FFE701980290029944F670309F
:104FB000C2F200000160002141600298009A104492
:104FC0000190019808380190019820F007000190A5
:104FD000019A40F25C30C2F2000002600268516047
:104FE00002681160029903910199039A891A51602C
:104FF0000068039908600398406844F60031C2F2E3
:10500000000108600398406844F6F821C2F20001EC
:10501000086044F6CC21C2F200014FF00040086065
:1050200004B0704780B582B00190FFE7FFF792FEB1
:1050300040F26830C2F20000006802280CD3FFE79B
:105040004EF60451CEF200014FF080500860BFF3DD
:105050004F8FBFF36F8F00E0FFE7E7E780B584B0C5
:10506000DDF818C00390029101928DF80330029888
:1050700018B9FFE70698006003E0019806990860F8
:10508000FFE703980699C863029806990864069892
:10509000012101F005FB9DF80300069981F84C0001
:1050A00004B080BD80B588B0DDF834C0DDF830C014
:1050B000DDF82CC0DDF828C006900591049203931A
:1050C0000C98006B04998900A522FBF7BCF80C989A
:1050D000006B049900EB810004380290029820F0E4
:1050E000070002909DF80800400758B1FFE74FF015
:1050F000500080F31188BFF36F8FBFF34F8F07907D
:10510000FFE7FEE70598F8B1FFE700200190FFE711
:1051100001980F2813D8FFE70598019A805C0C9935
:10512000114481F8340005980199405C08B9FFE703
:1051300005E0FFE7FFE7019801300190E8E70C99EF
:10514000002081F8430004E00C99002081F834002D
:10515000FFE70A98382803D3FFE737200A9000E0DA
:10516000FFE70A980C99C8620A980C99C8640C99D0
:105170000020009008650C98043000F0B5FD0C98F4
:10518000183000F0B1FD00980C9909610A99C1F13D
:1051900038010C9A11830C9949620C9948650C9955
:1051A00081F8580002980699039A00F005FD0C99C1
:1051B00008600B9820B1FFE70C980B99086000E09D
:1051C000FFE708B080BD000080B584B000200390E8
:1051D000FFE70398372810D8FFE7039800EB80011A
:1051E00040F26830C2F2000000EB810000F064FD84
:1051F000FFE7039801300390EBE744F6D020C2F2BA
:105200000000019000F058FD44F6E420C2F20000D6
:10521000029000F051FD44F61830C2F2000000F098
:105220004BFD44F68C30C2F2000000F045FD44F620
:105230007830C2F2000000F03FFD0199029840F280
:105240005832C2F20002116040F26031C2F2000135
:10525000086004B080BD000083B0029044F6703056
:10526000C2F200000190FFE70198006802998842AD
:1052700005D2FFE7FFE7019800680190F4E7019885
:10528000009000980199496808440299884209D120
:10529000FFE7029842680199486810444860019805
:1052A000029000E0FFE70298009000980299496898
:1052B000084401990968884220D1FFE701980068F5
:1052C00040F25C31C2F20001096888420DD0FFE76C
:1052D0000198006842680299486810444860019843
:1052E000006800680299086007E040F25C30C2F292
:1052F0000000006802990860FFE704E00198006878
:1053000002990860FFE701980299884204D0FFE7FC
:1053100002980199086000E0FFE703B070470000C1
:1053200080B584B00390ADF80A10ADF80820ADF850
:10533000063000200090BDF80A0003998880039889
:105340000061BDF80A00BDF80810884219DCFFE7CB
:10535000BDF80800BDF80610401A80B20399098B09
:10536000884203DBFFE70120009009E040F264304F
:10537000C2F2000000680399043100F0BDFCFFE7B1
:105380001BE0BDF80800BDF8061088420ADAFFE706
:10539000BDF80A00BDF80610884203DBFFE70120D4
:1053A000009009E040F25430C2F200000068039916
:1053B000043100F0A1FCFFE7FFE7009804B080BDD6
:1053C00080B582B0019000F0F9FC0198806B18B9AB
:1053D000FFE70120009002E000200090FFE700F0CE
:1053E00019FD009802B080BD80B582B0019000F038
:1053F000E5FC0198806B0199C96B884203D1FFE7F6
:105400000120009002E000200090FFE700F002FD84
:10541000009802B080BD000008480068006880F372
:1054200008884FF0000080F3148862B661B6BFF3BD
:105430004F8FBFF36F8F00DF00BF000008ED00E06B
:1054400080B586B0ADF81200ADF8101040F25430BF
:10545000C2F200000068C068C06802900298043080
:1054600000F0DAFB029890F828004007002827D5C2
:10547000FFE70298BDF81230018B1944BDF81020E7
:1054800089B2FFF74DFFC8B1FFE70298BDF81220BF
:10549000694600230B60194602F068F803900398F0
:1054A00058B9FFE74FF0500080F31188BFF36F8FBA
:1054B000BFF34F8F0590FFE7FEE700E0FFE707E04F
:1054C000029991F8280000F0FE0081F82800FFE71B
:1054D0000298016A884706B080BD000080B58EB092
:1054E000FFE744F6A430C2F20000006807A90022DA
:1054F00001F0F6FA002800F0C280FFE70798B0F14B
:10550000FF3F17DCFFE707A804300290029858B964
:10551000FFE74FF0500080F31188BFF36F8FBFF3A8
:105520004F8F0D90FFE7FEE702990A684868896887
:10553000904700E0FFE70798002800F19F80FFE711
:10554000099806900698406928B1FFE7069804304C
:1055500000F062FB00E0FFE705A800F00FF9ADF8EE
:105560000E0007980190092800F286800199DFE873
:1055700001F0050505424A6F0505424A069991F872
:10558000280040F0010081F828000698BDF820307E
:10559000018B1944BDF80E2089B2FFF7C1FE40B35C
:1055A000FFE70698016A8847069890F828004007A8
:1055B00000281CD5FFE70698BDF82010028B114487
:1055C0006A46002313608AB2194601F0CFFF0490A7
:1055D000049858B9FFE74FF0500080F31188BFF3EB
:1055E0006F8FBFF34F8F0C90FFE7FEE700E0FFE700
:1055F00000E0FFE741E0069991F8280000F0FE0086
:1056000081F8280039E0069991F8280040F001005F
:1056100081F82800BDF82000069908830698008BC1
:1056200000280BDCFFE74FF0500080F31188BFF338
:105630006F8FBFF34F8F0B90FFE7FEE70698BDF823
:105640000E30018B194489B21A46FFF769FE14E047
:10565000069890F828008007002804D4FFE70698F1
:1056600000F0FEFB07E0069991F8280000F0FE002C
:1056700081F82800FFE700E0FFE7FFE731E70EB021
:1056800080BD000080B584B0ADF80E00029100F03E
:1056900027FE684600F072F8ADF806000098002872
:1056A00042D1FFE7029880B9FFE7BDF80E00BDF8D0
:1056B0000610884209DCFFE701F044FEBDF80E0049
:1056C000BDF80610FFF7BCFE2DE0029858B1FFE7C9
:1056D00040F26430C2F2000000680068B0FA80F066
:1056E00040090290FFE744F6A430C2F200000068CF
:1056F000BDF80E10BDF80620891A029A89B200F092
:10570000A5FC01F01FFE60B9FFE74EF60451CEF292
:1057100000014FF080500860BFF34F8FBFF36F8FD1
:1057200000E0FFE7FFE702E001F00CFEFFE704B056
:1057300080BD000081B040F25830C2F20000006825
:10574000006840B9FFE744F60431C2F200014FF6A9
:10575000FF7008800FE040F25830C2F2000000688D
:10576000C068C06800900098808844F60431C2F296
:1057700000010880FFE701B07047000080B582B0EB
:10578000019001F0E3FBADF80200BDF8020040F229
:105790004C31C2F200010988884206DAFFE700F0C6
:1057A00013F801990120086003E0019900200860C6
:1057B000FFE7BDF8020040F24C31C2F20001088060
:1057C000BDF8020002B080BD80B586B0FFE740F2B0
:1057D0005430C2F2000000680068002855D0FFE78E
:1057E00040F25430C2F200000168C9680988ADF87F
:1057F00012100068C068C06802900298043000F07F
:105800000BFA0298016A8847029890F8280040072E
:10581000002838D5FFE7BDF812000299098B08442B
:10582000ADF81000BDF81000BDF81210884210DD70
:10583000FFE7BDF81000029988800298006140F2ED
:105840005430C2F2000000680299043100F054FAAA
:1058500018E00298BDF81220694600230B60194633
:1058600001F084FE0190019858B9FFE74FF0500015
:1058700080F31188BFF36F8FBFF34F8F0590FFE761
:10588000FEE7FFE700E0FFE7A1E740F25432C2F293
:1058900000021068039040F26431C2F2000108680F
:1058A00010600398086006B080BD000083B000203F
:1058B000009040F22400C2F200000068013058B1AC
:1058C000FFE74FF0500080F31188BFF36F8FBFF3F5
:1058D0004F8F0290FFE7FEE74FF0500080F31188F2
:1058E000BFF36F8FBFF34F8F0190FFE7009808B9A8
:1058F000FFE7FBE703B0704780B584B00390FFE794
:1059000001A8FFF70DFBADF80A00BDF80A000199E8
:10591000FFF7B8FEFFF7E2FDF2E7000080B582B0C6
:10592000019000F04BFA019890F845008DF80300C3
:10593000FFE79DF90300012816DBFFE70198406AA5
:1059400058B1FFE70198243001F094FC18B1FFE74B
:1059500000F0FEFB00E0FFE700E005E09DF803003B
:1059600001388DF80300E4E70199FF2081F8450034
:1059700000F050FA00F022FA019890F844008DF8F7
:105980000200FFE79DF90200012816DBFFE70198FE
:10599000006980B1FFE70198103001F06BFC18B18D
:1059A000FFE700F0D5FB00E0FFE79DF802000138BB
:1059B0008DF8020000E000E0E4E70199FF2081F8A3
:1059C000440000F027FA02B080BD000080B58AB024
:1059D00006900020029000F083FC40F25C30C2F29E
:1059E0000000006818B9FFE7FFF7BEFA00E0FFE724
:1059F000069844F6CC21C2F200010968084240F042
:105A0000C580FFE7069800B3FFE7069808300690C8
:105A10009DF818004007B0B1FFE7069820F0070096
:105A2000083006909DF81800400758B1FFE74FF086
:105A3000500080F31188BFF36F8FBFF34F8F099031
:105A4000FFE7FEE700E0FFE700E0FFE70698002839
:105A500000F09A80FFE7069844F6F821C2F20001B0
:105A60000968884200F29080FFE744F67030C2F285
:105A70000000049000680590FFE705984168069AC9
:105A800000209142019007D2FFE7059800680028A6
:105A900018BF01200190FFE70198C00730B1FFE770
:105AA00005980490059800680590E6E7059840F28F
:105AB0005C31C2F200010968884263D0FFE70498B4
:105AC00000680830029005980068049908600598FD
:105AD00040680699401A112821D3FFE705980699D6
