:020000040800F2
:10000000687000209D01000875140008A9130008FD
:1000100071140008D902000841180008000000000F
:10002000000000000000000000000000F1140008C3
:10003000DD020008000000008114000835150008EA
:10004000B7010008B7010008B7010008B7010008B0
:10005000B7010008B7010008B7010008B7010008A0
:10006000B7010008B7010008B7010008B701000890
:10007000B7010008B7010008B7010008B701000880
:10008000B7010008B7010008B7010008B701000870
:10009000B7010008B7010008B7010008B701000860
:1000A000B7010008B7010008B7010008B701000850
:1000B000B7010008B7010008B7010008B701000840
:1000C000B7010008B7010008B7010008B701000830
:1000D000B7010008B7010008B7010008B701000820
:1000E000B7010008B7010008B7010008B701000810
:1000F000B7010008B7010008B7010008B701000800
:10010000B7010008B7010008B7010008B7010008EF
:10011000B7010008B701000811160008B701000870
:10012000B7010008B7010008B7010008B7010008CF
:10013000B7010008B7010008B7010008B7010008BF
:10014000B7010008B7010008B7010008B7010008AF
:10015000B7010008B7010008B7010008B70100089F
:10016000B7010008B7010008B7010008B70100088F
:10017000B7010008B7010008B7010008000000003F
:10018000B7010008B7010008DFF80CD000F08CF8C8
:1001900000480047E5820008687000200648804754
:1001A00006480047FEE7FEE7FEE7FEE7FEE7FEE75C
:1001B000FEE7FEE7FEE7FEE7FD15000889010008FF
:1001C0002DE9F05F0546002092469B46884606468C
:1001D000814640241BE0284641464746224600F01F
:1001E00053F853465A46C01A914110D31146184647
:1001F000224600F03AF82D1A67EB01084F462246D6
:100200000120002100F031F817EB00094E41201EBB
:10021000A4F10104DFDC484631462A464346BDE8E6
:10022000F09F40EA01039B0703D009E008C9121FB1
:1002300008C0042AFAD203E011F8013B00F8013BA0
:10024000521EF9D27047D2B201E000F8012B491ECC
:10025000FBD270470022F6E710B513460A46044663
:100260001946FFF7F0FF204610BD202A04DB203A94
:1002700000FA02F1002070479140C2F1200320FAF9
:1002800003F3194390407047202A04DB203A21FAF7
:1002900002F00021704721FA02F3D040C2F120029F
:1002A00091400843194670471CB509480090094819
:1002B00001900546009C06E0E06840F0010394E8E8
:1002C000070098471034AC42F6D3FFF761FF0000F7
:1002D000B8A70008D8A70008FEE700007047000094
:1002E00072B600BFFEE70000B3F5804F03461DD194
:1002F000B0B553F822C00020CCF6F0700CEA000E26
:1003000091E83100D1F818C040EA0E0040EA04102C
:10031000C96840EA052040EA0C0040EA0141BDE816
:10032000B040002043F82210704700BF6FF07041CA
:10033000002043F8221070472DE9F04F83B00B687E
:10034000024650F8230001F1240B20F0010042F88E
:100350002300D1E902C0D1E900E301908869D1E925
:10036000049A0290C86BD1E9077600909BE83008A8
:10037000D1F8308052F82E008021CFF6F07108407D
:10038000BCF1080F08BF43F040030199194341EA4B
:10039000090141EA0A01394331432143294341EA32
:1003A0000B01029B41EA08011943009B19430843D2
:1003B00040EA0C01002042F82E1003B0BDE8F08F97
:1003C00070B5D1E900C3D1E902E44CEA031343EA72
:1003D0000E23D1E9045643EA04430024CFF6F07417
:1003E000896904EB05552B43FE36194341EA066142
:1003F00000EB82020020516070BD0000B0B50446E1
:1004000000F0E6F8054640F20400C2F20000007871
:10041000611C18BF044400BF00F0DAF8401BA04282
:10042000FAD3B0BD2DE9F04F83B000F1200200F106
:100430003E4741F60045009207F1FF77C4F20205FE
:1004400008224FEAB726A84208BF072200254FF02E
:1004500000084FF00009072E38BF4FEAB72201927B
:100460000AE000BF09F1010908F10208B9F1100F13
:1004700005F1040500F0A2800F68012202FA09FECE
:1004800017EA0E0AEED0D1F804C003220CF00307DD
:100490007E1E02FA08F4012E6FEA040B12D884685B
:1004A000CE6804EA0B0406FA08F634438460446814
:1004B00024EA0E06CCF3001404FA09F4264346603D
:1004C00004E000BF032F01D103271EE0C6688C683B
:1004D00006EA0B0604FA08F42643022FC66014D17C
:1004E0006FF00302009E02EA590756F807C005F0B4
:1004F0001C040F220B69A2402CEA0202A3401A43FB
:10050000F251D1F804C00CF00307026807FA08F3AF
:1005100002EA0B021A431CF4403F0260A2D0002200
:1005200043F644030292C4F202031A6843F60044FD
:1005300042F480421A601A68C4F2010402F4804254
:100540000292029A29F003024FF6084C2244CFF699
:10055000FF7C52F80C3005F00C070F26BE40B34369
:10056000019E06FA07F73B4342F80C30A2684B683D
:1005700042EA0A0743F60C4CDE0258BF22EA0A0799
:10058000A760C4F2010CDCF800209E0242EA0A07D0
:1005900058BF22EA0A07CCF8007062689E0342EA5C
:1005A0000A0758BF22EA0A0767602268DB0342EAAB
:1005B0000A0758BF22EA0A07276053E703B0BDE8DD
:1005C000F08F0000002A08BF090481617047000015
:1005D00044F26C30C2F200000068704740F2040040
:1005E00044F26C31C2F20000C2F2000100780A68E5
:1005F000104408607047000080B543F60040C4F224
:100600000200016841F400710160016841F48061F9
:100610000160016841F480710160032000F0C2F8BC
:100620000F2000F005F800F05DF8002080BD00000C
:1006300070B586B0002543F640010195C4F2020171
:100640000A68044642F010020A60096801A801F035
:10065000100101910199694600F066F9049E002E8F
:1006600018BF012600F080F94DF68361B040C4F256
:100670001B31A0FB01014FF0FF3000EB914140F234
:100680008C1041F20002C2F20000C4F2000240F2FB
:10069000E733C0E90021C0E902530561856100F03C
:1006A0000DFC08B106B070BD40F28C10C2F2000023
:1006B00000F034FC0028F5D1362000F035F80F2C7E
:1006C0000CD836202146002200F040F840F2080104
:1006D0000020C2F200010C6006B070BD012006B01F
:1006E00070BD000082B0002043F640010190C4F2CA
:1006F00002014A6842F480424A604A6802F4804239
:100700000192019A00900868002240F08050086031
:1007100008680F2100F08050009000986FF00100F1
:1007200002B000F013B80000002848BF704700F086
:100730001F01012202FA01F11C2202EAD0004EF24E
:100740000012CEF2000281507047000010B54EF644
:100750000C5CCEF2000CDCF80030C3F3022E8EF0FD
:100760000704042C28BF0424BEF103034FF0FF3E0E
:100770000EFA04F438BF0023A14399400EFA03F3A4
:100780009A43114300F00F0200F160430901043A5B
:1007900003F564436244002848BF02F10C0319705A
:1007A00010BD00004EF60C51CEF200010A684FF663
:1007B000FF031A4060F30A2242F0806040F0FD70AF
:1007C00008607047002804BF012070472DE9F04100
:1007D00043F60808C4F202080446D8F8F8030D46A8
:1007E00000F00700814207D988F8F853D8F8F803D9
:1007F00000F00700A84277D12068810717D541078C
:1008000005D5D8F8001041F4E051C8F800100107F0
:1008100005D5D8F8001041F46041C8F80010D8F8A8
:100820000010A26821F0F0011143C8F80010C007C1
:1008300040D1D8F8F80300F00700854207D288F8C5
:10084000F853D8F8F80300F00700A8424CD120680C
:10085000410707D5D8F80010E26821F4E0511143B0
:10086000C8F80010000708D5D8F80000216920F466
:10087000604040EAC100C8F8000000F09DF8D8F8D8
:1008800000104AF21672C1F30311C0F60002515C67
:1008900040F20C0220FA01F140F20800C2F200001E
:1008A0000068C2F200021160FFF7C2FE0020BDE83E
:1008B000F08100BF6068811E022907D258F8081C29
:1008C00089015CBF0120BDE8F08111E0012807D15A
:1008D00058F8081C89035CBF0120BDE8F08107E0DF
:1008E00058F8081C890703D40120BDE8F08100BF37
:1008F000D8F8001021F003010843C8F80000FFF702
:1009000067FE064641F28837D8F80000616800F0BB
:100910000C00B0EB810F8CD0FFF75AFE801BB84261
:10092000F2D90320BDE8F0810F22026043F60802ED
:10093000C4F20202136803F003034360136803F078
:10094000F0038360136803F4E053C360D2F800C07F
:100950004FF4E05303EADC030361D2F8F80300F03C
:10096000070008607047000040F20C0043F60801E1
:10097000C2F20000C4F20201006809684AF226725D
:10098000C1F38221C0F60002515CC84070470000EC
:1009900040F20C0043F60801C2F20000C4F202016A
:1009A000006809684AF22672C1F34231C0F60002BB
:1009B000515CC8407047000010B543F60404C4F20F
:1009C00002046168C1F3810142F20040C0F2F40008
:1009D000DFE801F002040A0210BD00BF41F200206E
:1009E000C0F27A0010BD00BF216801F03F0221680B
:1009F00023684902C3F3881106D4A1FB0001002338
:100A0000FFF7DEFB07E000BF41F20020C0F27A00F2
:100A10004843B0FBF2F021680222C1F3014102EB2E
:100A20004101B0FBF1F010BD002804BF0120704768
:100A30002DE9F04182B00446007843F60006C00775
:100A4000C4F202060CD0B06800F00C00042840F09C
:100A500081803068800303D56068002800F06881D9
:100A6000207880071BD5B06810F00C0F09D0B06853
:100A700000F00C00082840F087807068400200F108
:100A800083803068800703D5E068012840F05081FA
:100A90003068216920F0F80040EAC1003060207819
:100AA000000713D4207840072AD4A569002D00F050
:100AB0003A81B06800F00C00082840F0A580012DB4
:100AC00040F00E81012002B0BDE8F081606900288D
:100AD00000F082800020C4F247200121C0F8801E6F
:100AE000FFF776FD054600BF706F8007DAD4FFF789
:100AF0006FFD401B0228F7D9032002B0BDE8F0814A
:100B0000306C5FEAC0080AD400200190306C40F0DD
:100B100080503064306C00F080500190019847F2B2
:100B20000007C4F200073868C00547D4386840F4AD
:100B300080703860FFF74CFD054600BF3868C0057F
:100B40003CD4FFF745FD401B0228F7D9032002B033
:100B5000BDE8F081B06800F00C00082803D170688F
:100B600040023FF576AF61683068B1F5803F07D04D
:100B7000B1F5A02F40F09A8040F4802030603068BA
:100B800040F4803030609AE0E068002840F20000D5
:100B9000C4F247205CD001210160FFF719FD054632
:100BA000306880073FF574AFFFF712FD401B022845
:100BB000F6D9032002B0BDE8F08100BFA168306F14
:100BC000012905D0052955D140F004003067306F68
:100BD00040F00100306756E00020C4F247200021B9
:100BE000C0F8801EFFF7F4FC054600BF706F800759
:100BF0007FF558AFFFF7ECFC401B0228F6D9032025
:100C000002B0BDE8F08100BF0027C4F247270020F2
:100C10003866FFF7DDFC022D05460DD130688001F6
:100C200040F18A80FFF7D4FC401B02284FF00300FC
:100C3000F4D902B0BDE8F0813068800173D5FFF7C8
:100C4000C7FC401B02284FF00300F5D9F1E700BFB5
:100C500000210160FFF7BCFC054600BF306880073B
:100C60007FF51DAFFFF7B4FC401B02284FF00300D7
:100C7000F4D9DEE720F001003067306F002920F062
:100C8000040030677AD0FFF7A3FC054641F28837AD
:100C9000306F800700F18480FFF79AFC401BB84258
:100CA000F6D9032002B0BDE8F08100BF20F4803007
:100CB00030603068002920F4802030607AD0FFF75F
:100CC00087FC0546306880033FF5CAAEFFF780FC1D
:100CD000401B6428F6D9032002B0BDE8F08100BFB4
:100CE0007068E16900F480028A4221D1216A00F033
:100CF0003F028A421CD147F6C071626A0140B1EBE3
:100D0000821F15D1A16A4FF6FF73C903994300F4FE
:100D10004032A1F580318A420AD1E16A00F0706068
:100D2000B0EB016F04D1002002B0BDE8F08100BF3C
:100D3000012002B0BDE8F08104F11C052FCD08436D
:100D400040EA8210D9034FF6FF729143A1F580313A
:100D500040EA05600843706001203866FFF738FC00
:100D6000044600BF30688001DDD4FFF731FC001B72
:100D700002284FF00300F5D95BE700BFFFF728FC1E
:100D8000054641F2883700BF306F800708D5FFF76E
:100D90001FFC401BB8424FF00300F5D949E700BFE4
:100DA000B8F1000F3FF581AE306C20F08050306418
:100DB0007BE600BFFFF70CFC054600BF30688003F0
:100DC0007FF54EAEFFF704FC401B64284FF0030094
:100DD000F4D92EE7002804BF0120704770B50446FF
:100DE00090F8490015460E4628B9002084F84800BE
:100DF000204600F01DF8206804F10801FFF79CFA76
:100E00002068A2683146FFF7DBFAD4E90102236BC0
:100E10002946FFF769FA2068A16850F8212042F0BE
:100E2000010240F82120012084F84900002070BD13
:100E3000B0B586B0002043F630010190C4F2020143
:100E40008A6840F6004442F001028A608A68C4F26F
:100E5000020402F001020192019A01900A6801ADB8
:100E600042F008020A600A6802F008020192019A40
:100E70000190086840F0100008600868012100F047
:100E80001000019001984CF2037001900220029032
:100E9000CDE903100C20059020462946FFF7C2FA41
:100EA0004FF68070019004F580602946FFF7BAFA8A
:100EB00006B0B0BD7047000070470000002804BFB6
:100EC0000120704710B5044690F83D0028B9002075
:100ED00084F83C00204600F01FF8022084F83D0012
:100EE0002068211D00F09AFB012084F8460084F858
:100EF0003E0084F83F0084F8400084F8410084F804
:100F0000420084F8430084F8440084F8450084F8E3
:100F10003D00002010BD00007047000090F83D101B
:100F200001291CBF01207047022180F83D10006894
:100F300041F2FF72C168C4F20002904241F0010127
:100F4000C1600DDC40F2FF71C4F20001884215DC83
:100F5000B0F1804F2AD040F20041C4F2000123E0FA
:100F600040F2FF31C4F20101884213DC41F6000176
:100F7000C4F20001884219D0002113E040F60001BC
:100F8000C4F20001884211D040F60041C4F20001D1
:100F90000AE000BF44F20001C4F20101884205D01A
:100FA00040F20041C4F20101884206D1816801F09B
:100FB0000701062904BF00207047016841F00101C4
:100FC00001600020704700007047000070B50446C3
:100FD0000068C5680669B10716D515F0020113D07F
:100FE0006FF002010161012121778069800703D040
:100FF0002046FFF7E9FF05E0204600F08FF8204685
:1010000000F08EF800202077700719D515F0040045
:1010100016D020686FF004010161022121778069F8
:1010200010F4407F04D02046FFF7CEFF06E000BF5B
:10103000204600F073F8204600F072F80020207778
:10104000300717D515F0080014D020686FF008019C
:10105000016104212177C069800703D02046FFF792
:10106000B3FF05E0204600F059F8204600F058F89C
:1010700000202077F00619D515F0100016D0206852
:101080006FF01001016108212177C06910F4407FE1
:1010900004D02046FFF798FF06E000BF204600F08E
:1010A0003DF8204600F03CF800202077F00718BFFC
:1010B00015F0010002D1300609D412E020686FF06B
:1010C00001010161204600F02DF8300609D515F028
:1010D000800006D020686FF0800101612046FFF794
:1010E000E9FE700609D515F0400006D020686FF0C3
:1010F00040010161204600F01FF8B00658BF70BDE6
:1011000015F0200008D021686FF0200220460A6107
:10111000BDE87040FFF7D0BE70BD00007047000012
:1011200070470000006841F20001C4F200018842EB
:1011300018BF7047FFF752BA70470000002804BF7D
:101140000120704710B5044690F8410028B90020EE
:1011500084F84000204600F021F8242084F8410063
:101160002068C16821F40051C160204600F0F4FA03
:101170002068016921F490410161416921F02A014F
:101180004161C16841F40051C160002020216064C8
:1011900084F8411084F84210606310BD80B586B0B9
:1011A00041F200010068C4F2010100228842059268
:1011B000CDE903220292019202D006B080BD00BFA9
:1011C00043F630000092C4F20200436943F010037A
:1011D0004361436903F010030093009B009203688E
:1011E00043F001030360006800F0010000900098E4
:1011F0004FF4C06001900220CDE902020320049068
:101200000720059001F5704001A9FFF70BF906B022
:1012100080BD00002DE9F04381B0044690F8410004
:10122000202809D100294FF0010018BF002A07D15A
:1012300001B0BDE8F08300BF022001B0BDE8F0833B
:101240000020606421201D460E4684F841001746A8
:10125000FFF7BEF9A784E784A1688146B1F5805FF6
:1012600002D1206900285DD037460020E28C216839
:10127000002A5DD06A1C24D0002D4AD0804600BFD1
:101280000868000608D4FFF7A3F9A0EB0900A842FC
:101290007AD82168C868F3E717B117F8010B04E0A2
:1012A00038F8020B00276FF35F204860E08C0138AC
:1012B000E084E08C0028E3D13AE000BF0A6812061F
:1012C00009D40A68120606D40A6812065CBF0A68C6
:1012D0005FEA0262F2D51FB117F8012B05E000BFEB
:1012E00030F8022B00276FF35F224A60E28C013A4C
:1012F000E284E28C002AE4D11AE000BF30F8022B2D
:1013000000276FF35F224A60E28C013AE284E28CAC
:1013100072B10A68120635D5002FEFD017F8012BED
:10132000F1E700BF00273046E28C2168002AA1D1F6
:10133000086840061ED42DB3681C14D10868400606
:101340002AD40868400627D40868400624D40868D0
:1013500040064FF00000F1D50DE000BF2068C168E5
:101360000068400618D4FFF733F9A0EB0900A84243
:10137000F4D909E00020202184F8411001B0BDE833
:10138000F08300BFFFF724F90320202184F84110E7
:1013900001B0BDE8F08300BF0020202184F8411097
:1013A00001B0BDE8F0830000FEE7000010B54AF28E
:1013B0005472C0F600021020022106F0E9FF40F24C
:1013C0001804C2F20004206041F215504AF2307253
:1013D000C0F60000C0F60002002107F023F86060AC
:1013E00041F21D504AF26C72C0F60000C0F60002D5
:1013F000002107F017F8A06010BD000082B00020A7
:1014000043F630010190C4F202010A6842F0800202
:101410000A600A6802F080020192019A009008684E
:1014200040F001000860086800F00100009000989A
:1014300002B0704780B540F2D41041F20001C2F210
:101440000000C4F2010100234FF00C0C4FF4E13214
:1014500080E80E00C0E90333C0E905C3C361FFF7AC
:101460006DFE002808BF80BDBDE88040FEF738BF94
:10147000FEE70000FEE700000000000000000000A2
:10148000EFF30980BFF36F8F154B1A681EF0100F32
:1014900008BF20ED108A20E9F04F10602DE9090007
:1014A0004FF0500080F31188BFF34F8FBFF36F8F61
:1014B00008F052F84FF0000080F31188BDE80900F1
:1014C00019680868B0E8F04F1EF0100F08BFB0ECC4
:1014D000108A80F30988BFF36F8F704700BF00BF89
:1014E000900000200000000000000000000000004C
:1014F000074B19680868B0E8F04F80F30988BFF31C
:101500006F8F4FF0000080F31188704700BF00BF5D
:1015100090000020012006F0F7FEFBE704A400BFC6
:10152000204609F0DFF8012006F0EEFEF8E700BFE4
:101530003100000080B54EF21000CEF200000068CD
:1015400008F05CFD012808BF80BDBDE8804008F0C0
:1015500047B9000070B592B006AC20463021FEF7C6
:1015600079FE002543F640000595CDE90355CDE908
:1015700001550095C4F202000168022641F0805135
:101580000160006800F080500090009847F2000071
:101590000095C4F20000016841F4804101600068D8
:1015A000A02100F4804000900098012006904FF4A4
:1015B000803007904FF480000D9004200E90119021
:1015C00020460C96CDE90F16FFF72EFA10B172B631
:1015D000FEE700BF0F20CDE901064FF4A0500490B4
:1015E0004FF48050059001A805210395FFF7EAF814
:1015F00010B172B6FEE700BF12B070BD4EF6885053
:10160000CEF20000016841F47001016070470000F3
:1016100040F28C10C2F20000FFF7D8BCB0B540F623
:10162000FF3E0568C4F2000E40F2004C7045C4F263
:10163000010C25DCB0F1804F2FD040F20043C4F202
:101640000003984229D040F60003C4F200039842F8
:1016500023D041F6FF73C4F20003984228DC7045A2
:101660003ADCB0F1804F5BD040F20043C4F200039B
:10167000984255D040F60003C4F200034EE000BF8C
:1016800040F60043C4F20003984206D0604504D0FF
:101690000023C4F201039842DBD14B6825F07002AD
:1016A00043EA020541F6FF73C4F200039842D6DD17
:1016B00043F6FF73C4F2010398421FDC42F20003B9
:1016C000C4F2000398422BD00023C4F201039842D5
:1016D00026D0604524D028E040F60043C4F2000341
:1016E00098421DD041F60003C4F20003984217D07F
:1016F00041F60043C4F2000310E000BF44F20003CF
:10170000C4F2010398420BD044F60003C4F2010373
:10171000984205D044F20043C4F20103984204D138
:10172000CB6825F4407243EA02050A688C684B696D
:10173000C46240F480648262644504BF0969016345
:10174000026825F0800142F0040219430260012280
:1017500042610160B0BD0000B0B50446006804F10C
:1017600008030ECB0569194325F440552A4302614D
:101770006269E3691143C268194349F20C639A43F1
:101780001143C1604169A26921F4407141F20043F3
:10179000114340F48062C4F201039A42416103D1D3
:1017A000FFF7F6F802E000BFFFF7DEF8E1694FF659
:1017B0009C7563681922C0F6FF75B1F5004FA0FB58
:1017C00002011FD15A00DB0FFEF7FAFC48F21F514D
:1017D000C5F2EB11A0FB01235A0905F1805302FB6E
:1017E0000300322303EBC000A0FB01014FF4F870AB
:1017F00000EA111000EB0210C1F342110844216805
:101800008860B0BD9A009B0FFEF7DAFC48F21F51CA
:10181000C5F2EB11A0FB01235A0902FB050032239C
:1018200003EB0010A0FB0101F02000EA511000EBD7
:101830000210C1F34311084421688860B0BD000064
:10184000FEE7000010B582B004468DF8070040F2B4
:10185000D410C2F200000DF1070101220223FFF7AC
:10186000D9FC204602B010BDF0B581B0CF20ADF854
:101870000200BDF802008024ADF80200BDF80200AD
:10188000C6F6004424F8020C0020ADF80200BDF8B2
:101890000210C122ADF80210BDF802104FF0100C7A
:1018A0002180ADF80220BDF802104FF0010EADF816
:1018B0000210BDF802102A2721803021ADF8021055
:1018C000BDF80230ADF80230BDF802302380ED23C0
:1018D000ADF80230BDF80230ADF80230BDF802308C
:1018E00024F8023C6423ADF80230BDF80230ADF8B4
:1018F0000230BDF8023023800323ADF80230BDF87A
:101900000230ADF80230BDF8023023801223ADF86A
:101910000230BDF80230ADF80230BDF8023023804D
:101920008123ADF80230BDF80230ADF80230BDF8C9
:1019300002302380E823ADF80230BDF80230ADF864
:101940000230BDF8023024F8023C8523ADF80230A5
:10195000BDF80230ADF80230BDF802302380ADF89A
:1019600002C0BDF80230ADF80230BDF8023023806D
:101970007A23ADF80230BDF80230ADF80230BDF880
:1019800002302380CB23ADF80230BDF80230ADF831
:101990000230BDF8023024F8023C3923ADF80230A1
:1019A000BDF80230ADF80230BDF8023023802C23A0
:1019B000ADF80230BDF80230ADF80230BDF80230AB
:1019C0002380ADF80200BDF80230ADF80230BDF85A
:1019D000023023803423ADF80230BDF80230ADF878
:1019E0000230BDF8023023800223ADF80230BDF88A
:1019F0000230ADF80230BDF802302380F723ADF895
:101A00000230BDF80230ADF80230BDF8023024F8E3
:101A1000023C2023ADF80230BDF80230ADF80230B0
:101A2000BDF802302380EA23ADF80230BDF8023061
:101A3000ADF80230BDF8023024F8023CADF80200E7
:101A4000BDF80230ADF80230BDF802302380ADF8A9
:101A50000200BDF80230ADF80230BDF8023023803C
:101A6000C023ADF80230BDF80230ADF80230BDF849
:101A7000023024F8023C1B23ADF80230BDF80230DE
:101A8000ADF80230BDF802302380ADF80220BDF879
:101A90000220ADF80220BDF8022024F8022CADF897
:101AA00002E0BDF80220ADF80220BDF8022022803D
:101AB000C522ADF80220BDF80220ADF80220BDF825
:101AC000022024F8022CADF80210BDF80220ADF877
:101AD0000220BDF802202280ADF80210BDF80210ED
:101AE0000A22ADF80210BDF802102180C721ADF81E
:101AF0000210BDF80210ADF80210BDF8021024F873
:101B0000021CB721ADF80210BDF80210ADF80210AA
:101B1000BDF8021021803621ADF80210BDF8021088
:101B2000ADF80210BDF8021024F8021C4821ADF8EF
:101B30000210BDF80210ADF80210BDF802102180AD
:101B40003A21ADF80210BDF80210ADF80210BDF850
:101B5000021024F8021C5521ADF80210BDF8021045
:101B6000ADF80210BDF802102180B121ADF80210CD
:101B7000BDF80210ADF80210BDF8021024F8021CE6
:101B8000ADF80200BDF80210ADF80210BDF8021069
:101B900021801A21ADF80210BDF80210ADF8021034
:101BA000BDF802102180B621ADF80210BDF8021078
:101BB000ADF80210BDF8021024F8021CADF80220A6
:101BC000BDF80210ADF80210BDF802102180A2216C
:101BD000ADF80210BDF80210ADF80210BDF8021009
:101BE0002180F221ADF80210BDF80210ADF802100C
:101BF000BDF8021024F8021CADF80200BDF8021076
:101C0000ADF80210BDF8021021802621ADF80210B7
:101C1000BDF80210ADF80210BDF8021024F8021C45
:101C2000ADF802E0BDF80210ADF80210BDF80210E8
:101C30002180E021ADF80210BDF80210ADF80210CD
:101C4000BDF8021024F8021C0F21ADF80210BDF8F7
:101C50000230ADF80230BDF802302380ADF80270DA
:101C6000BDF80230ADF80230BDF8023023802823E1
:101C7000ADF80230BDF80230ADF80230BDF80230E8
:101C800023800823ADF80230BDF80250ADF80250B1
:101C9000BDF8025025800E25ADF80250BDF8025067
:101CA000ADF80250BDF802502580ADF80230BDF805
:101CB00002302B25ADF80230BDF8023023805423CA
:101CC000ADF80230BDF80230ADF80230BDF8023098
:101CD0002380A923ADF80230BDF80230ADF8023000
:101CE000BDF8023023804323ADF80230BDF8023046
:101CF000ADF80230BDF802302380ADF80220BDF807
:101D00000220ADF80220BDF802202280ADF80210BA
:101D1000BDF80220ADF80220BDF802202280ADF807
:101D20000200BDF80220ADF80220BDF8022022809A
:101D3000ADF80200BDF80220ADF80220BDF8022087
:101D40002280ADF80200BDF80220ADF80220BDF8F7
:101D500002202280ADF80200BDF80220ADF802207A
:101D6000BDF802202280E122ADF80220BDF8022059
:101D7000ADF80220BDF8022024F8022CADF80200D4
:101D8000BDF80220ADF80220BDF802202280152205
:101D9000ADF80220BDF80220ADF80220BDF8022007
:101DA00022801722ADF80220BDF80220ADF80220F3
:101DB000BDF8022022800722ADF80220BDF80220E3
:101DC000ADF80220BDF8022022801122ADF80220D9
:101DD000BDF80230ADF80230BDF802302380062392
:101DE000ADF80230BDF80230ADF80230BDF8023077
:101DF0002380ADF80250BDF80230ADF80230BDF8D6
:101E0000023023805623ADF80230BDF80230ADF821
:101E10000230BDF8023023803C23ADF80230BDF81B
:101E20000230ADF80230BDF8023023800523ADF852
:101E30000230BDF80230ADF80230BDF80230238028
:101E4000ADF802C0BDF80230ADF80230BDF8023086
:101E50002380ADF80210BDF80230ADF80230BDF8B5
:101E6000023023803F23ADF80230BDF80260ADF8A8
:101E70000260BDF802602680ADF80230BDF8026055
:101E8000ADF80260BDF802602680ADF80210BDF822
:101E90000210ADF80210BDF802102180ADF802501A
:101EA000BDF80210ADF80210BDF8021024F8021CB3
:101EB000ADF80200BDF80210ADF80210BDF8021036
:101EC0002180ADF80200BDF80210ADF80210BDF897
:101ED00002102180ADF802E0BDF80210ADF802104A
:101EE000BDF802102180ADF80230BDF80210ADF847
:101EF0000210BDF802102180ADF80270BDF802108A
:101F0000ADF80210BDF8021024F8021CADF8020072
:101F1000BDF80210ADF80210BDF802102180ADF836
:101F20000200BDF80210ADF80210BDF802102180C9
:101F3000ADF80200BDF80200ADF80200BDF80200E5
:101F40002080EF20ADF80200BDF80200ADF80200DD
:101F5000BDF802002080ADF80220BDF80200ADF807
:101F60000200BDF8020024F8020C7820FEF746FAC1
:101F70002920ADF80200BDF80200ADF80200BDF85E
:101F8000020024F8020C01B0F0BD00002DE9F04F72
:101F900081B0FF23ADF80230BDF802008024ADF817
:101FA0000200BDF80200C6F6004424F8020CADF8A9
:101FB0000230BDF802004FF0060EADF80200BDF889
:101FC00002004FF00F0B20809820ADF80200BDF802
:101FD00002004FF00B0AADF80200BDF802004FF00E
:101FE00010092080ADF802E0BDF802004025ADF8F0
:101FF0000200BDF802004FF00A0C2080BC20ADF8B2
:102000000200BDF80200ADF80200BDF8020024F89D
:10201000020C0120ADF80200BDF80210ADF802106C
:10202000BDF802102180ADF802B0BDF80210ADF885
:102030000210BDF8021021806121ADF80210BDF838
:102040000210ADF80210BDF802102180ADF8023088
:10205000BDF80210ADF80210BDF802102180ADF8F5
:102060000200BDF80210ADF80210BDF80210218088
:10207000ADF80200BDF80210ADF80210BDF8021074
:102080002180ADF802A0BDF80210ADF80210BDF835
:1020900002102180ADF80290BDF80210ADF80210D8
:1020A000BDF8021021803721ADF80210BDF80210F2
:1020B000ADF80210BDF8021021806321ADF80210C6
:1020C000BDF80210ADF80210BDF802102180ADF885
:1020D0000230BDF80210ADF80210BDF802102180E8
:1020E000ADF80230BDF80210ADF80210BDF80210D4
:1020F0002180ADF80200BDF80210ADF80210BDF865
:1021000002102180ADF80200BDF80210ADF80210F7
:10211000BDF8021021800021ADF80210BDF80220A8
:10212000ADF80220BDF802202280ADF80210BDF803
:102130000220ADF80220BDF802202280ADF8023066
:10214000BDF80220ADF80220BDF802202280522204
:10215000ADF80220BDF80220ADF80220BDF8022043
:102160002280ADF80200BDF80220ADF80220BDF8D3
:1021700002202280ADF80210BDF80220ADF8022046
:10218000BDF802202280ADF80250BDF80220ADF863
:102190000220BDF802202280BD22ADF80220BDF849
:1021A0000220ADF80220BDF8022024F8022CADF880
:1021B0000200BDF80220ADF80220BDF80220228006
:1021C0002322ADF80220BDF80230ADF80230BDF890
:1021D000023023804523ADF80230BDF80260ADF82F
:1021E0000260BDF8026026806726ADF80260BDF887
:1021F0000270ADF80270BDF802702780ADF80200E1
:10220000BDF80270ADF80270BDF802702780ADF81D
:102210000220BDF80220ADF80220BDF80220228085
:10222000ADF80230BDF80220ADF80220BDF8022062
:102230002280ADF80260BDF802201326ADF802201E
:10224000BDF802202280BE22ADF80220BDF8022097
:10225000ADF80220BDF8022024F8022CADF80210DF
:10226000BDF80220ADF80220BDF802202280ADF8B2
:102270000200BDF80220ADF80220BDF80220228045
:10228000AB22ADF80220BDF80220ADF80220BDF867
:10229000022022806022ADF80220BDF80220ADF8B5
:1022A0000220BDF8022022802222ADF80220BDF8D3
:1022B0000230ADF80230BDF802302380ADF80220C4
:1022C000BDF80230ADF80230BDF802302380ADF821
:1022D0000220BDF80230ADF80230BDF80230238094
:1022E000ADF80220BDF80230ADF80230BDF8023082
:1022F0002380ADF80220BDF802202023ADF8022093
:10230000BDF802202280C722ADF80220BDF80220CD
:10231000ADF80220BDF8022024F8022C3622ADF8D8
:102320000220BDF80220ADF80220BDF80220228074
:10233000ED22ADF80220BDF80220ADF80220BDF874
:10234000022024F8022C7F22ADF80220BDF80220E2
:10235000ADF80220BDF802202280ADF802B0BDF831
:102360000220ADF80220BDF802202280C022ADF884
:102370000220BDF80220ADF80220BDF8022024F8AA
:10238000022CADF802B0BDF80220ADF80220BDF875
:1023900002202280ADF802A0BDF80220ADF8022094
:1023A000BDF802202280ADF802C0BDF80220ADF8D1
:1023B0000220BDF802202280FC22ADF80220BDF8E8
:1023C0000220ADF80220BDF8022024F8022C0822D9
:1023D000ADF80220BDF80220ADF80220BDF80220C1
:1023E0002280DF22ADF80220BDF80220ADF80220E5
:1023F000BDF8022024F8022CADF80210BDF802202E
:10240000ADF80220BDF802202280ADF80210BDF820
:102410000220ADF80220BDF802202280ADF80210A3
:10242000BDF80220ADF80220BDF802202280ADF8F0
:102430000210BDF80220ADF80220BDF80220228073
:10244000ADF80210BDF80220ADF80220BDF8022060
:102450002280ADF80230BDF80220ADF80220BDF8B0
:1024600002202280F322ADF80220BDF80220ADF850
:102470000220BDF8022024F8022C7422ADF80220BC
:10248000BDF80220ADF80220BDF802202280B4225F
:10249000ADF80220BDF80220ADF80220BDF8022000
:1024A00024F8022CADF80210BDF80220ADF802208D
:1024B000BDF802202280ADF80210BDF80220ADF870
:1024C0000220BDF802202280ADF80210BDF80220E3
:1024D000ADF80220BDF802202280F722ADF80220DC
:1024E000BDF80220ADF80220BDF8022024F8022C2D
:1024F0008222ADF80220BDF80220ADF80220BDF81E
:1025000002202280B122ADF80220BDF80220ADF8F1
:102510000220BDF8022024F8022CADF80210BDF80C
:102520000220ADF80220BDF802202280ADF8026042
:10253000BDF80220ADF80220BDF802202280ADF8DF
:102540000260BDF80220ADF80220BDF80220228012
:10255000F222ADF80220BDF80220ADF80220BDF84D
:10256000022024F8022C8022ADF80220BDF80220BF
:10257000ADF80220BDF8022022800422ADF802202E
:10258000BDF80220ADF80220BDF802202280ADF88F
:102590000250BDF80220ADF80220BDF802202280D2
:1025A0002822ADF80220BDF80220ADF80220BDF8C7
:1025B00002202280C122ADF80220BDF80220ADF831
:1025C0000220BDF8022024F8022C1722ADF80220C8
:1025D000BDF80220ADF80220BDF80220228088223A
:1025E000ADF80220BDF80250ADF80250BDF802501F
:1025F0002580ADF80220BDF802200E25ADF802209E
:10260000BDF802202280ADF80230BDF80220ADF8FE
:102610000220BDF802202280E022ADF80220BDF8A1
:102620000220ADF80220BDF8022024F8022CADF8FB
:102630000210BDF80220ADF80220BDF80220228071
:10264000ADF802C0BDF80220ADF80220BDF80220AE
:1026500022801222ADF80220BDF80220ADF802203F
:10266000BDF802202280ADF80290BDF80220ADF83E
:102670000220BDF802202280ADF80250BDF80220F1
:10268000ADF80220BDF802202280ADF80230BDF87E
:102690000220ADF80220BDF802202280CC22ADF845
:1026A0000220BDF80220ADF80220BDF802202280F1
:1026B0000722ADF80220BDF80220ADF80220BDF8D7
:1026C00002202280ADF802E0BDF80220ADF8022021
:1026D000BDF802202280ADF802A0BDF80220ADF8BE
:1026E0000220BDF802202280ADF80250BDF8022081
:1026F000ADF80220BDF802202280ADF802B0BDF88E
:102700000220ADF80220BDF8022022800D22ADF893
:102710000220BDF80230ADF80230BDF8023023804F
:102720001523ADF80230BDF80280ADF80280BDF887
:1027300002702780ADF80290BDF80270ADF802700B
:10274000BDF802702780ADF80210BDF80270ADF838
:102750000270BDF802702780E127ADF80270BDF865
:102760000270ADF80270BDF8027024F8027CADF87A
:102770000210BDF80270ADF80270BDF8027027803B
:10278000ADF802A0BDF80270ADF80270BDF802709D
:102790002780ADF80260BDF80260ADF80260BDF8B8
:1027A00002602680ADF80220BDF80220ADF80220BC
:1027B000BDF802202280ADF80250BDF80220ADF82D
:1027C0000220BDF8022022801B22ADF80220BDF8B5
:1027D0000220ADF80220BDF8022022807122ADF85F
:1027E0000220BDF80220ADF80220BDF802202280B0
:1027F000ADF802E0BDF80220ADF80220BDF80220DD
:102800002280ADF802E0BDF80220ADF80220BDF84C
:1028100002202280ADF802C0BDF80220ADF80220EF
:10282000BDF802202280ADF802B0BDF80220ADF85C
:102830000220BDF802202280ADF80250BDF802202F
:10284000ADF80220BDF802202280ADF802B0BDF83C
:102850000220ADF80220BDF802202280ADF802303F
:10286000BDF80220ADF80220BDF8022022800C2223
:10287000ADF80220BDF80220ADF80220BDF802201C
:102880002280ADF80210BDF80220ADF80220BDF89C
:10289000022022802A22ADF80220BDF80220ADF8E5
:1028A0000220BDF8022024F8022CADF80210BDF879
:1028B0000220ADF80220BDF802202280ADF80210FF
:1028C000BDF80220ADF80220BDF802202280ADF84C
:1028D0000200BDF80200ADF80200BDF80200208041
:1028E000DF20ADF80200BDF80200ADF80200BDF82F
:1028F000020020802B20ADF80200BDF80200ADF8E8
:102900000200BDF8020024F8020CADF80210BDF878
:102910000200ADF80200BDF802002080ADF8021000
:10292000BDF80200ADF80200BDF8020020800320CF
:10293000ADF80200BDF80200ADF80200BDF80200DB
:1029400020801F20ADF80200BDF80200ADF80200A3
:10295000BDF8020020803A20ADF80200BDF8020068
:10296000ADF80200BDF8020024F8020C5520ADF8C5
:102970000200BDF80200ADF80200BDF802002080A0
:102980003620ADF80200BDF80200ADF80200BDF837
:10299000020024F8020CADF80210BDF80200ADF8F8
:1029A0000200BDF8020020801120ADF80200BDF841
:1029B0000200ADF80200BDF8020024F8020C7820F5
:1029C000FDF71CFD2920ADF80200BDF80200ADF8AE
:1029D0000200BDF8020024F8020C1420FDF70EFDE1
:1029E0002C20ADF80200BDF80200ADF80200BDF8E1
:1029F000020024F8020C01B0BDE8F08F2DE9F04F81
:102A000081B0ED20ADF80200BDF802008024ADF8E1
:102A10000200BDF80200C6F6004424F8020C0120B2
:102A2000ADF80200BDF802004FF02109ADF8020038
:102A3000BDF8020001222080FE20ADF80200BDF8A2
:102A400002000025ADF80200BDF802008B262080B0
:102A5000EE20ADF80200BDF802000223ADF802003E
:102A6000BDF802004FF0200A24F8020CDE20ADF879
:102A70000200BDF802004FF03C08ADF80200BDF8BE
:102A800002004FF0360E2080ADF80290BDF8021023
:102A9000C420ADF80210BDF802104FF0320B2180B7
:102AA000F121ADF80210BDF802104FF02C0CADF87A
:102AB0000210BDF8021024F8021CADF80220BDF887
:102AC0000210ADF80210BDF802102180DF21ADF830
:102AD0000210BDF80210ADF80210BDF8021024F883
:102AE000021C1021ADF80210BDF80210ADF8021062
:102AF000BDF802102180ADF80200BDF80210C6201A
:102B0000ADF80210BDF8021024F8021C8F21ADF8B8
:102B10000210BDF80210ADF80210BDF802102180BD
:102B2000ADF80200BDF80210E220ADF80210BDF8C9
:102B3000021024F8021CADF80250BDF80210ADF8E6
:102B40000210BDF802102180ADF80200BDF802109D
:102B5000ADF80210BDF802102180ADF80200BDF8FA
:102B60000210ADF80210BDF802102180ADF802008D
:102B7000BDF802105D20ADF80210BDF802102180F2
:102B8000BF21ADF80210BDF80210ADF80210BDF87B
:102B9000021024F8021CAA21ADF80210BDF80210A0
:102BA000ADF80210BDF802102180B021ADF802107E
:102BB000BDF80210ADF80210BDF8021024F8021C96
:102BC0000D21ADF80210BDF80220ADF80220BDF8CD
:102BD00002202280ADF80250BDF80220ADF802209C
:102BE000BDF802202280ADF80210BDF80210ADF849
:102BF0000210BDF802102180ADF80250BDF802109D
:102C0000ADF80210BDF8021021801121ADF80210BC
:102C1000BDF80210ADF80210BDF802102180ADF829
:102C20000250BDF80210ADF80210BDF8021021806C
:102C30001921ADF80210BDF80210ADF80210BDF870
:102C400002102180ADF80250BDF80210ADF802105C
:102C5000BDF802102180ADF80290BDF80210ADF869
:102C60000210BDF802102180ADF80250BDF802102C
:102C7000ADF80210BDF8021021802D21ADF8021030
:102C8000BDF80210ADF80210BDF802102180ADF8B9
:102C90000250BDF80210ADF80210BDF802102180FC
:102CA0003D21ADF80210BDF80210ADF80210BDF8DC
:102CB00002102180ADF80250BDF80210ADF80210EC
:102CC000BDF802102180ADF80200BDF80210ADF889
:102CD0000210BDF802102180ADF80250BDF80210BC
:102CE000ADF80210BDF802102180ADF80200BDF869
:102CF00002108B20ADF80210BDF802102180ADF853
:102D00000250BDF80210ADF80210BDF8021021808B
:102D1000B121ADF80210BDF80210ADF80210BDF8F7
:102D2000021024F8021C8021ADF80210BDF8021038
:102D3000ADF80210BDF802102180ADF80250BDF8C8
:102D40000210ADF80210BDF802102180ADF80200AB
:102D5000BDF802100220ADF80210BDF8021021806B
:102D6000ADF80250BDF80210ADF80210BDF8021027
:102D700021809621ADF80210BDF80220ADF80220A6
:102D8000BDF802202280ADF80250BDF80220ADF857
:102D90000220BDF802202280B222ADF80220BDF848
:102DA0000220ADF80220BDF8022024F8022CADF874
:102DB0000250BDF80220ADF80220BDF802202280AA
:102DC000ADF80250BDF80220ADF80220BDF8022097
:102DD0002280ADF80200BDF80220B320ADF8022039
:102DE000BDF802202280ADF80250BDF80220ADF8F7
:102DF0000220BDF8022022800322ADF80220BDF897
:102E00000270ADF80270BDF802702780ADF8025074
:102E1000BDF80270ADF80270BDF802702780ADF801
:102E20000200BDF80270B720ADF80270BDF8027064
:102E300024F8027CADF80250BDF80270ADF80270C3
:102E4000BDF802702780ADF80250BDF80270ADF8F1
:102E50000270BDF802702780ADF80250BDF8027014
:102E6000ADF80270BDF802702780ADF80250BDF8D1
:102E70000270ADF80270BDF802702780ADF8025004
:102E8000BDF80270ADF80270BDF802702780ADF891
:102E90000250BDF80270ADF80270BDF802702780D4
:102EA000ADF80250BDF80270ADF80270BDF80270C6
:102EB0002780ADF80250BDF80270ADF80270BDF881
:102EC00002702780ADF80250BDF80270ADF80270B4
:102ED000BDF802702780ADF80250BDF80270ADF861
:102EE0000270BDF802702780ADF80250BDF8027084
:102EF000ADF80270BDF802702780ADF80250BDF841
:102F00000270ADF80270BDF802702780ADF8025073
:102F1000BDF80270ADF80270BDF802702780ADF800
:102F20000250BDF80270ADF80270BDF80270278043
:102F3000ADF80250BDF80270ADF80270BDF8027035
:102F40002780ADF80250BDF80270ADF80270BDF8F0
:102F500002702780ADF80250BDF80270ADF8027023
:102F6000BDF802702780ADF80250BDF80270ADF8D0
:102F70000270BDF802702780ADF80250BDF80270F3
:102F8000ADF80270BDF802702780ADF80250BDF8B0
:102F90000270ADF80270BDF802702780ADF80250E3
:102FA000BDF80270ADF80270BDF802702780ADF870
:102FB0000250BDF80270ADF80270BDF802702780B3
:102FC000ADF80250BDF80270ADF80270BDF80270A5
:102FD0002780ADF80250BDF80270ADF80270BDF860
:102FE00002702780B427ADF80270BDF80270ADF80A
:102FF0000270BDF8027024F8027CADF80260BDF8E2
:103000000270ADF80270BDF802702780ADF8025072
:10301000BDF80270ADF80270BDF802702780ADF8FF
:103020000210BDF802100427ADF80210BDF802101E
:103030002180ADF80250BDF80210ADF80210BDF8C5
:1030400002102180A121ADF80210BDF80210ADF8E8
:103050000210BDF802102180ADF80250BDF8021038
:10306000ADF80210BDF802102180B521ADF80210B4
:10307000BDF80210ADF80210BDF8021024F8021CD1
:10308000ADF80230BDF80210FF23ADF80210BDF814
:1030900002102180ADF80250BDF80210ADF8021008
:1030A000BDF802102180ADF80220BDF80210ADF885
:1030B0000210BDF802102180ADF80250BDF80210D8
:1030C000ADF80210BDF802102180ADF80270BDF815
:1030D0000210ADF80210BDF802102180ADF80250C8
:1030E000BDF80210ADF80210BDF802102180B62123
:1030F000ADF80210BDF80210ADF80210BDF80210D4
:1031000024F8021CADF80250BDF80210ADF8021010
:10311000BDF802102180ADF80250BDF80210ADF8E4
:103120000210BDF802102180ADF80200BDF80210B7
:103130006420ADF80210BDF8021024F8021CADF8AE
:103140000250BDF80210ADF80210BDF80210218047
:10315000ADF80250BDF80210ADF80210BDF8021033
:1031600021803F21ADF80210BDF80210ADF8021029
:10317000BDF802102180ADF80250BDF80210ADF884
:103180000210BDF8021021805E21ADF80210BDF8DA
:103190000210ADF80210BDF802102180ADF8025007
:1031A000BDF80210ADF80210BDF802102180ADF894
:1031B0000200BDF80210DC20ADF80210BDF80210CC
:1031C0002180ADF80250BDF80210ADF80210BDF834
:1031D000021021808C21ADF80210BDF80210ADF86C
:1031E0000210BDF802102180ADF80250BDF80210A7
:1031F000ADF80210BDF802102180AC21ADF802102C
:10320000BDF80210ADF80210BDF802102180ADF833
:103210000250BDF80210ADF80210BDF80210218076
:10322000ADF80200BDF80210ADF80210BDF80210B2
:103230002180ADF80250BDF80210ADF80210BDF8C3
:10324000021021807021ADF80210BDF80210ADF817
:103250000210BDF802102180ADF80250BDF8021036
:10326000ADF80210BDF8021021809021ADF80210D7
:10327000BDF80210ADF80210BDF802102180ADF8C3
:103280000250BDF80210ADF80210BDF80210218006
:10329000EB21ADF80210BDF80210ADF80210BDF838
:1032A00002102180ADF80250BDF80210ADF80210F6
:1032B000BDF802102180ADF80200BDF80210C22056
:1032C000ADF80210BDF802102180ADF80250BDF833
:1032D0000210ADF80210BDF802102180B821ADF83F
:1032E0000210BDF80210ADF80210BDF8021024F86B
:1032F000021CADF80250BDF80210ADF80210BDF886
:1033000002102180ADF80250BDF80210ADF8021095
:10331000BDF802102180ADF80250BDF80210ADF8E2
:103320000210BDF802102180ADF80250BDF8021065
:10333000ADF80210BDF802102180ADF80250BDF8C2
:103340000210ADF80210BDF802102180ADF8025055
:10335000BDF80210ADF80210BDF802102180ADF8E2
:103360000250BDF80210ADF80210BDF80210218025
:10337000ADF80250BDF80210ADF80210BDF8021011
:103380002180BA21ADF80210BDF80210ADF802108C
:10339000BDF8021024F8021C2421ADF80210BDF87B
:1033A0000220ADF80220BDF802202280ADF80250C4
:1033B000BDF80220ADF80220BDF802202280ADF851
:1033C0000250BDF80220ADF80220BDF80220228094
:1033D000ADF80250BDF80220ADF80220BDF8022081
:1033E0002280C122ADF80220BDF80220ADF80220F3
:1033F000BDF8022024F8022CADF802A0BDF802604E
:103400002322ADF80260BDF802602680ADF80250BC
:10341000BDF80260ADF80260BDF802602680542657
:10342000ADF80260BDF80260ADF80260BDF8026060
:103430002680ADF80250BDF80260ADF80260BDF81C
:1034400002602680ADF80230BDF802603A23ADF884
:103450000260BDF802602680ADF80250BDF802603F
:10346000ADF80260BDF802602680ADF80200BDF83C
:1034700002600A20ADF80260BDF8026024F8026C18
:10348000ADF80200BDF802603C20ADF80260BDF866
:1034900002602680ADF80250BDF80260ADF802600F
:1034A000BDF802602680ADF80270BDF80270ADF87C
:1034B0000270BDF802702780ADF80250BDF80270AE
:1034C000ADF80270BDF802702780C327ADF8027016
:1034D000BDF80270ADF80270BDF8027024F8027CED
:1034E000ADF80200BDF80270ADF80270BDF80270D0
:1034F0002780ADF80250BDF80270ADF80270BDF83B
:1035000002702780ADF80230BDF802702C23ADF8B0
:103510000270BDF802702780ADF80250BDF802704D
:10352000ADF80270BDF8027027803927ADF802703F
:10353000BDF80270ADF80270BDF802702780ADF8DA
:103540000250BDF80270ADF80270BDF8027027801D
:103550003727ADF80270BDF80270ADF80270BDF803
:1035600002702780ADF80250BDF80270ADF802700D
:10357000BDF802702780ADF80200BDF80270362059
:10358000ADF80270BDF802702780ADF80250BDF8AA
:103590000270ADF80270BDF802702780ADF802002D
:1035A000BDF802703220ADF80270BDF802702780BD
:1035B000ADF80250BDF80270ADF80270BDF80270AF
:1035C0002780ADF80200BDF802702920ADF8027026
:1035D000BDF802702780ADF80250BDF80270ADF85A
:1035E0000270BDF8027027802F27ADF80270BDF879
:1035F0000260ADF80260BDF802602680ADF80250AE
:10360000BDF80260ADF80260BDF802602680ADF83A
:103610000230BDF802602923ADF80260BDF80260F7
:103620002680ADF80250BDF80260ADF80260BDF82A
:1036300002602680ADF80230BDF80260ADF802608D
:10364000BDF802602680ADF80250BDF80260ADF80A
:103650000260BDF8026026802626ADF80260BDF843
:103660000230ADF80230BDF802302380ADF80250D0
:10367000BDF80230ADF80230BDF802302380ADF85D
:103680000210BDF80230ADF80230BDF802302380E0
:10369000ADF80250BDF80230ADF80230BDF802308E
:1036A0002380ADF80210BDF80230ADF80230BDF84D
:1036B00002302380ADF80250BDF80230ADF8023080
:1036C000BDF8023023802323ADF80230BDF802306C
:1036D000ADF80230BDF802302380ADF80250BDF8DD
:1036E0000230ADF80230BDF802302380ADF8028020
:1036F000BDF802304FF07A08ADF80230BDF8023064
:103700002380ADF80250BDF80230ADF80230BDF8AC
:1037100002302380ADF802E0BDF802304FF08B0E8E
:10372000ADF80230BDF802302380ADF80250BDF88C
:103730000230ADF80230BDF802302380ADF802B09F
:10374000BDF80230ADF80230BDF802302380ADF88C
:103750000250BDF80230ADF80230BDF802302380CF
:10376000ADF80270BDF80230ADF80230BDF802309D
:103770002380ADF80250BDF80230ADF80230BDF83C
:1037800002302380ADF802C0BDF802304FF0C40C07
:10379000ADF80230BDF802302380ADF80250BDF81C
:1037A0000230ADF80230BDF802302380ADF80200DF
:1037B000BDF80230C420ADF80230BDF802302380DD
:1037C000ADF80250BDF80230ADF80230BDF802305D
:1037D0002380ADF80260BDF802301626ADF8023045
:1037E000BDF802302380ADF80250BDF80230ADF8CC
:1037F0000230BDF802302380ADF80210BDF802306F
:10380000ADF80230BDF802302380ADF80250BDF8AB
:103810000230ADF80230BDF802302380ADF802105E
:10382000BDF80210ADF80210BDF802102180ADF80D
:103830000250BDF80210ADF80210BDF80210218050
:10384000ADF80220BDF80210ADF80210BDF802106C
:103850002180ADF80250BDF80210ADF80210BDF89D
:1038600002102180ADF80200BDF802106220ADF810
:103870000210BDF8021024F8021CADF80200BDF8D9
:1038800002100520ADF80210BDF802102180ADF83D
:103890000250BDF80210ADF80210BDF802102180F0
:1038A000ADF80200BDF802108420ADF80210BDF89A
:1038B00002102180ADF80250BDF80210ADF80210E0
:1038C000BDF802102180ADF80200BDF80210F02012
:1038D000ADF80210BDF802102180ADF80250BDF81D
:1038E0000210ADF80210BDF802102180ADF8020000
:1038F000BDF802105020ADF80210BDF80210218072
:10390000ADF80250BDF80210ADF80210BDF802107B
:1039100021801821ADF80210BDF80230ADF8023058
:10392000BDF802302380ADF80250BDF80230ADF88A
:103930000230BDF802302380A423ADF80230BDF878
:103940000230ADF80230BDF802302380ADF80250ED
:10395000BDF80230ADF80230BDF802302380ADF87A
:103960000210BDF80210ADF80210BDF8021021805F
:10397000ADF80250BDF80210ADF80210BDF802100B
:103980002180ADF80200BDF80210F320ADF802105E
:10399000BDF802102180ADF80250BDF80210ADF85C
:1039A0000210BDF8021021800C21ADF80210BDF804
:1039B0000210ADF80210BDF802102180ADF80250DF
:1039C000BDF80210ADF80210BDF8021021801721D9
:1039D000ADF80210BDF80230ADF80230BDF802308B
:1039E0002380ADF80250BDF80230ADF80230BDF8CA
:1039F000023023809523ADF80230BDF80230ADF8D7
:103A00000230BDF802302380ADF80250BDF802301C
:103A1000ADF80230BDF802302380ADF80200BDF8E9
:103A20000230E620ADF80230BDF802302380ADF858
:103A30000250BDF80230ADF80230BDF802302380EC
:103A4000ADF80200BDF802304420ADF80230BDF8F8
:103A500002302380ADF80250BDF80230ADF80230DC
:103A6000BDF802302380C523ADF80230BDF8023026
:103A7000ADF80230BDF8023024F8023CADF802B0D7
:103A8000BDF802304FF0520BADF80230BDF80230F5
:103A90002380ADF80250BDF80230ADF80230BDF819
:103AA00002302380ADF80200BDF802307620ADF878
:103AB0000230BDF802302380ADF80250BDF802306C
:103AC000ADF80230BDF8023023806523ADF8023036
:103AD000BDF80230ADF80230BDF802302380ADF8F9
:103AE0000250BDF80230ADF80230BDF8023023803C
:103AF000ADF80200BDF802308820ADF80230BDF804
:103B000002302380ADF80250BDF80230ADF802302B
:103B1000BDF802302380ADF80200BDF80230C620A7
:103B2000ADF80230BDF802302380ADF80250BDF888
:103B30000230ADF80230BDF802302380ADF802004B
:103B4000BDF802300120ADF80230BDF8023024F893
:103B5000023CADF802A0BDF80220A823ADF8022077
:103B6000BDF802202280ADF80250BDF80220ADF869
:103B70000220BDF802202280ADF80210BDF802102C
:103B8000B922ADF80210BDF802102180ADF8025044
:103B9000BDF80210ADF80210BDF802102180ADF89A
:103BA0000200BDF80210C720ADF80210BDF80210E7
:103BB0002180ADF80250BDF80210ADF80210BDF83A
:103BC00002102180ADF80200BDF80210E020ADF82F
:103BD0000210BDF8021024F8021CADF80250BDF826
:103BE0000210ADF80210BDF802102180ADF80250AD
:103BF000BDF80210ADF80210BDF802102180ADF83A
:103C00000250BDF80210ADF80210BDF8021021807C
:103C1000ADF80250BDF80210ADF80210BDF8021068
:103C20002180C821ADF80210BDF80210ADF80210D5
:103C3000BDF8021024F8021CADF80250BDF80210C5
:103C4000ADF80210BDF802102180ADF80250BDF8A9
:103C50000210ADF80210BDF802102180ADF802503C
:103C6000BDF80210ADF80210BDF802102180ADF8C9
:103C70000250BDF80210ADF80210BDF8021021800C
:103C8000C921ADF80210BDF80210ADF80210BDF860
:103C9000021024F8021CADF80250BDF80210ADF875
:103CA0000210BDF802102180ADF80250BDF80210DC
:103CB000ADF80210BDF802102180ADF80250BDF839
:103CC0000210ADF80210BDF802102180ADF80250CC
:103CD000BDF80210ADF80210BDF802102180ADF859
:103CE0000250BDF80210ADF80210BDF8021021809C
:103CF000ADF80250BDF80210ADF80210BDF8021088
:103D00002180ADF80250BDF80210ADF80210BDF8E8
:103D100002102180ADF80250BDF80210ADF802107B
:103D2000BDF802102180ADF80250BDF80210ADF8C8
:103D30000210BDF802102180ADF80250BDF802104B
:103D4000ADF80210BDF802102180ADF80250BDF8A8
:103D50000210ADF80210BDF802102180ADF802503B
:103D6000BDF80210ADF80210BDF802102180ADF8C8
:103D70000250BDF80210ADF80210BDF8021021800B
:103D8000ADF80250BDF80210ADF80210BDF80210F7
:103D90002180ADF80250BDF80210ADF80210BDF858
:103DA00002102180ADF80250BDF80210ADF80210EB
:103DB000BDF802102180ADF80200BDF802101C20F1
:103DC000ADF80210BDF8021024F8021CADF8026034
:103DD000BDF80210ADF80210BDF802102180ADF858
:103DE0000250BDF80210ADF80210BDF8021021809B
:103DF000ADF80200BDF80210ADF80210BDF80210D7
:103E00002180ADF80250BDF80210ADF80210BDF8E7
:103E100002102180ADF80290BDF802004FF0640955
:103E2000ADF80200BDF80200CA212080ADF80250B2
:103E3000BDF80200ADF80200BDF802002080362077
:103E4000ADF80200BDF80200ADF80200BDF80200B6
:103E50002080ADF80250BDF80200ADF80200BDF8B8
:103E6000020020804620ADF80200BDF80200ADF847
:103E70000200BDF802002080ADF80250BDF802003B
:103E8000ADF80200BDF802002080ADF802B0BDF828
:103E90000200ADF80200BDF802002080ADF802502B
:103EA000BDF80200ADF80200BDF802002080ADF8B8
:103EB0000290BDF80200ADF80200BDF802002080BB
:103EC000ADF80250BDF80200ADF80200BDF80200E6
:103ED0002080ADF80280BDF80200ADF80200BDF808
:103EE00002002080ADF80250BDF80200ADF80200DB
:103EF000BDF802002080ADF802E0BDF80200ADF888
:103F00000200BDF802002080ADF80250BDF80200AA
:103F1000ADF80200BDF8020020809920ADF8020043
:103F2000BDF80200ADF80200BDF802002080ADF837
:103F30000250BDF80200ADF80200BDF8020020807A
:103F4000ADF80230BDF80200ADF80200BDF8020085
:103F50002080ADF80250BDF80200ADF80200BDF8B7
:103F600002002080ADF80220BDF80200ADF802008A
:103F7000BDF802002080ADF80250BDF80200ADF897
:103F80000200BDF802002080ADF802C0BDF80200BA
:103F9000ADF80200BDF802002080ADF80250BDF877
:103FA0000200ADF80200BDF802002080ADF802105A
:103FB000BDF80200ADF80200BDF802002080ADF8A7
:103FC0000250BDF80200ADF80200BDF802002080EA
:103FD000D220ADF80200BDF802A0ADF802A0BDF8F5
:103FE00002704FF0F30A2780ADF80250BDF802705E
:103FF000ADF80270BDF802702780D927ADF80270C5
:10400000BDF80270ADF80270BDF802702780ADF8FF
:104010000250BDF80270ADF80270BDF80270278042
:10402000E027ADF80270BDF80270ADF80270BDF87F
:1040300002702780ADF80250BDF80270ADF8027032
:10404000BDF802702780ADF802A0BDF80270ADF88F
:104050000270BDF802702780ADF80250BDF8027002
:10406000ADF80270BDF802702780E127ADF802704C
:10407000BDF80270ADF80270BDF8027024F8027C41
:10408000ADF80260BDF80260ADF80260BDF80260F4
:104090002680ADF80250BDF80260ADF80260BDF8B0
:1040A000026026801C26ADF80260BDF80260ADF803
:1040B0000260BDF802602680ADF80250BDF80260D3
:1040C000ADF80260BDF8026026802226ADF80260DD
:1040D000BDF80260ADF80260BDF802602680ADF860
:1040E0000250BDF80260ADF80260BDF802602680A3
:1040F0003626ADF80260BDF80260ADF80260BDF88A
:1041000002602680ADF80250BDF80260ADF8026092
:10411000BDF8026026804526ADF80260BDF8026059
:10412000ADF80260BDF802602680ADF80250BDF81F
:104130000260ADF80260BDF802602680ADF802B002
:10414000BDF80270D126ADF80270BDF802704FF0D4
:10415000DD0B2780ADF80250BDF80270ADF802709B
:10416000BDF802702780ADF80290BDF802704FF0E4
:104170009709ADF80270BDF802702780ADF80250C3
:10418000BDF80270ADF80270BDF802702780ADF87E
:104190000280BDF802704FF00508ADF80270BDF85E
:1041A00002702780ADF80250BDF80270ADF80270C1
:1041B000BDF802702780ADF802E0BDF802704FF044
:1041C000880EADF80270BDF802702780ADF802507D
:1041D000BDF80270ADF80270BDF802702780992713
:1041E000ADF80270BDF80270ADF80270BDF8027053
:1041F0002780ADF80250BDF80270ADF80270BDF82E
:1042000002702780ADF80230BDF80230C227ADF849
:104210000230BDF802302380ADF80250BDF8023004
:10422000ADF80230BDF802302380ADF80220BDF8B1
:104230000220A623ADF80220BDF802202280ADF8AE
:104240000250BDF80220ADF80220BDF80220228005
:10425000ADF802C0BDF802204FF0F30CADF802201B
:10426000BDF802202280ADF80250BDF80220ADF862
:104270000220BDF802202280ADF80210BDF8021025
:10428000C722ADF80210BDF802102180ADF802502F
:10429000BDF80210ADF80210BDF802102180ADF893
:1042A0000200BDF80200B721ADF80200BDF802001F
:1042B0002080ADF80250BDF80200ADF80200BDF854
:1042C00002002080D820ADF80200BDF80200ADF851
:1042D0000200BDF802002080ADF80250BDF80200D7
:1042E000ADF80200BDF802002080E020ADF8020029
:1042F000BDF80200ADF80200BDF802002080ADF864
:104300000250BDF80200ADF80200BDF802002080A6
:10431000ADF802A0BDF802004FF0440AADF802006B
:10432000BDF802002080ADF80250BDF80200ADF8E3
:104330000200BDF802002080E220ADF80200BDF8C6
:104340000200ADF80200BDF8020024F8020CADF83E
:104350000280BDF80200ADF80200BDF80200208026
:10436000ADF80250BDF80200ADF80200BDF8020041
:1043700020800B20ADF80200BDF80200ADF802006D
:10438000BDF802002080ADF80250BDF80200ADF883
:104390000200BDF8020020801B20ADF80200BDF82D
:1043A0000200ADF80200BDF802002080ADF8025016
:1043B000BDF80200ADF80200BDF8020020803420F4
:1043C000ADF80200BDF80200ADF80200BDF8020031
:1043D0002080ADF80250BDF80200ADF80200BDF833
:1043E00002002080ADF802A0BDF80200ADF8020086
:1043F000BDF802002080ADF80250BDF80200ADF813
:104400000200BDF8020020804F20ADF80200BDF888
:104410000200ADF80200BDF802002080ADF80250A5
:10442000BDF80200ADF80200BDF802002080612056
:10443000ADF80200BDF80200ADF80200BDF80200C0
:104440002080ADF80250BDF80200ADF80200BDF8C2
:10445000020020807920ADF80200BDF80200ADF81E
:104460000200BDF802002080ADF80250BDF8020045
:10447000ADF80200BDF802002080ADF802E0BDF802
:104480000200ADF80200BDF802002080ADF8025035
:10449000BDF80200ADF80200BDF802002080ADF8C2
:1044A0000290BDF80200ADF80200BDF802002080C5
:1044B000ADF80250BDF80200ADF80200BDF80200F0
:1044C0002080ADF80230BDF80200ADF80200BDF862
:1044D00002002080ADF80250BDF80200ADF80200E5
:1044E000BDF802002080ADF80210BDF80200ADF862
:1044F0000200BDF802002080ADF80250BDF80200B5
:10450000ADF80200BDF802002080ADF80270BDF8E1
:104510000200ADF80200BDF802002080ADF80250A4
:10452000BDF80200ADF80200BDF802002080ADF831
:104530000220BDF80200ADF80200BDF802002080A4
:10454000ADF80250BDF80200ADF80200BDF802005F
:104550002080ADF80260BDF80200ADF80200BDF8A1
:1045600002002080ADF80250BDF80200ADF8020054
:10457000BDF802002080D620ADF80200BDF8020090
:10458000ADF80200BDF802002080ADF80250BDF881
:104590000200ADF80200BDF802002080DD20ADF879
:1045A0000200BDF80200ADF80200BDF80200208054
:1045B000ADF80250BDF80200ADF80200BDF80200EF
:1045C0002080ADF802C0BDF80200ADF80200BDF8D1
:1045D00002002080ADF80250BDF80200ADF80200E4
:1045E000BDF802002080E320ADF80200BDF8020013
:1045F000ADF80200BDF8020024F8020CADF802800C
:10460000BDF802004FF09308ADF80200BDF80200BB
:104610002080ADF80250BDF80200ADF80200BDF8F0
:10462000020020800A20ADF80200BDF80200ADF8BB
:104630000200BDF802002080ADF80250BDF8020073
:10464000ADF80200BDF8020020801C20ADF8020089
:10465000BDF80200ADF80200BDF802002080ADF800
:104660000250BDF80200ADF80200BDF80200208043
:104670003320ADF80200BDF80200ADF80200BDF82D
:1046800002002080ADF80250BDF80200ADF8020033
:10469000BDF802002080ADF802A0BDF802004FF086
:1046A000740AADF80200BDF802002080ADF8025097
:1046B000BDF80200ADF80200BDF8020020805020D5
:1046C000ADF80200BDF80200ADF80200BDF802002E
:1046D0002080ADF80250BDF80200ADF80200BDF830
:1046E000020020806220ADF80200BDF80200ADF8A3
:1046F0000200BDF802002080ADF80250BDF80200B3
:10470000ADF80200BDF8020020807820ADF802006C
:10471000BDF80200ADF80200BDF802002080ADF83F
:104720000250BDF80200ADF80200BDF80200208082
:10473000ADF802E0BDF802004FF0C40EADF8020083
:10474000BDF802002080ADF80250BDF80200ADF8BF
:104750000200BDF802002080ADF80290BDF8020012
:104760004FF08409ADF80200BDF802002080ADF8DA
:104770000250BDF80200ADF80200BDF80200208032
:10478000ADF80230BDF80200ADF80200BDF802003D
:104790002080ADF80250BDF80200ADF80200BDF86F
:1047A00002002080ADF80210BDF802000121ADF832
:1047B0000200BDF802002080ADF80250BDF80200F2
:1047C000ADF80200BDF802002080ADF80270BDF81F
:1047D0000200A227ADF80200BDF802002080ADF86B
:1047E0000250BDF80200ADF80200BDF802002080C2
:1047F000ADF80220BDF80200ADF80200BDF80200DD
:104800002080ADF80250BDF80200ADF80200BDF8FE
:1048100002002080ADF80260BDF80200B326ADF8BA
:104820000200BDF802002080ADF80250BDF8020081
:10483000ADF80200BDF802002080D520ADF80200DE
:10484000BDF80200ADF80200BDF802002080ADF80E
:104850000250BDF80200ADF80200BDF80200208051
:10486000ADF802B0BDF802004FF05D0BADF80200EC
:10487000BDF802002080ADF80250BDF80200ADF88E
:104880000200BDF802002080ADF802C0BDF80200B1
:104890004FF0CD0CADF80200BDF802002080ADF85D
:1048A0000250BDF80200ADF80200BDF80200208001
:1048B000E420ADF80200BDF80200ADF80200BDF83A
:1048C000020024F8020CADF80210BDF80200ADF8A9
:1048D0000200BDF802002080ADF80250BDF80200D1
:1048E000ADF80200BDF802002080ADF80210BDF85E
:1048F0000200ADF80200BDF802002080ADF80250C1
:10490000BDF80200ADF80200BDF8020020800220D0
:10491000ADF80200BDF80200ADF80200BDF80200DB
:104920002080ADF80250BDF80200ADF80200BDF8DD
:10493000020020802A20ADF80200BDF80200ADF888
:104940000200BDF802002080ADF80250BDF8020060
:10495000ADF80200BDF8020020803C20ADF8020056
:10496000BDF80200ADF80200BDF802002080ADF8ED
:104970000250BDF80200ADF80200BDF80200208030
:104980004B20ADF80200BDF80200ADF80200BDF802
:1049900002002080ADF80250BDF80200ADF8020020
:1049A000BDF802002080ADF802B0BDF80200ADF8FD
:1049B0000200BDF802002080ADF80250BDF80200F0
:1049C000ADF80200BDF802002080ADF802A0BDF8ED
:1049D0000200ADF80200BDF802002080ADF80250E0
:1049E000BDF80200ADF80200BDF802002080ADF86D
:1049F0000290BDF80200ADF80200BDF80200208070
:104A0000ADF80250BDF80200ADF80200BDF802009A
:104A10002080ADF80280BDF80200ADF80200BDF8BC
:104A200002002080ADF80250BDF80200ADF802008F
:104A3000BDF802002080ADF80270BDF80200ADF8AC
:104A40000200BDF802002080ADF80250BDF802005F
:104A5000ADF80200BDF802002080ADF80260BDF89C
:104A60000200ADF80200BDF802002080ADF802504F
:104A7000BDF80200ADF80200BDF802002080BE20A3
:104A8000ADF80200BDF80210ADF80210BDF802103A
:104A90002180ADF80250BDF80210ADF80210BDF84B
:104AA00002102180ADF802E0BDF80210ADF802104E
:104AB000BDF802102180ADF80250BDF80210ADF82B
:104AC0000210BDF802102180ADF802C0BDF802202E
:104AD000DD21ADF80220BDF802202280ADF80250A1
:104AE000BDF80220ADF80220BDF802202280D322BA
:104AF000ADF80220BDF80230ADF80230BDF802304A
:104B00002380ADF80250BDF80230ADF80230BDF898
:104B100002302380ADF80210BDF80230F321ADF869
:104B20000230BDF802302380ADF80250BDF80230EB
:104B3000ADF80230BDF802302380ADF80210BDF8A8
:104B40000230ADF80230BDF802302380ADF80250DB
:104B5000BDF80230ADF80230BDF802302380E52305
:104B6000ADF80230BDF80230ADF80230BDF80230C9
:104B700024F8023CADF80250BDF80230ADF8023026
:104B8000BDF802302380ADF80250BDF80230ADF818
:104B90000230BDF802302380ADF80250BDF802307B
:104BA000ADF80230BDF802302380ADF80250BDF8F8
:104BB0000230ADF80230BDF8023023800223ADF898
:104BC0000230BDF80230ADF80230BDF8023023806B
:104BD000ADF80250BDF80230ADF80230BDF8023039
:104BE00023802923ADF80230BDF80230ADF8023041
:104BF000BDF802302380ADF80250BDF80230ADF8A8
:104C00000230BDF8023023803C23ADF80230BDF8FD
:104C10000230ADF80230BDF802302380ADF802500A
:104C2000BDF80230ADF80230BDF8023023804B23CE
:104C3000ADF80230BDF80230ADF80230BDF80230F8
:104C40002380ADF80250BDF80230ADF80230BDF857
:104C500002302380ADF802B0BDF802304FF0F30B04
:104C6000ADF80230BDF802302380ADF80250BDF837
:104C70000230ADF80230BDF802302380ADF802A05A
:104C8000BDF802304FF0560AADF80230BDF80230E0
:104C90002380ADF80250BDF80230ADF80230BDF807
:104CA00002302380ADF80290BDF802304FF0550974
:104CB000ADF80230BDF802302380ADF80250BDF8E7
:104CC0000230ADF80230BDF802302380ADF802802A
:104CD000BDF802304FF07708ADF80230BDF8023071
:104CE0002380ADF80250BDF80230ADF80230BDF8B7
:104CF00002302380ADF80270BDF802304427ADF8D1
:104D00000230BDF802302380ADF80250BDF8023009
:104D1000ADF80230BDF802302380ADF80260BDF876
:104D200002304526ADF80230BDF802302380ADF8E0
:104D30000250BDF80230ADF80230BDF802302380D9
:104D4000ADF80200BDF802007623ADF80200BDF810
:104D500002002080ADF80250BDF80200ADF802005C
:104D6000BDF802002080ADF802E0BDF802004FF06F
:104D7000BB0EADF80200BDF802002080ADF8025075
:104D8000BDF80200ADF80200BDF802002080ADF8C9
:104D900002C0BDF802004FF0110CADF80200BDF8E2
:104DA00002002080ADF80250BDF80200ADF802000C
:104DB000BDF802002080ADF80220BDF80200662296
:104DC000ADF80200BDF802002080ADF80250BDF839
:104DD0000200ADF80200BDF802002080DC20ADF832
:104DE0000200BDF80200ADF80200BDF8020020800C
:104DF000ADF80250BDF80200ADF80200BDF80200A7
:104E00002080ADF80210BDF802009921ADF8020033
:104E1000BDF802002080ADF80250BDF80200ADF8E8
:104E20000200BDF802002080E620ADF80200BDF8C7
:104E30000200ADF80200BDF8020024F8020CADF843
:104E400002C0BDF80200ADF80200BDF802002080EB
:104E5000ADF80250BDF80200ADF80200BDF8020046
:104E600020803420ADF80200BDF80200ADF8020049
:104E7000BDF802002080ADF80250BDF80200ADF888
:104E80000200BDF802002080ADF802A0BDF80200CB
:104E9000ADF80200BDF802002080ADF80250BDF868
:104EA0000200ADF80200BDF802002080ADF802302B
:104EB000BDF80200ADF80200BDF802002080ADF898
:104EC0000250BDF80200ADF80200BDF802002080DB
:104ED000ADF80280BDF80200ADF80200BDF8020096
:104EE0002080ADF80250BDF80200ADF80200BDF818
:104EF00002002080ADF80220BDF80200ADF80200EB
:104F0000BDF802002080ADF80250BDF80200ADF8F7
:104F10000200BDF8020020808820ADF80200BDF834
:104F20000200ADF80200BDF802002080ADF802508A
:104F3000BDF80200ADF80200BDF802002080ADF817
:104F40000210BDF80200ADF80200BDF8020020809A
:104F5000ADF80250BDF80200ADF80200BDF8020045
:104F60002080ADF802E0BDF80200ADF80200BDF807
:104F700002002080ADF80250BDF80200ADF802003A
:104F8000BDF802002080ADF80210BDF80200ADF8B7
:104F90000200BDF802002080ADF80250BDF802000A
:104FA000ADF80200BDF802002080ADF80220BDF887
:104FB0000200ADF80200BDF802002080ADF80250FA
:104FC000BDF80200ADF80200BDF802002080ADF887
:104FD0000290BDF80200ADF80200BDF8020020808A
:104FE000ADF80250BDF80200ADF80200BDF80200B5
:104FF0002080ADF80290BDF80200ADF80200BDF8C7
:1050000002002080ADF80250BDF80200ADF80200A9
:10501000BDF802002080ADF80260BDF80200ADF8D6
:105020000200BDF802002080ADF80250BDF8020079
:10503000ADF80200BDF8020020804320ADF8020068
:10504000BDF80200ADF80200BDF802002080ADF806
:105050000250BDF80200ADF80200BDF80200208049
:10506000ADF80270BDF80200ADF80200BDF8020014
:105070002080ADF80250BDF80200ADF80200BDF886
:1050800002002080E720ADF80200BDF80200ADF874
:105090000200BDF8020024F8020C3220ADF8020034
:1050A000BDF80200ADF80200BDF802002080ADF8A6
:1050B0000250BDF80200ADF80200BDF802002080E9
:1050C000ADF80290BDF80200ADF80200BDF8020094
:1050D0002080ADF80250BDF80200ADF80200BDF826
:1050E00002002080ADF80230BDF80200ADF80200E9
:1050F000BDF802002080ADF80250BDF80200ADF806
:105100000200BDF802002080ADF80220BDF80200C8
:10511000ADF80200BDF802002080ADF80250BDF8E5
:105120000200ADF80200BDF8020020806720ADF853
:105130000200BDF80230ADF80230BDF80230238025
:10514000ADF80250BDF80230ADF80230BDF80230C3
:105150002380ADF80200BDF80200ADF80200BDF8F2
:1051600002002080ADF80250BDF80200ADF8020048
:10517000BDF8020020808720ADF80200BDF80230A3
:10518000ADF80230BDF802302380ADF80250BDF812
:105190000230ADF80230BDF802302380ADF80210C5
:1051A000BDF80230ADF80230BDF802302380ADF812
:1051B0000250BDF80230ADF80230BDF80230238055
:1051C000ADF802E0BDF80230ADF80230BDF80230B3
:1051D0002380ADF80250BDF80230ADF80230BDF8C2
:1051E00002302380ADF80210BDF80230ADF8023075
:1051F000BDF802302380ADF80250BDF80230ADF8A2
:105200000230BDF802302380ADF80280BDF80230D4
:10521000ADF80230BDF802302380ADF80250BDF881
:105220000230ADF80230BDF802302380ADF80270D4
:10523000BDF802302927ADF80230BDF802302380D6
:10524000ADF80250BDF80230ADF80230BDF80230C2
:105250002380ADF802A0BDF80230ADF80230BDF8F1
:1052600002302380ADF80250BDF80230ADF80230B4
:10527000BDF8023023802323ADF80230BDF80230A0
:10528000ADF80230BDF802302380ADF80250BDF811
:105290000230ADF80230BDF8023023803323ADF880
:1052A0000230BDF80230ADF80230BDF80230238084
:1052B000ADF80250BDF80230ADF80230BDF8023052
:1052C0002380ADF80260BDF80230ADF80230BDF8C1
:1052D00002302380ADF80250BDF80230ADF8023044
:1052E000BDF802302380E823ADF80230BDF802306B
:1052F000ADF80230BDF8023024F8023CADF802509F
:10530000BDF80230ADF80230BDF802302380ADF8B0
:105310000250BDF80230ADF80230BDF802302380F3
:10532000ADF80210BDF80230ADF80230BDF8023021
:105330002380ADF80250BDF80230ADF80230BDF860
:1053400002302380ADF80200BDF802008823ADF8DA
:105350000200BDF802002080ADF80250BDF8020046
:10536000ADF80200BDF802002080ADF80230BDF8B3
:105370000200ADF80200BDF802002080ADF8025036
:10538000BDF80200ADF80200BDF802002080ADF8C3
:105390000280BDF80200ADF80200BDF802002080D6
:1053A000ADF80250BDF80200ADF80200BDF80200F1
:1053B0002080ADF80220BDF80200ADF80200BDF873
:1053C00002002080ADF80250BDF80200ADF80200E6
:1053D000BDF802002080ADF80230BDF80200AA231B
:1053E000ADF80200BDF802002080ADF80250BDF813
:1053F0000200ADF80200BDF802002080ADF80230D6
:10540000BDF80200ADF80200BDF802002080ADF842
:105410000250BDF80200ADF80200BDF80200208085
:10542000ADF802E0BDF80200ADF80200BDF80200E0
:105430002080ADF80250BDF80200ADF80200BDF8C2
:1054400002002080ADF80210BDF802004421ADF842
:105450000200BDF802002080ADF80250BDF8020045
:10546000ADF80200BDF802002080ADF80220BDF8C2
:105470000200ADF80200BDF802002080ADF8025035
:10548000BDF80200ADF80200BDF802002080ADF8C2
:105490000290BDF80200ADF80200BDF802002080C5
:1054A000ADF80250BDF80200ADF80200BDF80200F0
:1054B0002080ADF80290BDF80200ADF80200BDF802
:1054C00002002080ADF80250BDF80200ADF80200E5
:1054D000BDF802002080ADF80210BDF80200ADF862
:1054E0000200BDF802002080ADF80250BDF80200B5
:1054F000ADF80200BDF802002080ADF80210BDF842
:105500000200AA21ADF80200BDF802002080ADF82B
:105510000250BDF80200ADF80200BDF80200208084
:10552000ADF80290BDF80200ADF80200BDF802002F
:105530002080ADF80250BDF80200ADF80200BDF8C1
:1055400002002080E920ADF80200BDF80200ADF8AD
:105550000200BDF8020024F8020CADF80230BDF8DC
:105560000200ADF80200BDF802002080ADF8025044
:10557000BDF80200ADF80200BDF802002080ADF8D1
:105580000250BDF80200ADF80200BDF80200208014
:10559000ADF80250BDF80200ADF80200BDF80200FF
:1055A0002080ADF80250BDF80200ADF80200BDF851
:1055B000020024F8020CADF80210BDF80200ADF8AC
:1055C0000200BDF802002080CF20ADF80200BDF837
:1055D0000200ADF80200BDF8020024F8020CADF89C
:1055E0000250BDF80200ADF80200BDF802002080B4
:1055F000ADF80250BDF80200ADF80200BDF802009F
:105600002080ADF80250BDF80200ADF80200BDF8F0
:1056100002002080ADF80250BDF80200ADF8020093
:10562000BDF802002080ADF80250BDF80200ADF8D0
:105630000200BDF802002080ADF80250BDF8020063
:10564000ADF80200BDF802002080ADF80250BDF8B0
:105650000200ADF80200BDF802002080ADF8025053
:10566000BDF80200ADF80200BDF802002080ADF8E0
:105670000250BDF80200ADF80200BDF80200208023
:10568000ADF80250BDF80200ADF80200BDF802000E
:105690002080ADF80250BDF80200ADF80200BDF860
:1056A00002002080ADF80250BDF80200ADF8020003
:1056B000BDF802002080ADF80250BDF80200ADF840
:1056C0000200BDF802002080ADF80250BDF80200D3
:1056D000ADF80200BDF802002080ADF80250BDF820
:1056E0000200ADF80200BDF802002080ADF80250C3
:1056F000BDF80200ADF80200BDF802002080ADF850
:105700000250BDF80200ADF80200BDF80200208092
:10571000F020ADF80200BDF80200ADF80200BDF8BF
:10572000020024F8020CADF80250BDF80200ADF8FA
:105730000200BDF8020020805020ADF80200BDF844
:105740000200ADF80200BDF802002080ADF8025062
:10575000BDF80200ADF80200BDF802002080ADF8EF
:105760000250BDF80200ADF80200BDF80200208032
:10577000ADF80250BDF80200ADF80200BDF802001D
:105780002080ADF802B0BDF80200ADF80200BDF80F
:10579000020024F8020CADF80250BDF80200ADF88A
:1057A0000200BDF802002080F920ADF80200BDF82B
:1057B0000200ADF80200BDF8020024F8020C062039
:1057C000ADF80200BDF80200ADF80200BDF802001D
:1057D00020801020ADF80200BDF80200ADF80200F4
:1057E000BDF802002080ADF80270BDF80200ADF8EF
:1057F0000200BDF802002080ADF80250BDF80200A2
:10580000ADF80200BDF8020020803A20ADF8020099
:10581000BDF80200ADF80200BDF8020024F8020C49
:10582000ADF80290BDF80200ADF80200BDF802002C
:105830002080ADF802C0BDF80200ADF80200BDF84E
:10584000020024F8020C6420FAF7D8FDADF80270CB
:10585000BDF802002C21ADF80200BDF8020024F8CA
:10586000020C3520ADF80200BDF80200ADF80200D0
:10587000BDF8020024F8020CADF80250BDF8020099
:10588000ADF80200BDF8020020805120ADF8020002
:10589000BDF80200ADF80200BDF8020024F8020CC9
:1058A000FF20ADF80200BDF80200ADF80200BDF81F
:1058B000020020805320ADF80200BDF80200ADF8D0
:1058C0000200BDF8020024F8020CADF80210BDF889
:1058D0000200ADF80200BDF802002080ADF8029091
:1058E000BDF80200ADF80200BDF8020024F8020C79
:1058F0008220ADF80200BDF80200ADF80200BDF84C
:1059000002002080ADF80210BDF80200ADF80200E0
:10591000BDF8020024F8020C01B0BDE8F08F0000D1
:105920002DE9F04F89B07E24C6F600444FF4704054
:105930002080552060804FF20100CFF6FF70AA2131
:1059400020806180411C0691218052216180811C50
:105950000591218008216180C11C4FF0010C4FF49A
:10596000364004912180A4F802C020804BF20250FE
:10597000CFF6FF70342100F1FF026180228000F534
:105980008072618022804FF430424BF201036180CB
:1059900022800D22CFF6FF734BF2017662802380C6
:1059A0005F1C1D464FF43743CFF6FF7662800397A6
:1059B0002780628023802423771C63802680638075
:1059C00027804FF431476380278005F58077628018
:1059D00027804BF202176280278062804FF43842A2
:1059E000228006F580724BF60206638002922280C6
:1059F000CFF6FF764FF432426380268063802280A8
:105A000000224FF439476280278006F1FF07638048
:105A1000278006F580776380278063804FF43343C7
:105A200023804BF20133CFF6FF7305275E1C67809E
:105A300023806780268067804FF43A4727804BF6A3
:105A40000147CFF6FF77A7F5007661802680A7F2A1
:105A5000FF166180268061804FF4354121800B2143
:105A600003F5007361802380618020804FF43C4007
:105A70004BF6024361802080A320CFF6FF734FF4E2
:105A80003D4162802780608023806280218003F115
:105A9000FF01628001912180608003F58070009099
:105AA00020804FF43E40628020804BF60350CFF6BA
:105AB000FF70FE306280208037214FF451406180BA
:105AC00020804CF60140CFF6FF7000F5A0606280A8
:105AD00020804DF20210CFF6FF706180411C2080C3
