:020000040800F2
:10000000C08A00209D01000811260008F92200087E
:100010000D260008550700084131000800000000C7
:10002000000000000000000000000000F1260008B1
:10003000590700080000000081260008D9270008A1
:10004000B7010008B7010008B7010008B7010008B0
:10005000B7010008B7010008B7010008B7010008A0
:10006000B7010008B7010008B7010008B701000890
:10007000B7010008B7010008B7010008B701000880
:10008000B7010008B7010008B7010008B701000870
:10009000B7010008B7010008B7010008B701000860
:1000A000B7010008B7010008B7010008B701000850
:1000B000B7010008B7010008B7010008B701000840
:1000C000B7010008B7010008B7010008B701000830
:1000D000B7010008B7010008B7010008B701000820
:1000E000B7010008B7010008B7010008B701000810
:1000F000B7010008B7010008B7010008B701000800
:10010000B7010008B7010008C9280008B7010008B6
:10011000B7010008B70100088D290008B7010008E1
:10012000B7010008B7010008B7010008B7010008CF
:10013000B7010008B7010008B7010008B7010008BF
:10014000B7010008B7010008B7010008B7010008AF
:10015000B7010008B7010008B7010008B70100089F
:10016000B7010008B7010008B7010008B70100088F
:10017000B7010008B7010008B7010008000000003F
:10018000B7010008B7010008DFF80CD000F0CAFA88
:1001900000480047BD320008C08A0020064880475A
:1001A00006480047FEE7FEE7FEE7FEE7FEE7FEE75C
:1001B000FEE7FEE7FEE7FEE7B52800088901000834
:1001C0002DE9F05F0546002092469B46884606468C
:1001D000814640241BE0284641464746224600F01F
:1001E000F1F953465A46C01A914110D311461846A8
:1001F000224600F0D8F92D1A67EB01084F46224637
:100200000120002100F0CFF917EB00094E41201E1C
:10021000A4F10104DFDC484631462A464346BDE8E6
:10022000F09F40EA01039B0703D009E008C9121FB1
:1002300008C0042AFAD203E011F8013B00F8013BA0
:10024000521EF9D27047D2B201E000F8012B491ECC
:10025000FBD270470022F6E710B513460A46044663
:100260001946FFF7F0FF204610BD2DE9FE4F8046EE
:1002700081EA0300C00F0C46009021F0004123F0FA
:100280000045B8EB0200A94105D240462146904600
:100290001C460B46024623F00040104347D0270D72
:1002A000C7F30A00C3F30A510290401A0190402894
:1002B0006BDAC3F3130040F4801B0098924620B120
:1002C0000023D2EB030A63EB0B0B01985946C0F1F4
:1002D0004002504600F067F906460D465046594622
:1002E000019A00F07FF910EB08006141002487EAD1
:1002F000115284EAE7731A4340D0009A62B3019A1C
:10030000012A4FEA075215DC001B61EB02014FF096
:10031000004202EA0752CDE90042001C41F580117B
:1003200032462B4600F07FF903B0BDE8F08F40461F
:100330002146F9E7001B61EB0201001C41F5801327
:1003400000185B412018A2F5001747EB030140EAB3
:10035000D570B6196D4111E06D084FEA360645EAD1
:10036000C0754FEA0752001B61EB0201001C41F50A
:10037000801149084FEA30000019514132462B469E
:1003800003B0BDE8F04F00F03FB9009801224000F3
:100390000023D0EB020263EBE073009821464FEAA2
:1003A000E074B8EB000061EB0401E9E783F000437F
:1003B0005BE781F0004158E72DE9FE4F81EA030435
:1003C00004F0004421F0004100944FF0000B23F0B2
:1003D000004350EA01045ED052EA03045BD0C3F349
:1003E0000A54C1F30A552C44A4F2F3340194A0FB3F
:1003F0000254C1F3130141F48011C3F3130343F416
:10040000801301FB024400FB034E840A970A44EA6E
:10041000815447EA8357A4FB076802958D0A05FBC0
:1004200007854FEA932C04FB0C542705029D4FEAE5
:10043000065847EA1637B5EB08056EEB070C870E32
:10044000920E47EA811742EA8312A7FB0201B6EB3C
:100450000B0164EB00042B0D43EA0C335E1844EBF4
:100460001C50DA465146E7FB0201C5F313044FEA7C
:100470000B3343EA14534FEA0432019C43EA060368
:10048000A4F10C040294009CCDE900B400F0CBF878
:1004900003B0BDE8F08F00200146F9E72DE9F04DEB
:1004A00081EA030404F0004B21F0004514464FF0AC
:1004B000000A23F0004150EA050220D054EA01026C
:1004C0001DD0C5F30A570246C5F31303C1F3130049
:1004D000C1F30A5640F4801543F48013A7EB0608D5
:1004E000101BD64608F2FD3873EB050002D308F165
:1004F000010801E092185B41B8F1000F03DA002017
:100500000146BDE8F08D00204FF480110646844678
:100510000EE0171B73EB050705D3121B63EB0503F6
:1005200006434CEA010C49084FEA300092185B413F
:1005300050EA0107EDD152EA030012D082EA04002A
:1005400083EA0501084305D0101BAB4106D2012206
:10055000002306E000224FF0004302E06FF00102AA
:1005600053101AEB06004CEB085110EB0A0041EB5C
:100570000B01BDE8F04D00F047B830B50B46014621
:1005800000202022012409E021FA02F59D4205D332
:1005900003FA02F5491B04FA02F52844151EA2F1DC
:1005A0000102F1DC30BD202A04DB203A00FA02F11E
:1005B000002070479140C2F1200320FA03F3194351
:1005C00090407047202A04DB203A21FA02F00021F3
:1005D000704721FA02F3D040C2F120029140084353
:1005E00019467047202A06DBCB17203A41FA02F061
:1005F00043EAE07306E041FA02F3D040C2F1200280
:10060000914008431946704710B5141E73F1000459
:1006100008DA401C41F1000192185B411A4301D1F4
:1006200020F0010010BD2DE9F04D92469B4611B11E
:10063000B1FA81F202E0B0FA80F220329046FFF780
:10064000B2FF04460F4640EA0A0041EA0B01534656
:100650005A46084313D0114653EA010019D0C8F195
:1006600040025046FFF7AEFF05460E46504659463B
:100670004246FFF798FF084305D0012004E02046DA
:100680003946BDE8F08D0020054346EAE0762C436C
:1006900037430A986305E40AA0EB08000022FD0A2C
:1006A00044EA47540A3002D500200146E9E7010533
:1006B00010196941DDE9084500196941BDE8F04DAF
:1006C000A2E7C1F30A52C1F3130140F2FF3341F430
:1006D00080119A4202DA00200146704740F233430B
:1006E0009A42A2F2334202DC5242FFF76BBFFFF79D
:1006F0005ABF000030B5041E71F1000404DB4FF056
:100700000044404264EB0101141E73F1000405DB58
:100710001C464FF00043524263EB0403994208BF6A
:10072000904230BD1CB5094800900948019005462B
:10073000009C06E0E06840F0010394E80700984759
:100740001034AC42F6D3FFF723FD0000E06B000845
:10075000006C0008FFE7FEE77047000072B6FFE795
:10076000FEE700008EB00D900C9100200A900990D9
:1007700008900B90FFE70B980F2800F2CC81FFE761
:100780000B99012088400A900C9800680A9908404B
:10079000099009980A99884240F0B881FFE70C98BF
:1007A000406800F00300012807D0FFE70C9840687C
:1007B00000F0030002282FD1FFE70D988068089011
:1007C0000B984100032000FA01F108988843089033
:1007D0000C98C0680B99490000FA01F10898084389
:1007E000089008980D9988600D98406808900B99BA
:1007F000012000FA01F10898884308900C9840689D
:10080000C0F300100B9900FA01F108980843089012
:1008100008980D994860FFE70C98406800F00300C5
:10082000032818D0FFE70D98C06808900B98410086
:10083000032000FA01F10898884308900C9880681A
:100840000B99490000FA01F10898084308900898AC
:100850000D99C860FFE70C98406800F0030002287B
:1008600026D1FFE70D980B996FF0030202EA5101C0
:100870000844006A08900B9800F0070081000F20E0
:1008800000FA01F10898884308900C9800690B99C8
:1008900001F00701890000FA01F108980843089067
:1008A00008980D990B9B02EA530211440862FFE776
:1008B0000D98006808900B984100032000FA01F1A0
:1008C0000898884308900C98406800F003000B9942
:1008D000490000FA01F108980843089008980D991A
:1008E00008600C9880798007002800F00E81FFE7EF
:1008F000FFE70020079043F64400C4F202000168BD
:1009000041F480410160006800F48040079007983E
:10091000FFE70B9820F0030043F60801C4F2010141
:10092000405808900B9800F0030081000F2000FA57
:1009300001F10898884308900D980021C4F2020143
:10094000884203D1FFE7002006905EE00D9840F258
:100950000041C4F20201884203D1FFE70120059063
:1009600050E00D9840F60001C4F20201884203D124
:10097000FFE70220049042E00D9840F60041C4F2E7
:100980000201884203D1FFE70320039034E00D9871
:1009900041F20001C4F20201884203D1FFE70420C2
:1009A000029026E00D9841F20041C4F20201884213
:1009B00003D1FFE70520019018E00D9841F60001F2
:1009C000C4F20201884203D1FFE7062000900AE04A
:1009D0000D9941F60042C4F202020820914208BF7C
:1009E00007200090FFE700980190FFE70198029030
:1009F000FFE702980390FFE703980490FFE704984D
:100A00000590FFE705980690FFE70698C0B20B999E
:100A100001F00301890000FA01F1089808430890E9
:100A200008980B9921F0030143F60802C4F2010271
:100A3000885043F60840C4F2010000680890099904
:100A40000898884308900C988079C006002805D53E
:100A5000FFE70999089808430890FFE7089843F6CC
:100A60000841C4F20101086043F60C40C4F20100E1
:100A70000068089009990898884308900C98807934
:100A80008006002805D5FFE70999089808430890D3
:100A9000FFE7089843F60C41C4F20101086043F6F1
:100AA0000440C4F20100006808900999089888433E
:100AB00008900C9880798007002805D5FFE70999F0
:100AC000089808430890FFE7089843F60441C4F2E9
:100AD0000101086043F60040C4F20100006808907C
:100AE00009990898884308900C988079C00728B124
:100AF000FFE70999089808430890FFE7089843F62C
:100B00000041C4F201010860FFE7FFE7FFE70B982F
:100B100001300B902FE60EB07047000082B00190BC
:100B2000ADF8021001980069BDF80210084204D027
:100B3000FFE701208DF8010003E000208DF801009F
:100B4000FFE79DF8010002B07047000082B00190FD
:100B5000ADF802108DF801209DF8010028B1FFE7E3
:100B6000BDF802000199886105E0BDF802000004AB
:100B700001998861FFE702B07047000044F2E42069
:100B8000C2F200000068704740F21E00C2F200008E
:100B9000027844F2E421C2F20001086810440860BF
:100BA0007047000080B543F60041C4F202010868B6
:100BB00040F400700860086840F4806008600868CD
:100BC00040F480700860032000F0D0F80F2000F09F
:100BD00005F800F07BF8002080BD000080B58CB0E7
:100BE0000B90002004900390FFE70020009043F654
:100BF0004000C4F20200016841F010010160006889
:100C000000F0100000900098FFE706A802A900F08D
:100C1000E7F909980490049820B9FFE700F010FA6A
:100C2000059004E000F00CFA40000590FFE70598FD
:100C30004DF68361C4F21B31A0FB01014FF0FF3080
:100C400000EB9140039040F2CC00C2F2000041F270
:100C50000001C4F20001016040F2E731C160039974
:100C60004160002101618160816100F07BFE8DF8AF
:100C700007009DF8070028BBFFE740F2CC00C2F256
:100C8000000000F09BFF8DF807009DF80700C0B939
:100C9000FFE7362000F046F80B980F280CD8FFE746
:100CA0000B993620002200F047F80B9840F2200103
:100CB000C2F20001086003E001208DF80700FFE7A1
:100CC000FFE7FFE79DF807000CB080BD80B582B05C
:100CD000FFE70020019043F64400C4F202000168DF
:100CE00041F480410160006800F480400190019867
:100CF000FFE7FFE70020009043F64000C4F2020047
:100D0000016841F080510160006800F0805000905F
:100D10000098FFE76FF001000F21002200F00CF8AF
:100D200002B080BD80B582B08DF807009DF9070044
:100D300002F008FA02B080BD80B586B08DF81700C9
:100D4000049103920020029002F014FA02909DF99F
:100D50001700019002980499039A01F05BFC014688
:100D6000019802F00FFA06B080BD000080B582B095
:100D70000190019802F04AFA02B080BD80B584B0BB
:100D800002900191029820B9FFE701208DF80F0031
:100D900021E1019843F60041C4F20201096801F023
:100DA0000701884212D9FFE7019943F60040C4F2D7
:100DB00002000170006800F007000199884204D029
:100DC000FFE701208DF80F0005E1FFE702980078AA
:100DD000800700282AD5FFE70298007840070028FE
:100DE00009D5FFE743F60801C4F20201086840F4A0
:100DF000E0500860FFE7029800780007002809D556
:100E0000FFE743F60801C4F20201086840F46040BD
:100E10000860FFE743F60801C4F20201086820F009
:100E2000F000029A926810430860FFE70298007889
:100E3000C00700286ED0FFE702984068012811D152
:100E4000FFE743F60000C4F20200006800F400313E
:100E50000020B0EB514F04D1FFE701208DF80F00C7
:100E6000B9E02CE002984068022805D0FFE702981C
:100E70004068032811D1FFE743F60000C4F20200E6
:100E8000006800F000710020B0EB516F04D1FFE763
:100E900001208DF80F009EE010E043F60000C4F240
:100EA0000200006800F002010020B0EB510F04D1F5
:100EB000FFE701208DF80F008DE0FFE7FFE743F625
:100EC0000801C4F20201086820F00300029A526887
:100ED00010430860FFF752FE0090FFE743F608005A
:100EE000C4F20200006800F00C0002994968B0EBFF
:100EF000810F0ED0FFE7FFF741FE0099401A41F243
:100F00008931884204D3FFE703208DF80F0062E0A7
:100F1000E4E7FFE7019843F60041C4F202010968E3
:100F200001F00701884212D2FFE7019943F6004021
:100F3000C4F202000170006800F0070001998842C5
:100F400004D0FFE701208DF80F0044E0FFE702988E
:100F50000078400700280CD5FFE743F60801C4F2EB
:100F60000201086820F4E050029AD2681043086039
:100F7000FFE702980078000700280DD5FFE743F649
:100F80000801C4F20201086820F46040029A126964
:100F900040EAC2000860FFE700F076F843F6080177
:100FA000C4F202010968C9B20A0946F61631C0F650
:100FB0000001895CC84040F20401C2F200010860EF
:100FC00040F22000C2F200000068FFF707FE002098
:100FD0008DF80F00FFE79DF80F0004B080BD000002
:100FE00082B00190009101990F20086043F608003B
:100FF000C4F20200016801F00301019A5160016826
:1010000001F0F001019A9160016801F4E051019A48
:10101000D160006800F46040C0080199086143F69F
:101020000040C4F20200006800F007000099086068
:1010300002B0704740F20400C2F20000006870473E
:1010400080B5FFF7F7FF43F60801C4F20201096813
:10105000C1F3822246F62631C0F60001895CC84001
:1010600080BD000080B5FFF7E5FF43F60801C4F23C
:101070000201096889B24A0B46F62631C0F6000122
:10108000895CC84080BD000080B586B00020059016
:1010900004900390029043F60800C4F20200006836
:1010A00000F00C000146019140B1FFE701980428CF
:1010B0000AD0FFE7019808280CD04FE042F2004028
:1010C000C0F2F40002904FE041F20020C0F27A003A
:1010D000029049E043F60400C4F20200016801F006
:1010E0003F01059100684002002813D5FFE743F651
:1010F0000400C4F202000068C0F3881041F200212D
:10110000C0F27A01A0FB0101059A0023FFF758F80D
:10111000049012E043F60400C4F202000068C0F339
:10112000881042F20041C0F2F401A0FB0101059ACF
:101130000023FFF745F80490FFE743F60400C4F2EC
:101140000200006800F44031022000EBD13003902F
:1011500004980399B0FBF1F0029005E042F20040E0
:10116000C0F2F4000290FFE7029806B080BD0000D4
:1011700080B586B00490049820B9FFE701208DF86F
:10118000170050E304980078C007002800F0A580FD
:10119000FFE743F60800C4F20200006800F00C000C
:1011A000042813D0FFE743F60800C4F202000068E9
:1011B00000F00C0008281ED1FFE743F60400C4F23B
:1011C000020000684002002815D5FFE743F6000042
:1011D000C4F20200006800F400310020B0EB514F6F
:1011E00008D0FFE70498406820B9FFE701208DF898
:1011F000170018E370E0FFE704984068B0F5803FFF
:1012000009D1FFE743F60001C4F20201086840F487
:101210008030086020E004984068B0F5A02F0DD120
:10122000FFE743F60001C4F20201086840F48020A1
:101230000860086840F4803008600CE043F6000164
:10124000C4F20201086820F480300860086820F4C5
:1012500080200860FFE7FFE7FFE704984068E8B1F7
:10126000FFE7FFF78BFC0390FFE743F60000C4F2B3
:101270000200006800F400310020B0EB514F0CD1A7
:10128000FFE7FFF77BFC0399401A652804D3FFE7CB
:1012900003208DF81700C6E2E7E71CE0FFF76EFCBD
:1012A0000390FFE743F60000C4F20200006800F478
:1012B00000310020B0EB514F0CD0FFE7FFF75EFC90
:1012C0000399401A652804D3FFE703208DF817001F
:1012D000A9E2E7E7FFE7FFE7FFE704980078800768
:1012E000002840F19680FFE743F60800C4F20200B0
:1012F000006810F00C0F13D0FFE743F60800C4F2AB
:101300000200006800F00C0008282CD1FFE743F62B
:101310000400C4F2020000684002002823D4FFE762
:1013200043F60000C4F20200006800F00201002051
:10133000B0EB510F09D0FFE70498C068012804D032
:10134000FFE701208DF817006DE243F60001C4F2BB
:101350000201086820F0F800049A126940EAC2000D
:101360000860FFE754E00498C06870B3FFE700210D
:10137000C4F2472101200860FFF700FC0390FFE75B
:1013800043F60000C4F20200006800F002010020F1
:10139000B0EB510F0CD1FFE7FFF7F0FB0399401AB8
:1013A000032804D3FFE703208DF817003BE2E7E7AB
:1013B00043F60001C4F20201086820F0F800049A24
:1013C000126940EAC200086021E00021C4F247210E
:1013D00000200860FFF7D2FB0390FFE743F6000010
:1013E000C4F20200006800F002010020B0EB510FCF
:1013F0000CD0FFE7FFF7C2FB0399401A032804D380
:10140000FFE703208DF817000DE2E7E7FFE7FFE7AE
:10141000FFE704980078000700284BD5FFE7049801
:10142000406918B3FFE740F68061C4F2472101200C
:101430000860FFF7A3FB0390FFE743F67400C4F2D4
:101440000200006800F002010020B0EB510F0CD147
:10145000FFE7FFF793FB0399401A032804D3FFE744
:1014600003208DF81700DEE1E7E722E040F6806117
:10147000C4F2472100200860FFF780FB0390FFE7DC
:1014800043F67400C4F20200006800F0020100207C
:10149000B0EB510F0CD0FFE7FFF770FB0399401A38
:1014A000032804D3FFE703208DF81700BBE1E7E72B
:1014B000FFE7FFE7049800784007002840F1CE805E
:1014C000FFE700208DF8070043F64000C4F2020059
:1014D0000068C000002815D4FFE7FFE70020009057
:1014E00043F64000C4F20200016841F080510160FF
:1014F000006800F0805000900098FFE701208DF810
:101500000700FFE747F20000C4F200000068C005D2
:10151000002822D4FFE747F20001C4F20001086866
:1015200040F480700860FFF729FB0390FFE747F263
:101530000000C4F200000068C00500280CD4FFE7DA
:10154000FFF71CFB0399401A032804D3FFE703208D
:101550008DF8170067E1EAE7FFE7FFE70498806886
:10156000012809D1FFE743F67001C4F202010868BF
:1015700040F0010008601FE00498806805280DD144
:10158000FFE743F67001C4F20201086840F004006E
:101590000860086840F0010008600CE043F6700144
:1015A000C4F20201086820F001000860086820F019
:1015B00004000860FFE7FFE7FFE704988068F8B1E0
:1015C000FFE7FFF7DBFA0390FFE743F67000C4F292
:1015D0000200006800F002010020B0EB510F0ED1B4
:1015E000FFE7FFF7CBFA0399401A41F289318842AD
:1015F00004D3FFE703208DF8170014E1E5E71EE0B0
:10160000FFF7BCFA0390FFE743F67000C4F2020054
:10161000006800F002010020B0EB510F0ED0FFE790
:10162000FFF7ACFA0399401A41F28931884204D39A
:10163000FFE703208DF81700F5E0E5E7FFE79DF8E9
:101640000700012809D1FFE743F64001C4F2020177
:10165000086820F080500860FFE7FFE70498806981
:10166000002800F0DC80FFE743F60800C4F2020027
:10167000006800F00C00082800F08580FFE704985F
:10168000806902285CD1FFE76021C4F24721002075
:101690000860FFF773FA0390FFE743F60000C4F217
:1016A0000200006800F000710020B0EB516F0CD018
:1016B000FFE7FFF763FA0399401A032804D3FFE713
:1016C00003208DF81700AEE0E7E70499C869D1F868
:1016D00020C04B6A8A6A40EA0C0040EA8310D203B9
:1016E0004FF6FF739A43A2F580321043C96A40EA6D
:1016F000016043F60401C4F2020108606021C4F2F3
:10170000472101200860FFF739FA0390FFE743F60D
:101710000000C4F20200006800F000710020B0EB8D
:10172000516F0CD1FFE7FFF729FA0399401A0328FC
:1017300004D3FFE703208DF8170074E0E7E721E00A
:101740006021C4F2472100200860FFF717FA0390D8
:10175000FFE743F60000C4F20200006800F00071E9
:101760000020B0EB516F0CD0FFE7FFF707FA0399A9
:10177000401A032804D3FFE703208DF8170052E036
:10178000E7E7FFE74AE004988069012804D1FFE712
:1017900001208DF8170046E043F60400C4F2020071
:1017A0000068029004988069012831D0FFE7029810
:1017B00000F480000499C969884229D1FFE70298A2
:1017C00000F03F000499096A884221D1FFE702989E
:1017D00047F6C07108400499496AB0EB811F17D1E0
:1017E000FFE7029800F440300499896AC9034FF674
:1017F000FF729143A1F58031884209D1FFE7029839
:1018000000F070600499C96AB0EB016F04D0FFE783
:1018100001208DF8170006E0FFE7FFE7FFE7002053
:101820008DF81700FFE79DF8170006B080BD000097
:1018300081B0009001B0704781B0009001B0704756
:1018400085B003900291FFE7039890F83C000128CF
:1018500004D1FFE702208DF813007EE003990120F8
:1018600081F83C00FFE7FFE70399022081F83D0083
:1018700003980068406801900398006880680090B1
:10188000019820F0700001900298016801980843C7
:101890000190019803990968486003980068002145
:1018A000C4F2010188423CD0FFE703980068B0F120
:1018B000804F36D0FFE70398006840F20041C4F241
:1018C000000188422DD0FFE70398006840F6000130
:1018D000C4F20001884224D0FFE70398006840F674
:1018E0000041C4F2000188421BD0FFE70398006862
:1018F00040F20041C4F20101884212D0FFE7039890
:10190000006844F20001C4F20101884209D0FFE7F7
:101910000398006841F60001C4F2000188420ED12C
:10192000FFE7009820F0800000900298416800983E
:10193000084300900098039909688860FFE70399BD
:10194000012081F83D00FFE70399002081F83C0069
:10195000FFE700208DF81300FFE79DF8130005B0A6
:101960007047000080B582B00090009820B9FFE772
:1019700001208DF807003FE0009890F83D0040B945
:10198000FFE70099002081F83C00009800F038F84B
:10199000FFE70099022081F83D00009951F8040BFF
:1019A00000F0FCFF0099012081F84600FFE7009954
:1019B000012081F83E00009981F83F00009981F8EC
:1019C0004000009981F84100FFE7FFE700990120FE
:1019D00081F84200009981F84300009981F84400A1
:1019E000009981F84500FFE70099012081F83D004A
:1019F00000208DF80700FFE79DF8070002B080BDCA
:101A000080B58AB009900020089007900690059054
:101A1000049009980068B0F1804F32D1FFE7FFE7EA
:101A20000020039043F64000C4F20200016841F038
:101A300001010160006800F0010003900398FFE7D6
:101A4000FFE70020029043F63000C4F20200016874
:101A500041F001010160006800F00100029002986D
:101A6000FFE72020049002200590002006900790B8
:101A7000012008900020C4F2020004A9FEF772FEC3
:101A800024E00998006840F60041C4F20001884251
:101A90001BD1FFE7FFE70020019043F64000C4F2AE
:101AA0000200016841F008010160006800F00800D0
:101AB00001900198FFE73220009005210022FFF7F6
:101AC0003BF90098FFF72EF9FFE7FFE70AB080BD6A
:101AD00083B00190019890F83D00012804D0FFE701
:101AE00001208DF80B0064E00199022081F83D008F
:101AF000019800680021C4F2010188423CD0FFE750
:101B000001980068B0F1804F36D0FFE70198006877
:101B100040F20041C4F2000188422DD0FFE7019855
:101B2000006840F60001C4F20001884224D0FFE7BB
:101B30000198006840F60041C4F2000188421BD0C1
:101B4000FFE70198006840F20041C4F201018842B9
:101B500012D0FFE70198006844F20001C4F20101CD
:101B6000884209D0FFE70198006841F60001C4F2FD
:101B70000001884212D1FFE701980068806800F0F8
:101B8000070000900098062807D0FFE70198016839
:101B9000086840F001000860FFE706E0019801686E
:101BA000086840F001000860FFE700208DF80B0096
:101BB000FFE79DF80B0003B07047000083B0019071
:101BC000019890F83D00012804D0FFE701208DF82E
:101BD0000B006AE00199022081F83D00019801683C
:101BE000C86840F00100C860019800680021C4F294
:101BF000010188423CD0FFE701980068B0F1804FB6
:101C000036D0FFE70198006840F20041C4F20001BD
:101C100088422DD0FFE70198006840F60001C4F229
:101C20000001884224D0FFE70198006840F6004197
:101C3000C4F2000188421BD0FFE70198006840F21F
:101C40000041C4F20101884212D0FFE70198006808
:101C500044F20001C4F20101884209D0FFE7019873
:101C6000006841F60001C4F20001884212D1FFE78A
:101C700001980068806800F007000090009806282E
:101C800007D0FFE701980168086840F0010008608C
:101C9000FFE706E001980168086840F0010008606D
:101CA000FFE700208DF80B00FFE79DF80B0003B065
:101CB0007047000080B586B00490039100208DF835
:101CC0000B00FFE7049890F83C00012804D1FFE7DF
:101CD00002208DF81700ABE00499012081F83C0048
:101CE000FFE7FFE70499022081F83D0004980068AF
:101CF00080680190019820F077000190019820F40D
:101D00007F400190019804990968886003980068F1
:101D10000090002872D0FFE7009810286ED0FFE7EF
:101D2000009820286AD0FFE70098302866D0FFE7A7
:101D30000098402855D0FFE70098502837D0FFE79B
:101D40000098602840D0FFE7009870280BD0FFE78C
:101D50000098B0F5805F05D0FFE70098B0F5005F10
:101D600016D052E055E004980068039B5A689968C1
:101D7000DB6800F0E5FE0498006880680190019837
:101D800040F077000190019804990968886040E06C
:101D900004980068039B5A689968DB6800F0D0FEDD
:101DA00004980168886840F48040886031E00498B5
:101DB0000068039A5168D26800F0F2FE0498006847
:101DC000502100F0D7FE24E004980068039A51687F
:101DD000D26800F00DFF04980068602100F0CAFE90
:101DE00017E004980068039A5168D26800F0D8FEA2
:101DF00004980068402100F0BDFE0AE004980068E5
:101E00000399096800F0B6FE03E001208DF80B008D
:101E1000FFE70499012081F83D00FFE704990020C5
:101E200081F83C00FFE79DF80B008DF81700FFE7F5
:101E30009DF8170006B080BD81B0009001B07047DA
:101E400080B584B0039003980068C068029003983E
:101E50000068006901909DF804008007002824D5DF
:101E6000FFE79DF80800800700281DD5FFE70398CD
:101E700001686FF002000861039901200877039858
:101E800000688069800720B1FFE70398FFF7D4FF5F
:101E900006E0039800F0E2F8039800F0E3F8FFE7AB
:101EA000039900200877FFE7FFE79DF8040040074B
:101EB000002825D5FFE79DF80800400700281ED51B
:101EC000FFE7039801686FF004000861039902209E
:101ED000087703980068806910F4407F04D0FFE71A
:101EE0000398FFF7A9FF06E0039800F0B7F80398FE
:101EF00000F0B8F8FFE7039900200877FFE7FFE755
:101F00009DF804000007002824D5FFE79DF808008D
:101F1000000700281DD5FFE7039801686FF008004F
:101F2000086103990420087703980068C069800756
:101F300020B1FFE70398FFF77FFF06E0039800F06A
:101F40008DF8039800F08EF8FFE7039900200877DA
:101F5000FFE7FFE79DF80400C006002825D5FFE74E
:101F60009DF80800C00600281ED5FFE70398016809
:101F70006FF0100008610399082008770398006843
:101F8000C06910F4407F04D0FFE70398FFF754FFC7
:101F900006E0039800F062F8039800F063F8FFE7AA
:101FA000039900200877FFE7FFE79DF80400C007CA
:101FB00078B1FFE79DF80800C00748B1FFE7039834
:101FC00001686FF001000861039800F04FF8FFE727
:101FD000FFE79DF804000006002810D5FFE79DF8F4
:101FE00008000006002809D5FFE7039801686FF094
:101FF000800008610398FFF71BFCFFE7FFE79DF8EF
:1020000004004006002810D5FFE79DF808004006B0
:10201000002809D5FFE7039801686FF040000861C8
:10202000039800F035F8FFE7FFE79DF8040080060D
:10203000002810D5FFE79DF808008006002809D584
:10204000FFE7039801686FF0200008610398FFF72D
:10205000F3FBFFE7FFE704B080BD000081B0009014
:1020600001B0704781B0009001B0704780B582B078
:1020700001900198006841F20001C4F20001884219
:1020800003D1FFE7FEF780FDFFE702B080BD00004F
:1020900081B0009001B0704780B582B00090009888
:1020A00020B9FFE701208DF8070040E00098806923
:1020B00008B1FFE700E0FFE7009890F8410040B961
:1020C000FFE70099002081F84000009800F034F804
:1020D000FFE70099242081F8410000980168C86852
:1020E00020F40050C860009800F01EFF00980168BE
:1020F000086920F49040086100980168486920F060
:102100002A00486100980168C86840F40050C8601F
:10211000009900204864009A202182F84110009A1A
:1021200082F84210009948638DF80700FFE79DF898
:10213000070002B080BD000080B588B00790002085
:10214000069005900490039002900798006841F271
:102150000001C4F20101884234D1FFE7FFE700200B
:10216000019043F64400C4F20200016841F01001FE
:102170000160006800F0100001900198FFE7FFE7A0
:102180000020009043F63000C4F20200016841F0E4
:1021900001010160006800F0010000900098FFE775
:1021A0004FF4C060029002200390002004900320AE
:1021B0000590072006900020C4F2020002A9FEF755
:1021C000D1FAFFE708B080BD80B58AB008900791CA
:1021D000ADF81A20059300200290089890F841006D
:1021E000202840F08180FFE7079820B1FFE7BDF885
:1021F0001A0020B9FFE701208DF8270078E0089940
:10220000002048640899212081F84100FEF7B6FCBF
:102210000290BDF81A0008998884BDF81A00089940
:10222000C88408988068B0F5805F09D1FFE70898F6
:10223000006928B9FFE7002004900798039004E0A4
:102240000798049000200390FFE7FFE70898C08CF0
:1022500078B3FFE70898029B05996A4611608021D0
:10226000002200F0FFFE40B1FFE70899202081F82E
:10227000410003208DF827003AE0049858B9FFE7A1
:10228000039800886FF35F200899096848600398F5
:102290000230039008E004980078089909684860C3
:1022A000049801300490FFE70899C88C0138C8846D
:1022B000CCE70898029B05996A46116040210022EC
:1022C00000F0D0FE40B1FFE70899202081F84100DE
:1022D00003208DF827000BE00899202081F84100A9
:1022E00000208DF8270003E002208DF82700FFE78B
:1022F0009DF827000AB080BDFFE7FEE780B582B0F9
:1023000042F22570C0F6000046F66432C0F60002C4
:102310000021019101F076F8019940F23402C2F2F5
:102320000002106042F23570C0F6000046F630320E
:10233000C0F6000201F066F8019940F22C02C2F2E8
:102340000002106042F29170C0F6000046F688323A
:10235000C0F6000201F056F840F26811C2F2000126
:10236000086002B080BD000080B594B000201390DA
:102370001290119010900F90FFE700200E9043F6FE
:102380003000C4F20200016841F0100101600068F1
:1023900000F010000E900E98FFE7FFE700200D9070
:1023A00043F63000C4F20200016841F020010160F0
:1023B000006800F020000D900D98FFE7FFE7002077
:1023C0000C9043F63000C4F20200016841F0800135
:1023D0000160006800F080000C900C98FFE7FFE7B8
:1023E00000200B9043F63000C4F20200016841F077
:1023F00001010160006800F001000B900B98FFE7FD
:10240000FFE700200A9043F63000C4F202000168A2
:1024100041F002010160006800F002000A900A9891
:10242000FFE741F20000C4F2020001900C2100918C
:1024300000220792FEF78AFB079A41F20040C4F29D
:102440000200039007210491FEF780FB40F2004058
:10245000C4F2020008901021059101220692FEF7B5
:1024600075FB009A019806990F9210911191022123
:10247000029112910FA90991FEF774F9029A03983B
:10248000DDF818C0079B0999DDF810E0CDF83CE0B5
:10249000CDF840C011931292FEF764F9DDF814C034
:1024A000069B079A08980999CDF83CC010931192A1
:1024B00003221292FEF756F914B080BD80B588B0A1
:1024C00000210191079106910591049103910291D8
:1024D00040F23C00C2F200004FF0804202604160D6
:1024E00081604FF0FF32C26001618161FFF73AFA0B
:1024F00018B1FFE7FEF732F9FFE74FF40050049000
:10250000002005900690079040F23C00C2F20000C7
:1025100004A9FFF7CFFB18B1FFE7FEF71FF9FFE7AC
:1025200000200290039040F23C00C2F2000002A999
:10253000FFF786F918B1FFE7FEF710F9FFE708B0DB
:1025400080BD000080B588B00021019107910691FF
:10255000059104910391029140F28400C2F20000BF
:1025600040F60042C4F20002026040F21F324260B4
:10257000816040F28F12C26001618161FFF7F2F960
:1025800018B1FFE7FEF7EAF8FFE74FF48050049038
:1025900040F28400C2F2000004A9FFF78BFB18B1DF
:1025A000FFE7FEF7DBF8FFE700200290039040F220
:1025B0008400C2F2000002A9FFF742F918B1FFE758
:1025C000FEF7CCF8FFE708B080BD000080B582B010
:1025D00040F21410C2F20000019041F20001C4F276
:1025E000010101604FF4E131416000218160C1606F
:1025F00001610C2242618161C161FFF74DFD18B19B
:10260000FFE7FEF7ABF8FFE702B080BDFFE7FEE7AC
:10261000FFE7FEE788B0079006910592079800F063
:10262000070004900498C0F10700052803D3FFE7D2
:102630000420019004E00498C0F107000190FFE736
:102640000198039004980430062803D8FFE700207F
:10265000009003E0049803380090FFE70098029090
:1026600006980399012202FA01F101390840029B00
:10267000984005999A40013A1140084308B07047C4
:10268000EFF30980BFF36F8F154B1A681EF0100F20
:1026900008BF20ED108A20E9F04F10602DE90900F5
:1026A0004FF0500080F31188BFF34F8FBFF36F8F4F
:1026B00002F01AFC4FF0000080F31188BDE8090019
:1026C00019680868B0E8F04F1EF0100F08BFB0ECB2
:1026D000108A80F30988BFF36F8F704700BF00BF77
:1026E0006002002000000000000000000000000068
:1026F000074B19680868B0E8F04F80F30988BFF30A
:102700006F8F4FF0000080F31188704700BF00BF4B
:102710006002002080B56FF00400002100F054FD3D
:1027200080BD000080B582B00190FFE7012000F07D
:10273000E9FDFBE780B584B00390FFE700F0FEFD04
:102740000290029840F26011C2F200010968401A3A
:1027500041F2893188420AD3FFE7694600200860C8
:102760001523184619461A4600F0F8FA0FE040F211
:102770006413C2F20003187859789A78DB78EE4631
:102780004FF0000CCEF800C000F0E8FAFFE7D5E704
:1027900080B582B00190FFE740F2DB60C2F200003A
:1027A0000078A8B1FFE700F0C9FD40F26011C2F265
:1027B0000001086040F2D860C2F20000007800F02A
:1027C000CFFE40F2DB61C2F2000100200870FFE79B
:1027D000012000F097FDDFE780B54EF21000CEF249
:1027E0000000006803F092F9012803D0FFE702F02F
:1027F000ABFCFFE780BD000080B594B008A8302195
:10280000FDF728FD002007900690059004900390A6
:10281000FFE70020029043F64000C4F20200016886
:1028200041F080510160006800F0805002900298F1
:10283000FFE7FFE70020019047F20000C4F200002C
:10284000016841F480410160006800F4804001901B
:102850000198FFE7012008904FF480300990022191
:102860000E914FF480000F9004201090A02211923E
:102870001291139008A8FEF77BFC18B1FFE7FDF753
:102880006DFFFFE70F2003900220049000200590C9
:102890004FF4A05006904FF48050079003A80521F4
:1028A000FEF76CFA18B1FFE7FDF758FFFFE714B029
:1028B00080BD00004EF68851CEF20001086840F459
:1028C000700008607047000080B52420C4F200004A
:1028D000016840F23800C2F200000160006840F276
:1028E0005C11C2F20001096888422ED1FFE740F274
:1028F0003800C2F20000006838B3FFE740F2380049
:10290000C2F200000068B0F5827F07D9FFE740F20D
:10291000D861C2F20001012008700FE040F23800D7
:10292000C2F200000068C72807D8FFE740F2D8616C
:10293000C2F2000100200870FFE7FFE740F2DB6110
:10294000C2F2000101200870FFE740F2D860C2F235
:102950000000017846F6C930C0F6000003F062FCC2
:1029600040F23800C2F20000006840F25C11C2F28E
:10297000000108602421C4F200010020086040F238
:102980008400C2F20000FFF75BFA80BD80B540F220
:10299000CC00C2F20000FFF753FA80BD83B0029072
:1029A000019102980068009002980021C4F2010190
:1029B000884225D0FFE70298B0F1804F20D0FFE792
:1029C000029840F20041C4F20001884218D0FFE7AB
:1029D000029840F60001C4F20001884210D0FFE7DF
:1029E000029840F60041C4F20001884208D0FFE797
:1029F000029840F20041C4F2010188420AD1FFE787
:102A0000009820F0700000900198416800980843F9
:102A10000090FFE702980021C4F20101884255D0DE
:102A2000FFE70298B0F1804F50D0FFE7029840F2E4
:102A30000041C4F20001884248D0FFE7029840F606
:102A40000001C4F20001884240D0FFE7029840F63E
:102A50000041C4F20001884238D0FFE7029840F2FA
:102A60000041C4F20101884230D0FFE7029844F2ED
:102A70000001C4F20101884228D0FFE7029844F225
:102A80000041C4F20101884220D0FFE7029844F6D9
:102A90000001C4F20101884218D0FFE7029841F614
:102AA0000001C4F20001884210D0FFE7029841F60D
:102AB0000041C4F20001884208D0FFE7029842F2C8
:102AC0000001C4F2000188420AD1FFE7009820F417
:102AD000407000900198C168009808430090FFE79B
:102AE000009820F0800001994969084300900198FE
:102AF00080680299C8620198006802998862029809
:102B00000021C4F20101884208D0FFE7029840F298
:102B10000041C4F20101884205D1FFE70198006934
:102B200002990863FFE70299086840F00400086012
:102B300002990120486100980299086003B070472B
:102B400085B00490039102920193049880680090EC
:102B5000009820F47F40009003980299019A41EA7E
:102B6000022101430098084300900098049988606E
:102B700005B0704783B00290019102988068009080
:102B8000009820F07000009001980099084340F0F0
:102B90000700009000980299886003B07047000019
:102BA00085B00490039102920498006A0090049901
:102BB000086A20F001000862049880690190019879
:102BC00020F0F00001900299019840EA0110019074
:102BD000009820F00A0000900399009808430090A4
:102BE00001980499886100980499086205B07047BB
:102BF00085B00490039102920498006A00900499B1
:102C0000086A20F010000862049880690190019819
:102C100020F4704001900299019840EA013001903F
:102C2000009820F0A00000900399009840EA01105D
:102C3000009001980499886100980499086205B091
:102C40007047000080B582B08DF8070000208DF835
:102C50000600FFE79DF8060007283ADCFFE741F28F
:102C60000040C4F2020001210022FDF76FFF9DF831
:102C70000700C00748B1FFE741F20040C4F202007C
:102C800002210122FDF762FF08E041F20040C4F298
:102C9000020002210022FDF759FFFFE70320009008
:102CA00000F0D2FA9DF8070040088DF8070041F2C5
:102CB0000040C4F2020001221146FDF747FF0098D0
:102CC00000F0C2FAFFE79DF8060001308DF806001B
:102CD000C0E702B080BD000080B584B041F2004082
:102CE000C4F2020001210022FDF730FF052000F0B0
:102CF000ABFAFFE741F20040C4F202000221FDF707
:102D00000DFF014600200129029008D1FFE79DF840
:102D10000F100020FA29B8BF01200290FFE70298A7
:102D2000C00730B1FFE79DF80F0001308DF80F00AC
:102D3000E0E741F20040C4F202000090012201925B
:102D40001146FDF703FF022000F07EFA009801997A
:102D50000022FDF7FBFE04B080BD000080B584B00A
:102D6000844606988DF80FC08DF80E108DF80D2052
:102D70008DF80C308DF80B0000F044F84020FFF780
:102D800061FFFFF7A9FF00F059F800F03BF8C02001
:102D9000FFF758FFFFF7A0FF9DF80F1040F2080063
:102DA000C2F200000190405CFFF74CFFFFF794FF78
:102DB00001989DF80E10405C9DF80B10C901C9B236
:102DC0000843FFF73FFFFFF787FF01989DF80D10BD
:102DD000405CFFF737FFFFF77FFF01989DF80C106D
:102DE000405CFFF72FFFFFF777FF00F027F800F0B8
:102DF00009F88F20FFF726FFFFF76EFF00F01EF89F
:102E000004B080BD80B584B041F20040C4F202003D
:102E10000290012201921146FDF798FE019A029854
:102E200002210391FDF792FE039800F00DFA02983B
:102E300003990022FDF78AFE04B080BD80B584B0FE
:102E400041F20040C4F202000190012102910022EF
:102E50000092FDF77BFE0220039000F0F5F9009A46
:102E600001980399FDF772FE039800F0EDF90198BF
:102E7000029A1146FDF76AFE039800F0E5F9019801
:102E8000029A0399FDF762FE039800F0DDF904B0A1
:102E900080BD000084B00390FFE7FFE7039800685F
:102EA00050E8030F20F490700290FFE70299039816
:102EB000026842E803100028F0D1FFE7FFE7FFE7D0
:102EC000FFE70398006850E8050F20F0010001902B
:102ED000FFE701990398026842E805100028F0D145
:102EE000FFE7FFE70398006B012814D1FFE7FFE736
:102EF000FFE70398006850E8030F20F010000090EF
:102F0000FFE700990398026842E803100028F0D117
:102F1000FFE7FFE7FFE70399202081F842000399CC
:102F20000020086304B0704780B586B0059005980E
:102F30000068006920F44050059A1168D268104377
:102F40000861059988680B694A69C9691843104383
:102F50000843049005980068C06849F20C618843F2
:102F60000499084305990968C86005980068406994
:102F700020F44070059A11689269104348610598E1
:102F8000006841F20001C4F20101884209D0FFE764
:102F90000598006841F20041C4F20101884204D161
:102FA000FFE7FEF75FF8039003E0FEF749F80390B0
:102FB000FFE70598C069B0F5004F29D1FFE70398F6
:102FC0001921A0FB0101059A1368029353685A0066
:102FD000DB0FFDF7F5F80299864648F21F53C5F25C
:102FE000EB13AEFB0320420910014FF0640C02FB0F
:102FF0001CEC322202EBCC02A2FB0332F82303EAE0
:10300000521300EB4300C2F342121044886026E0E2
:1030100003981921A0FB0101059A136801935368D5
:103020009A009B0FFDF7CCF80199844648F21F5295
:10303000C5F2EB12ACFB02304309642003FB10CC59
:10304000322000EB0C10A0FB0202F02000EA52102C
:1030500000EB0310C2F3431210448860FFE706B090
:1030600080BD000080B586B0DDF820C004900391DB
:103070008DF80B200193FFE704980068006803991E
:103080000840401AB0FA80F040099DF80B108842C1
:103090004DD1FFE708980130002847D0FFE7FDF742
:1030A0006DFD0199401A0899884203D8FFE70898F6
:1030B00020B9FFE703208DF817003CE00498006872
:1030C000C0684007002830D5FFE7039880282CD03F
:1030D000FFE70398402828D0FFE7049800680068BD
:1030E00000F008010120B0EBD10F1DD1FFE7FFE791
:1030F0000020009004980068006800900498006820
:10310000406800900098FFE70498FFF7C3FE049919
:1031100008204864FFE70499002081F84000FFE799
:1031200001208DF8170006E0FFE7FFE7A4E7002085
:103130008DF81700FFE79DF8170006B080BD00006E
:10314000FFE7FEE781B08DF803009DF9030000283A
:103150000ED4FFE79DF9031001F01F0201209040FB
:103160004A094EF20011CEF2000141F82200FFE7B9
:1031700001B070474EF60C50CEF200000068C0F36C
:103180000220704782B08DF8070000919DF907007A
:1031900000280AD4FFE7009800019DF907104EF2BD
:1031A0000042CEF2000288540BE0009800019DF826
:1031B000071001F00F014EF61452CEF200028854AF
:1031C000FFE702B07047000082B08DF80700009161
:1031D0009DF9070000280AD4FFE7009800019DF937
:1031E00007104EF20042CEF2000288540BE0009825
:1031F00000019DF8071001F00F014EF61452CEF2B7
:1032000000028854FFE702B07047000083B00290CC
:10321000029800F0070000904EF60C51CEF200012B
:103220000868019001984FF6FF0210400190019844
:10323000009A40EA02200022C0F2FA5210430190A4
:103240000198086003B0704783B00290FFE70298CE
:1032500001281DDBFFE700200190FFE70198A62869
:1032600011DCFFE700200090FFE70098092805DC4B
:10327000FFE7FFE7009801300090F6E7FFE70198CD
:1032800001300190EAE7FFE7029801380290DEE79B
:1032900003B0704780B584B00390029103988DF815
:1032A000070040F21410C2F200000DF107010122E4
:1032B0000223FEF789FF039804B080BD80B582B079
:1032C00000200190FDF76EFCFFF796FAFFF74CF82F
:1032D000FFF77CF9FFF736F9FFF7F0F840F28400CA
:1032E000C2F20000FEF76AFC40F23C00C2F20000AD
:1032F000FEF7EEFB00F038F8FFF700F800F058F8A2
:10330000FFE7FEE780B584B00290EFF305800390FD
:10331000039820B1FFE76FF0050001900AE000205C
:103320000190029828B1FFE7BDF8080001F0BEFC4B
:10333000FFE7FFE7019804B080BD000080B582B0D0
:10334000EFF305800190019828B1FFE702F00CFC33
:10335000ADF8020004E002F0F5FBADF80200FFE773
:10336000BDF8020002B080BD82B0EFF3058001908D
:10337000019820B1FFE76FF00500009014E040F2E3
:103380002800C2F20000006848B9FFE740F22801B7
:10339000C2F20001012008600020009003E04FF01D
:1033A000FF300090FFE7FFE7009802B07047000091
:1033B00080B582B0EFF305800190019820B1FFE75E
:1033C0006FF00500009019E040F22800C2F2000002
:1033D000006801280DD1FFE7FFF79CF940F22801B2
:1033E000C2F200010220086001F006FD00200090FA
:1033F00003E04FF0FF300090FFE7FFE7009802B0D6
:1034000080BD0000B0B58EB00B900A9109920020EB
:103410000690EFF305800D900D98002840F09980FC
:10342000FFE70B98002800F09480FFE780200790CA
:1034300018200590002008904FF0FF300490099864
:1034400000284DD0FFE70998006820B1FFE70998F0
:1034500000680890FFE70998806920B1FFE70998A4
:1034600080690590FFE7059848B1FFE7059838287F
:1034700005D8FFE709980079C00718B1FFE70020D9
:103480000C9069E00998406928B1FFE70998406904
:1034900080080790FFE70998806880B1FFE70998E6
:1034A000C0685C280BD3FFE70998006938B1FFE7D3
:1034B0000998406918B1FFE7012004900FE00998CE
:1034C000806858B9FFE70998C06838B9FFE70998DC
:1034D000006918B9FFE700200490FFE7FFE702E06A
:1034E00000200490FFE70498012817D1FFE70B980C
:1034F0000899079A0A9BDDF814C0DDF824E0DEF88D
:103500000850DEF81040EE46CEF80850CEF80440E1
:10351000CEF800C002F092FA069019E00498B0B913
:10352000FFE70B980899BDF81C200A9BDDF814C032
:10353000EE4606ACCEF80440CEF800C002F02EFAFB
:10354000012803D0FFE700200690FFE7FFE7FFE731
:10355000FFE706980C90FFE70C980EB0B0BD000096
:1035600083B08DF80B0040F2D960C2F20000007801
:103570000146009120B1FFE70098012822D086E0A3
:1035800040F2DA60C2F2000002789DF80B1041EAC6
:103590004201017000783C2813D1FFE740F2D96165
:1035A000C2F200010120087040F23001C2F20001B5
:1035B0001020087040F23201C2F2000100200880A1
:1035C000FFE764E040F23201C2F200010A889DF890
:1035D0000B0040EA4200088040F23000C2F20000D6
:1035E000017801390170007800284FD1FFE740F2DF
:1035F0003200C2F200000188090B8DF807104178F3
:1036000001F00F018DF808100188C1F303118DF846
:103610000910008800F00F008DF80A0001208DF8D5
:10362000060000208DF80500FFE79DF8050003283F
:1036300020DCFFE79DF805200DF10700815C46F6D0
:103640005430C0F60000415C40F26410C2F2000049
:1036500081549DF80510405CFF2804D1FFE700204D
:103660008DF80600FFE7FFE79DF8050001308DF8B3
:103670000500DAE740F2D961C2F2000100200870CB
:1036800040F2DA61C2F200010870FFE7FFE703B021
:103690007047000080B584B0ADF80E00029144F68A
:1036A000B020C2F200000088ADF8040040F26020B3
:1036B000C2F200000068043001F0AAF808B9FFE780
:1036C00000E0FFE7BDF80E004FF6FF71884210D111
:1036D000FFE7029868B1FFE740F26020C2F2000005
:1036E0000068011D44F68820C2F2000001F03AF99A
:1036F00045E0BDF80400BDF80E100844ADF8060022
:10370000BDF8060040F26021C2F20001096888801D
:10371000BDF80600BDF8041088420EDAFFE740F25B
:103720007020C2F20000006840F26021C2F2000185
:103730000968043101F0DCF820E040F26820C2F2B0
:103740000000006840F26021C2F200010968043103
:1037500001F0CEF8BDF8060044F61421C2F20001D3
:103760000988884208DAFFE7BDF8060044F614210C
:10377000C2F20001088000E0FFE7FFE7FFE704B0C6
:1037800080BD000080B582B0019001F013F944F2D1
:10379000E821C2F2000108680130086040F26020B0
:1037A000C2F20000006898B9FFE7019840F260217A
:1037B000C2F20001086044F2E820C2F20000006892
:1037C000012803D1FFE700F0FBFA00E0FFE71CE06F
:1037D00044F67C20C2F200000068A0B9FFE740F286
:1037E0006020C2F200000068C06A0199C96A88427C
:1037F00007D8FFE7019840F26021C2F2000108609B
:1038000000E0FFE700E0FFE7FFE744F2F420C2F248
:103810000000016801310160006801994864019865
:10382000C06A44F2F821C2F200010968884208D94E
:10383000FFE70198C06A44F2F821C2F20001086073
:10384000FFE70199C86A00EB800240F27820C2F2DB
:10385000000000EB8200043101F084F801F0D6F89A
:1038600044F67C20C2F200000068C8B1FFE740F2D5
:103870006020C2F200000068C06A0199C96A8842EB
:103880000CD2FFE74EF60451CEF200014FF080500B
:103890000860BFF34F8FBFF36F8F00E0FFE700E0DA
:1038A000FFE702B080BD000080B584B001F082F86F
:1038B00044F6B420C2F200000068002840D1FFE7BF
:1038C00044F6B410C2F20000029000F0F1FF44F69A
:1038D000C810C2F20000039000F0EAFF02990398BA
:1038E00040F26422C2F20002116040F27421C2F27E
:1038F0000001086069460020086040F26C12C2F2C4
:10390000000240F20C23C2F200030A20102101F051
:103910003BFC014644F6B420C2F20000016000689E
:1039200060B1FFE744F6B420C2F20000006846F63A
:10393000D331C0F6000101F05BF900E0FFE700E0E1
:10394000FFE701F063F804B080BD000080B582B0ED
:10395000FFE744F2EC20C2F20000006808B3FFE782
:1039600001F028F844F69C20C2F20000C068C0684C
:1039700001900198043000F04BFF44F2E821C2F2BC
:10398000000108680138086044F2EC21C2F200012D
:1039900008680138086001F039F8019800F08CF8E7
:1039A000D7E702B080BD000080B582B001900091E1
:1039B0000198006CB8B1FFE70199C8680A6C10441F
:1039C000C86001988168C068884204D3FFE7019904
:1039D0000868C86000E0FFE70098019AD168126C9F
:1039E000FCF71FFCFFE702B080BD000080B586B089
:1039F000059004910392002002900598806B01903D
:103A00000598006C78B9FFE70598006848B9FFE7AA
:103A10000598806802F0B4F902900599002088604A
:103A200000E0FFE741E00398B8B9FFE7059A049981
:103A30005068126CFCF7F5FB059948680A6C104455
:103A40004860059948688968884204D3FFE705996A
:103A50000868486000E0FFE726E0059A0499D0680E
:103A6000126CFCF7DEFB0599C8680A6C801AC86006
:103A700005980168C068884206D2FFE70599886802
:103A80000A6C801AC86000E0FFE70398022809D199
:103A9000FFE7019820B1FFE701980138019000E0AD
:103AA000FFE700E0FFE7FFE7FFE701980130059936
:103AB0008863029806B080BD80B582B000900098FF
:103AC00090F8590040B9FFE70098006B00F0C4FF80
:103AD000009800F0C1FF1CE0009890F85900012800
:103AE00004D1FFE7009800F0B7FF11E0009890F8CC
:103AF000590002280BD0FFE74FF0500080F31188E7
:103B0000BFF36F8FBFF34F8F0190FFE7FEE7FFE733
:103B1000FFE702B080BD000082B0019040F2642057
:103B2000C2F2000000680068B0FA80F04009019914
:103B300008600198006850B9FFE740F26420C2F2C3
:103B400000000068C0680088ADF8020003E00020B3
:103B5000ADF80200FFE7BDF8020002B070470000B8
:103B600084B04FF47050009040F2DC60C2F200006C
:103B700001909DF80400400788B1FFE701980730E5
:103B80000190019820F007000190019A40F2DC6159
:103B9000C2F200010098891A08440090FFE70198DA
:103BA0000290029944F68020C2F2000001600021D8
:103BB00041600298009A10440190019808380190E1
:103BC000019820F007000190019A40F26C20C2F2A7
:103BD000000002600268516002681160029903915E
:103BE0000199039A891A5160006803990860039843
:103BF000406844F61021C2F2000108600398406852
:103C000044F60821C2F20001086044F6DC11C2F259
:103C100000014FF00040086004B0704780B582B0EA
:103C20000190FFE7FFF792FE40F27820C2F2000019
:103C3000006802280CD3FFE74EF60451CEF20001D3
:103C40004FF080500860BFF34F8FBFF36F8F00E0DD
:103C5000FFE7E7E780B584B0DDF818C00390029174
:103C600001928DF80330029818B9FFE706980060BA
:103C700003E0019806990860FFE703980699C86376
:103C80000298069908640698012101F005FB9DF849
:103C90000300069981F84C0004B080BD80B588B05F
:103CA000DDF834C0DDF830C0DDF82CC0DDF828C008
:103CB00006900591049203930C98006B0499890077
:103CC000A522FCF7C0FA0C98006B049900EB810068
:103CD00004380290029820F0070002909DF8080036
:103CE000400758B1FFE74FF0500080F31188BFF351
:103CF0006F8FBFF34F8F0790FFE7FEE70598F8B18E
:103D0000FFE700200190FFE701980F2813D8FFE795
:103D10000598019A805C0C99114481F8340005984B
:103D20000199405C08B9FFE705E0FFE7FFE701986C
:103D300001300190E8E70C99002081F8430004E08D
:103D40000C99002081F83400FFE70A98382803D343
:103D5000FFE737200A9000E0FFE70A980C99C86255
:103D60000A980C99C8640C990020009008650C987A
:103D7000043000F0B5FD0C98183000F0B1FD00984B
:103D80000C9909610A99C1F138010C9A11830C99B7
:103D900049620C9948650C9981F858000298069977
:103DA000039A00F005FD0C9908600B9820B1FFE71D
:103DB0000C980B99086000E0FFE708B080BD000098
:103DC00080B584B000200390FFE70398372810D80F
:103DD000FFE7039800EB800140F27820C2F2000078
:103DE00000EB810000F064FDFFE7039801300390D1
:103DF000EBE744F6E010C2F20000019000F058FD3D
:103E000044F6F410C2F20000029000F051FD44F6B6
:103E10002820C2F2000000F04BFD44F69C20C2F2C4
:103E2000000000F045FD44F68820C2F2000000F0DA
:103E30003FFD0199029840F26822C2F2000211602F
:103E400040F27021C2F20001086004B080BD0000A1
:103E500083B0029044F68020C2F200000190FFE798
:103E6000019800680299884205D2FFE7FFE70198B0
:103E700000680190F4E70198009000980199496862
:103E800008440299884209D1FFE7029842680199E3
:103E90004868104448600198029000E0FFE70298EB
:103EA000009000980299496808440199096888427D
:103EB00020D1FFE70198006840F26C21C2F20001B6
:103EC000096888420DD0FFE70198006842680299AE
:103ED00048681044486001980068006802990860CA
:103EE00007E040F26C20C2F200000068029908600E
:103EF000FFE704E00198006802990860FFE7019875
:103F00000299884204D0FFE702980199086000E016
:103F1000FFE703B07047000080B584B00390ADF8B0
:103F20000A10ADF80820ADF8063000200090BDF86A
:103F30000A000399888003980061BDF80A00BDF863
:103F40000810884219DCFFE7BDF80800BDF806102C
:103F5000401A80B20399098B884203DBFFE70120F6
:103F6000009009E040F27420C2F20000006803995A
:103F7000043100F0BDFCFFE71BE0BDF80800BDF810
:103F8000061088420ADAFFE7BDF80A00BDF80610FD
:103F9000884203DBFFE70120009009E040F2642043
:103FA000C2F2000000680399043100F0A1FCFFE7B1
:103FB000FFE7009804B080BD80B582B0019000F0AA
:103FC000F9FC0198806B18B9FFE70120009002E02E
:103FD00000200090FFE700F019FD009802B080BDBE
:103FE00080B582B0019000F0E5FC0198806B0199EA
:103FF000C96B884203D1FFE70120009002E0002056
:104000000090FFE700F002FD009802B080BD0000C4
:1040100008480068006880F308884FF0000080F3CB
:10402000148862B661B6BFF34F8FBFF36F8F00DFA6
:1040300000BF000008ED00E080B586B0ADF81200CA
:10404000ADF8101040F26420C2F200000068C068B1
:10405000C06802900298043000F0DAFB029890F8F1
:1040600028004007002827D5FFE70298BDF8123046
:10407000018B1944BDF8102089B2FFF74DFFC8B17C
:10408000FFE70298BDF81220694600230B6019462D
:1040900002F068F80390039858B9FFE74FF050001A
:1040A00080F31188BFF36F8FBFF34F8F0590FFE749
:1040B000FEE700E0FFE707E0029991F8280000F032
:1040C000FE0081F82800FFE70298016A884706B0E1
:1040D00080BD000080B58EB0FFE744F6B420C2F288
:1040E0000000006807A9002201F0F6FA002800F09D
:1040F000C280FFE70798B0F1FF3F17DCFFE707A892
:1041000004300290029858B9FFE74FF0500080F356
:104110001188BFF36F8FBFF34F8F0D90FFE7FEE75E
:1041200002990A6848688968904700E0FFE70798A5
:10413000002800F19F80FFE70998069006984069E3
:1041400028B1FFE70698043000F062FB00E0FFE7CB
:1041500005A800F00FF9ADF80E00079801900928A6
:1041600000F286800199DFE801F0050505424A6FFB
:104170000505424A069991F8280040F0010081F8AF
:1041800028000698BDF82030018B1944BDF80E2098
:1041900089B2FFF7C1FE40B3FFE70698016A88477E
:1041A000069890F82800400700281CD5FFE70698DD
:1041B000BDF82010028B11446A46002313608AB2B6
:1041C000194601F0CFFF0490049858B9FFE74FF06B
:1041D000500080F31188BFF36F8FBFF34F8F0C90A7
:1041E000FFE7FEE700E0FFE700E0FFE741E00699B8
:1041F00091F8280000F0FE0081F8280039E00699C7
:1042000091F8280040F0010081F82800BDF8200056
:10421000069908830698008B00280BDCFFE74FF017
:10422000500080F31188BFF36F8FBFF34F8F0B9057
:10423000FFE7FEE70698BDF80E30018B194489B2FE
:104240001A46FFF769FE14E0069890F828008007E8
:10425000002804D4FFE7069800F0FEFB07E006996B
:1042600091F8280000F0FE0081F82800FFE700E048
:10427000FFE7FFE731E70EB080BD000080B584B0F6
:10428000ADF80E00029100F027FE684600F072F8CB
:10429000ADF806000098002842D1FFE7029880B9E7
:1042A000FFE7BDF80E00BDF80610884209DCFFE705
:1042B00001F044FEBDF80E00BDF80610FFF7BCFE8D
:1042C0002DE0029858B1FFE740F27420C2F20000DE
:1042D00000680068B0FA80F040090290FFE744F6F9
:1042E000B420C2F200000068BDF80E10BDF8062030
:1042F000891A029A89B200F0A5FC01F01FFE60B98C
:10430000FFE74EF60451CEF200014FF080500860F6
:10431000BFF34F8FBFF36F8F00E0FFE7FFE702E0CF
:1043200001F00CFEFFE704B080BD000081B040F258
:104330006820C2F200000068006840B9FFE744F658
:104340001421C2F200014FF6FF7008800FE040F226
:104350006820C2F200000068C068C0680090009841
:10436000808844F61421C2F200010880FFE701B002
:104370007047000080B582B0019001F0E3FBADF81A
:104380000200BDF8020040F25C21C2F2000109887F
:10439000884206DAFFE700F013F80199012008606F
:1043A00003E0019900200860FFE7BDF8020040F239
:1043B0005C21C2F200010880BDF8020002B080BD9D
:1043C00080B586B0FFE740F26420C2F200000068CA
:1043D0000068002855D0FFE740F26420C2F20000D8
:1043E0000168C9680988ADF812100068C068C06823
:1043F00002900298043000F00BFA0298016A884794
:10440000029890F828004007002838D5FFE7BDF84B
:1044100012000299098B0844ADF81000BDF8100095
:10442000BDF81210884210DDFFE7BDF810000299B8
:1044300088800298006140F26420C2F200000068A7
:104440000299043100F054FA18E00298BDF81220E5
:10445000694600230B60194601F084FE0190019823
:1044600058B9FFE74FF0500080F31188BFF36F8F0A
:10447000BFF34F8F0590FFE7FEE7FFE700E0FFE7A0
:10448000A1E740F26422C2F200021068039040F2F9
:104490007421C2F20001086810600398086006B039
:1044A00080BD000083B00020009040F22400C2F2E2
:1044B00000000068013058B1FFE74FF0500080F372
:1044C0001188BFF36F8FBFF34F8F0290FFE7FEE7B6
:1044D0004FF0500080F31188BFF36F8FBFF34F8F01
:1044E0000190FFE7009808B9FFE7FBE703B07047CA
:1044F00080B584B00390FFE701A8FFF70DFBADF88E
:104500000A00BDF80A000199FFF7B8FEFFF7E2FDC7
:10451000F2E7000080B582B0019000F04BFA0198FC
:1045200090F845008DF80300FFE79DF9030001288E
:1045300016DBFFE70198406A58B1FFE70198243085
:1045400001F094FC18B1FFE700F0FEFB00E0FFE78C
:1045500000E005E09DF8030001388DF80300E4E772
:104560000199FF2081F8450000F050FA00F022FA8E
:10457000019890F844008DF80200FFE79DF90200D1
:10458000012816DBFFE70198006980B1FFE7019879
:10459000103001F06BFC18B1FFE700F0D5FB00E034
:1045A000FFE79DF8020001388DF8020000E000E00E
:1045B000E4E70199FF2081F8440000F027FA02B0F7
:1045C00080BD000080B58AB006900020029000F007
:1045D00083FC40F26C20C2F20000006818B9FFE7CB
:1045E000FFF7BEFA00E0FFE7069844F6DC11C2F2DE
:1045F00000010968084240F0C580FFE7069800B353
:10460000FFE70698083006909DF818004007B0B103
:10461000FFE7069820F00700083006909DF8180084
:10462000400758B1FFE74FF0500080F31188BFF307
:104630006F8FBFF34F8F0990FFE7FEE700E0FFE7C2
:1046400000E0FFE70698002800F09A80FFE7069850
:1046500044F60821C2F200010968884200F2908005
:10466000FFE744F68020C2F2000004900068059045
:10467000FFE705984168069A00209142019007D211
:10468000FFE705980068002818BF01200190FFE7A8
:104690000198C00730B1FFE70598049005980068BD
:1046A0000590E6E7059840F26C21C2F20001096826
:1046B000884263D0FFE704980068083002900598AC
:1046C000006804990860059840680699401A112806
:1046D00021D3FFE705980699084403909DF80C0044
:1046E000400758B1FFE74FF0500080F31188BFF347
:1046F0006F8FBFF34F8F0890FFE7FEE70598406884
:104700000699401A039948600698059948600398ED
:10471000FFF79EFB00E0FFE70598426844F608209B
:10472000C2F200000168891A0160006844F6102195
:10473000C2F20001096888420BD2FFE744F6082064
:10474000C2F20000006844F61021C2F200010860C5
:1047500000E0FFE744F6DC10C2F2000002680599B1
:1047600048681043486005990020086044F61C2101
:10477000C2F2000108680130086000E0FFE700E0D5
:10478000FFE700E0FFE701F0D9FB9DF808004007D4
:1047900058B1FFE74FF0500080F31188BFF36F8FDF
:1047A000BFF34F8F0790FFE7FEE702980AB080BD86
:1047B00083B002900191009202980438029002990D
:1047C0004FF080700860029804380290019820F041
:1047D000010002990860029804380290029944F29C
:1047E000A540C0F6000008600298143802900098B6
:1047F0000299086002980438029002996FF0020052
:104800000860029820380290029803B070470000B8
:1048100082B0019001980069009001984168806819
:1048200088600199486889684860009840680199E3
:10483000884205D1FFE7019880680099486000E050
:10484000FFE70199002008610099086801380860B5
:104850000098006802B0704783B002900191009206
:10486000029944F2FC40C2F200000860019944F24F
:10487000FC20C2F20000086000998020086003B0AC
:104880007047000083B0029001910092029944F6B3
:104890005810C2F200000860019944F25850C2F268
:1048A0000000086000994FF48070086003B0704702
:1048B00081B00090009901F10800486000994FF61E
:1048C000FF700881009901F10800C860009901F1AA
:1048D0000800086100990020086001B070470000DE
:1048E00081B0009000990020086101B0704700007D
:1048F00084B00390029102980088ADF80200BDF8E0
:1049000002004FF6FF71884204D1FFE70398006967
:10491000019011E0039808300190FFE7019840688A
:104920000088BDF80210884205DCFFE7FFE7019828
:1049300040680190F2E7FFE70198406802994860FB
:1049400002984168886001980299886002980199EC
:10495000486003980299086103990868013008606B
:1049600004B0704783B002900191029840680090B3
:1049700000980199486000988068019988600198C2
:1049800000998968486001980099886002980199A7
:104990000861029908680130086003B070470000A0
:1049A000DFF80C00016841F47001016070470000FD
:1049B00088ED00E082B04FF0500080F31188BFF323
:1049C0006F8FBFF34F8F019040F22400C2F20000BE
:1049D0000168013101600068012814D1FFE74EF63B
:1049E0000450CEF200000068000658B1FFE74FF017
:1049F000500080F31188BFF36F8FBFF34F8F00908B
:104A0000FFE7FEE7FFE702B07047000082B040F228
:104A10002400C2F20000006858B9FFE74FF05000D0
:104A200080F31188BFF36F8FBFF34F8F0090FFE7C4
:104A3000FEE740F22400C2F2000001680139016083
:104A4000006830B9FFE700200190019880F31188D9
:104A5000FFE702B07047000080B586B0039003986E
:104A60000290039800285CD0FFE702980838029073
:104A7000029801900198406844F6DC11C2F20001EE
:104A8000096808420BD1FFE74FF0500080F311880E
:104A9000BFF36F8FBFF34F8F0590FFE7FEE70198DD
:104AA000006858B1FFE74FF0500080F31188BFF362
:104AB0006F8FBFF34F8F0490FFE7FEE701984068C8
:104AC00044F6DC11C2F200010968084227D0FFE772
:104AD0000198006808BBFFE744F6DC10C2F2000052
:104AE0000268019948689043486000F0F5F9019820
:104AF000426844F60821C2F20001086810440860C8
:104B00000198FFF7A5F944F62021C2F200010868D8
:104B10000130086001F012FA00E0FFE700E0FFE773
:104B2000FFE706B080BD00004EF21001CEF200019A
:104B3000002008604EF21802CEF20002106040F22F
:104B40000400C2F20000006844F6D352C1F26202CF
:104B5000A0FB02024FF0FF3000EB92104EF2140265
:104B6000CEF20002106007200860704784B0EFF3B7
:104B700005800190019810281ED3FFE701984EF29E
:104B8000F031CEF20001405C8DF803009DF8030087
:104B900044F2DC21C2F20001097888420BDAFFE717
:104BA0004FF0500080F31188BFF36F8FBFF34F8F2A
:104BB0000390FFE7FEE7FFE74EF60C50CEF2000051
:104BC000006800F4E06044F2E021C2F200010968EC
:104BD00088420BD9FFE74FF0500080F31188BFF3F4
:104BE0006F8FBFF34F8F0290FFE7FEE704B070476F
:104BF00083B00290019100200090FFE70098072801
:104C00001DD8FFE7009944F63C20C2F2000050F89E
:104C1000310070B9FFE70198009A44F63C21C2F2D6
:104C2000000141F832000298009A01EBC20148608D
:104C300005E0FFE7FFE7009801300090DEE703B0F2
:104C40007047000080B584B00390ADF80A1001925F
:104C500003980090FFF7AEFE009890F944000130F1
:104C600028B9FFE70099002081F84400FFE7009889
:104C700090F94500013028B9FFE70099002081F83C
:104C80004500FFE7FFF7C2FE0098806B40B9FFE7E1
:104C900000982430BDF80A10019A00F081F800E075
:104CA000FFE70098FFF736FC04B080BD80B584B004
:104CB000ADF80A0000200190BDF80A0001281DDBB4
:104CC000FFE744F2F020C2F20000006858B1FFE7AD
:104CD0004FF0500080F31188BFF36F8FBFF34F8FF9
:104CE0000390FFE7FEE700F0F7F8BDF80A000021A7
:104CF000FEF7D0FC01F022F9019000E0FFE70198F7
:104D000060B9FFE74EF60451CEF200014FF080503B
:104D10000860BFF34F8FBFF36F8F00E0FFE704B071
:104D200080BD000081B0009044F61820C2F200005F
:104D300000680099086044F6B020C2F200000088C4
:104D40000099888001B0704744F6BC21C2F200018E
:104D5000012008607047000080B584B00290ADF873
:104D60000610029858B9FFE74FF0500080F3118801
:104D7000BFF36F8FBFF34F8F0390FFE7FEE70298FB
:104D800040F26021C2F2000109681831FFF7B0FD5E
:104D9000BDF806000121FEF77DFC04B080BD0000D7
:104DA00080B584B00290ADF806100092029858B910
:104DB000FFE74FF0500080F31188BFF36F8FBFF310
:104DC0004F8F0390FFE7FEE7029840F26021C2F2A6
:104DD000000109681831FFF7C5FD009828B1FFE709
:104DE0004FF6FF70ADF80600FFE7BDF8060000992A
:104DF000FEF750FC04B080BD80B58AB0002003905F
:104E00000690059006A805A904AAFFF725FD039BB7
:104E1000049A0599DDF818C06846C0F808C04160DA
:104E2000036043F61D40C0F6000046F6CE31C0F6E2
:104E3000000100F003FE014644F60C20C2F200001F
:104E40000160006818B1FFE70120079002E0002030
:104E50000790FFE70798012804D1FFE701F038F930
:104E6000079000E0FFE70798012823D1FFE74FF004
:104E7000500080F31188BFF36F8FBFF34F8F0990FD
:104E800044F61421C2F200014FF6FF70088044F688
:104E90007C21C2F200010120086044F6B021C2F278
:104EA00000010020088000F083F808B1FFE700E06F
:104EB000FFE70FE00798013058B9FFE74FF05000C7
:104EC00080F31188BFF36F8FBFF34F8F0890FFE718
:104ED000FEE7FFE70AB080BD44F2F021C2F2000114
:104EE000086801300860704783B044F2F020C2F2D5
:104EF0000000006838B1FFE744F6BC21C2F20001AF
:104F00000120086051E044F6BC21C2F200010020FB
:104F1000086044F2F820C2F2000000680190FFE748
:104F2000019800EB800140F27820C2F2000050F8B6
:104F3000210090B9FFE7019858B9FFE74FF0500002
:104F400080F31188BFF36F8FBFF34F8F0290FFE79D
:104F5000FEE7019801380190E2E7019800EB80013B
:104F600040F27820C2F2000000EB8100009000992E
:104F7000486840684860009948680831884205D10F
:104F8000FFE70099486840684860FFE7009840687C
:104F9000C06840F26021C2F200010860019844F24A
:104FA000F821C2F200010860FFE703B0704700007B
:104FB00080B58AB04EF60050CEF2000000684CF288
:104FC0007121C4F20F1188420BD1FFE74FF050005E
:104FD00080F31188BFF36F8FBFF34F8F0990FFE706
:104FE000FEE74EF60050CEF2000000684CF2702151
:104FF000C4F20F1188420BD1FFE74FF0500080F34D
:105000001188BFF36F8FBFF34F8F0890FFE7FEE764
:10501000002004904EF20040CEF200000390017890
:105020008DF81710FF21017000788DF80B009DF8A6
:105030000B0000F0500144F2DC20C2F200000170CD
:10504000007858B9FFE74FF0500080F31188BFF3A4
:105050006F8FBFF34F8F0790FFE7FEE79DF80B00C0
:10506000C04310F0500F0BD0FFE74FF0500080F31B
:105070001188BFF36F8FBFF34F8F0690FFE7FEE7F6
:10508000FFE79DF80B000006002809D5FFE704980C
:10509000013004909DF80B0040008DF80B00F0E704
:1050A0000498082807D1FFE744F2E021C2F200018A
:1050B0000020086008E00498C0F1070044F2E021F5
:1050C000C2F200010860FFE744F2E021C2F20001F1
:1050D000086800020860086800F4E06008609DF855
:1050E00017004EF20041CEF2000108704EF620513A
:1050F000CEF20001086840F47F000860086840F0C4
:105100007F4008604EF61C51CEF200010020019055
:105110000860FFF709FD019840F22401C2F2000186
:105120000860FFF73DFC4EF63471CEF200010868CE
:1051300040F040400860FEF76BFFFFF7D5FEFFF739
:10514000B1F901980AB080BD80B582B04FF050002F
:1051500080F31188BFF36F8FBFF34F8F009000F083
:1051600025FD40B1FFE74EF60451CEF200014FF0AD
:105170008050086000E0FFE700200190019880F374
:10518000118802B080BD000080B590B084461298AE
:10519000CDF828C00991089207938DF81B000A9852
:1051A00058B9FFE74FF0500080F31188BFF36F8FBD
:1051B000BFF34F8F0F90FFE7FEE7079858B9FFE75F
:1051C0004FF0500080F31188BFF36F8FBFF34F8F04
:1051D0000E90FFE7FEE708990020039031B1FFE74A
:1051E0000998B0FA80F040090390FFE70398C007E0
:1051F00058B1FFE74FF0500080F31188BFF36F8F75
:10520000BFF34F8F0D90FFE7FEE708990020029053
:1052100031B9FFE70998002818BF01200290FFE785
:105220000298C00758B1FFE74FF0500080F3118893
:10523000BFF36F8FBFF34F8F0C90FFE7FEE7502057
:105240000490049850280BD0FFE74FF0500080F3F3
:105250001188BFF36F8FBFF34F8F0B90FFE7FEE70F
:10526000049807980590059888B1FFE705990120F3
:1052700081F846000A980999089A9DF81B30DDF8D4
:1052800014C0EE46CEF800C0FEF7E4FC00E0FFE7F5
:10529000059810B080BD000080B584B002900191E7
:1052A00002980090009858B9FFE74FF0500080F343
:1052B0001188BFF36F8FBFF34F8F0390FFE7FEE7B7
:1052C000FFF778FB00990B68C86B0A6C00FB023093
:1052D00088600099002088630099086848600099F8
:1052E0000B68C86B0A6C013800FB0230C86000997B
:1052F000FF2081F84400009981F845000198D0B959
:10530000FFE700980069A0B1FFE70098103000F0B7
:10531000ADFD60B1FFE74EF60451CEF200014FF053
:1053200080500860BFF34F8FBFF36F8F00E0FFE73F
:1053300000E0FFE708E000981030FFF7B9FA0098A6
:105340002430FFF7B5FAFFE7FFF760FB012004B058
:1053500080BD000080B592B00C900B91ADF82A2072
:105360000993002008900C980490049858B9FFE71E
:105370004FF0500080F31188BFF36F8FBFF34F8F52
:105380001190FFE7FEE70B990020039039B9FFE782
:105390000498006C002818BF01200390FFE70398D1
:1053A000C00758B1FFE74FF0500080F31188BFF3FA
:1053B0006F8FBFF34F8F1090FFE7FEE70999002032
:1053C0000229029007D1FFE70498C06B013818BF8B
:1053D00001200290FFE70298C00758B1FFE74FF0A5
:1053E000500080F31188BFF36F8FBFF34F8F0F9082
:1053F000FFE7FEE700F08AFB01460020019039B983
:10540000FFE7BDF82A00002818BF01200190FFE740
:105410000198C00758B1FFE74FF0500080F31188A2
:10542000BFF36F8FBFF34F8F0E90FFE7FEE7FFE7ED
:10543000FFF7C0FA0498806B0499C96B884204D3C3
:10544000FFE70998022834D1FFE704980B99099ADD
:10545000FEF7CCFA07900498406AA0B1FFE70498E1
:10546000243000F003FD60B1FFE74EF60451CEF2A8
:1054700000014FF080500860BFF34F8FBFF36F8F74
:1054800000E0FFE710E0079860B1FFE74EF6045137
:10549000CEF200014FF080500860BFF34F8FBFF392
:1054A0006F8F00E0FFE7FFE7FFF7B0FA01200D90F4
:1054B00068E0BDF82A0028B9FFE7FFF7A7FA002047
:1054C0000D905FE0089830B9FFE705A8FFF72AFCC8
:1054D0000120089000E0FFE7FFE7FFE7FFF796FAFB
:1054E000FFF7FAFCFFF766FA049890F944000130E0
:1054F00028B9FFE70499002081F84400FFE70498E9
:1055000090F94500013028B9FFE70499002081F89F
:105510004500FFE7FFF77AFA05A80DF12A0100F030
:10552000CFF930BBFFE70498FEF75AFDD0B1FFE793
:1055300004981030BDF82A10FFF70EFC0498FEF70F
:10554000E9FF00F0FBFC60B9FFE74EF60451CEF234
:1055500000014FF080500860BFF34F8FBFF36F8F93
:10556000FFE705E00498FEF7D5FF00F0E7FCFFE752
:1055700007E00498FEF7CEFF00F0E0FC00200D905D
:1055800000E055E70D9812B080BD000080B592B0E4
:105590000B900A91099208930B980590059858B9B9
:1055A000FFE74FF0500080F31188BFF36F8FBFF318
:1055B0004F8F0E90FFE7FEE70A990020029039B95D
:1055C000FFE70598006C002818BF01200290FFE754
:1055D0000298C00758B1FFE74FF0500080F31188E0
:1055E000BFF36F8FBFF34F8F0D90FFE7FEE7089972
:1055F00000200229019007D1FFE70598C06B013810
:1056000018BF01200190FFE70198C00758B1FFE7DC
:105610004FF0500080F31188BFF36F8FBFF34F8FAF
:105620000C90FFE7FEE7FFF7A1FAEFF311814FF0CF
:10563000500080F31188BFF36F8FBFF34F8F10912D
:105640000F90109806900598806B0599C96B884259
:1056500004D3FFE70898022833D1FFE7059890F8B4
:1056600045008DF813000598806B039005980A9902
:10567000089AFEF7BBF99DF913000130B8B9FFE7AE
:105680000598406A88B1FFE70598243000F0EEFBEA
:1056900048B1FFE7099820B1FFE7099901200860A8
:1056A00000E0FFE700E0FFE700E0FFE706E09DF82D
:1056B00013000130059981F84500FFE701200790AC
:1056C00002E000200790FFE706981190119880F300
:1056D0001188079812B080BD80B58EB009900891EE
:1056E000ADF81E200020069009980390039858B941
:1056F000FFE74FF0500080F31188BFF36F8FBFF3C7
:105700004F8F0D90FFE7FEE708990020019039B90F
:10571000FFE70398006C002818BF01200190FFE705
:105720000198C00758B1FFE74FF0500080F311888F
:10573000BFF36F8FBFF34F8F0C90FFE7FEE700F0D2
:10574000E5F901460020009039B9FFE7BDF81E00D9
:10575000002818BF01200090FFE70098C00758B14B
:10576000FFE74FF0500080F31188BFF36F8FBFF356
:105770004F8F0B90FFE7FEE7FFE7FFF71BF903985A
:10578000806B0290029830B3FFE703980899FEF708
:105790000BF9029801380399886303980069A0B156
:1057A000FFE70398103000F061FB60B1FFE74EF6B1
:1057B0000451CEF200014FF080500860BFF34F8FCC
:1057C000BFF36F8F00E0FFE700E0FFE7FFF71EF990
:1057D00001200A9070E0BDF81E0028B9FFE7FFF72E
:1057E00015F900200A9067E0069830B9FFE704A891
:1057F000FFF798FA0120069000E0FFE7FFE7FFE7D8
:10580000FFF704F9FFF768FBFFF7D4F8039890F966
:105810004400013028B9FFE70399002081F84400D3
:10582000FFE7039890F94500013028B9FFE7039995
:10583000002081F84500FFE7FFF7E8F804A80DF124
:105840001E0100F03DF838BBFFE70398FEF7B4FBFC
:10585000D8B1FFE703982430BDF81E10FFF77CFA9B
:105860000398FEF757FE00F069FB60B9FFE74EF6BC
:105870000451CEF200014FF080500860BFF34F8F0B
:10588000BFF36F8F00E0FFE705E00398FEF742FEED
:1058900000F054FBFFE70EE00398FEF73BFE00F03C
:1058A0004DFB0398FEF788FB18B1FFE700200A9034
:1058B00002E0FFE7FFE760E70A980EB080BD000056
:1058C00080B586B003900291039858B9FFE74FF076
:1058D000500080F31188BFF36F8FBFF34F8F059097
:1058E000FFE7FEE7029858B9FFE74FF0500080F35A
:1058F0001188BFF36F8FBFF34F8F0490FFE7FEE770
:10590000FFF758F844F6B020C2F200000088ADF866
:105910000200BDF8020003998988401AADF8000022
:10592000029800884FF6FF71884203D1FFE70020FC
:1059300001902EE044F61820C2F20000006803999E
:10594000096888420AD0FFE7BDF8020003998988F8
:10595000884203DBFFE70120019019E0BDF8000059
:105960000299098888420CDAFFE7BDF80020029905
:105970000888801A08800398FFF7D4F90020019066
:1059800005E002990020088001200190FFE7FFE771
:10599000FFE7FFF73BF8019806B080BD70B58CB00B
:1059A000DDF844C0DDF840C00B900A91ADF8262028
:1059B0000893BDF826008000FEF704FE05900598C8
:1059C00080B1FFE75C20FEF7FDFD0790079820B14E
:1059D000FFE705980799086303E00598FFF73CF88F
:1059E000FFE702E000200790FFE70798F0B1FFE72C
:1059F0000798002680F859600B980A99BDF8262070
:105A0000089BDDF840C0119C079DEE46CEF80C6067
:105A1000CEF80850CEF80440CEF800C0FEF73EF9AC
:105A20000798FDF7AFFE0120069003E04FF0FF302E
:105A30000690FFE706980CB070BD0000B0B58EB0C0
:105A4000DDF850C0DDF84CC0DDF848C00A9009917F
:105A500008920793139858B9FFE74FF0500080F36E
:105A60001188BFF36F8FBFF34F8F0D90FFE7FEE7F5
:105A7000149858B9FFE74FF0500080F31188BFF336
:105A80006F8FBFF34F8F0C90FFE7FEE75C20049011
:105A900004985C280BD0FFE74FF0500080F311888A
:105AA000BFF36F8FBFF34F8F0B90FFE7FEE70498B4
:105AB000149820B3FFE7139808B3FFE714980690F3
:105AC0001398069908630699022081F859000A98EC
:105AD0000999089A079BDDF848C0069CEE46002508
