:020000040800F2
:10000000C86A00209D010008FD16000801130008C1
:10001000F9160008D9020008351B0008000000008E
:100020000000000000000000000000007117000840
:10003000DD0200080000000001170008E5170008B5
:10004000B7010008B7010008B7010008B7010008B0
:10005000B7010008B7010008B7010008B7010008A0
:10006000B7010008B7010008B7010008B701000890
:10007000B7010008B7010008B7010008B701000880
:10008000B7010008B7010008B7010008B701000870
:10009000B7010008B7010008B7010008B701000860
:1000A000B7010008B7010008B7010008B701000850
:1000B000B7010008B7010008B7010008B701000840
:1000C000B7010008B7010008B7010008B701000830
:1000D000B7010008B7010008B7010008B701000820
:1000E000B7010008B7010008B7010008B701000810
:1000F000B7010008B7010008B7010008B701000800
:10010000B7010008B7010008C1180008B7010008CE
:10011000B7010008B701000805190008B701000879
:10012000B7010008B7010008B7010008B7010008CF
:10013000B7010008B7010008B7010008B7010008BF
:10014000B7010008B7010008B7010008B7010008AF
:10015000B7010008B7010008B7010008B70100089F
:10016000B7010008B7010008B7010008B70100088F
:10017000B7010008B7010008B7010008000000003F
:10018000B7010008B7010008DFF80CD000F08CF8C8
:1001900000480047391B0008C86A0020064880470D
:1001A00006480047FEE7FEE7FEE7FEE7FEE7FEE75C
:1001B000FEE7FEE7FEE7FEE7AD180008890100084C
:1001C0002DE9F05F0546002092469B46884606468C
:1001D000814640241BE0284641464746224600F01F
:1001E00053F853465A46C01A914110D31146184647
:1001F000224600F03AF82D1A67EB01084F462246D6
:100200000120002100F031F817EB00094E41201EBB
:10021000A4F10104DFDC484631462A464346BDE8E6
:10022000F09F40EA01039B0703D009E008C9121FB1
:1002300008C0042AFAD203E011F8013B00F8013BA0
:10024000521EF9D27047D2B201E000F8012B491ECC
:10025000FBD270470022F6E710B513460A46044663
:100260001946FFF7F0FF204610BD202A04DB203A94
:1002700000FA02F1002070479140C2F1200320FAF9
:1002800003F3194390407047202A04DB203A21FAF7
:1002900002F00021704721FA02F3D040C2F120029F
:1002A00091400843194670471CB509480090094819
:1002B00001900546009C06E0E06840F0010394E8E8
:1002C000070098471034AC42F6D3FFF761FF0000F7
:1002D000903C0008B03C0008FEE7000070470000BA
:1002E00072B600BFFEE700002DE9F04F83B000F1C9
:1002F000200200F13E4741F60045009207F1FF77EA
:10030000C4F2020508224FEAB726A84208BF072216
:1003100000254FF000084FF00009072E38BF4FEAC4
:10032000B72201920AE000BF09F1010908F10208B1
:10033000B9F1100F05F1040500F0A2800F68012249
:1003400002FA09FE17EA0E0AEED0D1F804C0032221
:100350000CF003077E1E02FA08F4012E6FEA040B6C
:1003600012D88468CE6804EA0B0406FA08F634430F
:100370008460446824EA0E06CCF3001404FA09F4FD
:100380002643466004E000BF032F01D103271EE08F
:10039000C6688C6806EA0B0604FA08F42643022FA6
:1003A000C66014D16FF00302009E02EA590756F8A6
:1003B00007C005F01C040F220B69A2402CEA0202C0
:1003C000A3401A43F251D1F804C00CF003070268AD
:1003D00007FA08F302EA0B021A431CF4403F0260DA
:1003E000A2D0002243F644030292C4F202031A6828
:1003F00043F6004442F480421A601A68C4F20104D1
:1004000002F480420292029A29F003024FF6084C4D
:100410002244CFF6FF7C52F80C3005F00C070F2673
:10042000BE40B343019E06FA07F73B4342F80C3047
:10043000A2684B6842EA0A0743F60C4CDE0258BF3A
:1004400022EA0A07A760C4F2010CDCF800209E0231
:1004500042EA0A0758BF22EA0A07CCF8007062682D
:100460009E0342EA0A0758BF22EA0A076760226829
:10047000DB0342EA0A0758BF22EA0A07276053E76C
:1004800003B0BDE8F08F0000002A08BF09048161B5
:100490007047000044F2C830C2F2000000687047A4
:1004A00040F2000044F2C831C2F20000C2F2000182
:1004B00000780A68104408607047000080B543F671
:1004C0000040C4F20200016841F40071016001685B
:1004D00041F480610160016841F480710160032092
:1004E00000F0C2F80F2000F005F800F05DF80020E1
:1004F00080BD000070B586B0002543F6400101952F
:10050000C4F202010A68044642F010020A60096857
:1005100001A801F0100101910199694600F066F906
:10052000049E002E18BF012600F080F94DF683616D
:10053000B040C4F21B31A0FB01014FF0FF3000EBD3
:10054000914140F2E81041F20002C2F20000C4F210
:10055000000240F2E733C0E90021C0E9025305611F
:10056000856100F0FBFB08B106B070BD40F2E810F9
:10057000C2F2000000F078FC0028F5D1362000F02F
:1005800035F80F2C0CD836202146002200F040F818
:1005900040F204010020C2F200010C6006B070BD00
:1005A000012006B070BD000082B0002043F640017B
:1005B0000190C4F202014A6842F480424A604A68EB
:1005C00002F480420192019A00900868002240F0F3
:1005D0008050086008680F2100F08050009000985B
:1005E0006FF0010002B000F013B80000002848BF0F
:1005F000704700F01F01012202FA01F11C2202EAF9
:10060000D0004EF20012CEF200028150704700007E
:1006100010B54EF60C5CCEF2000CDCF80030C3F3E3
:10062000022E8EF00704042C28BF0424BEF103031D
:100630004FF0FF3E0EFA04F438BF0023A143994067
:100640000EFA03F39A43114300F00F0200F16043E6
:100650000901043A03F564436244002848BF02F1EB
:100660000C03197010BD00004EF60C51CEF20001C3
:100670000A684FF6FF031A4060F30A2242F08060D6
:1006800040F0FD7008607047002804BF01207047EB
:100690002DE9F04143F60808C4F202080446D8F8F0
:1006A000F8030D4600F00700814207D988F8F85397
:1006B000D8F8F80300F00700A84277D12068810736
:1006C00017D5410705D5D8F8001041F4E051C8F816
:1006D0000010010705D5D8F8001041F46041C8F8B2
:1006E0000010D8F80010A26821F0F0011143C8F8FA
:1006F0000010C00740D1D8F8F80300F00700854289
:1007000007D288F8F853D8F8F80300F00700A84299
:100710004CD12068410707D5D8F80010E26821F4D1
:10072000E0511143C8F80010000708D5D8F80000C0
:10073000216920F4604040EAC100C8F8000000F0E0
:100740009DF8D8F8001043F6D632C1F30311C0F675
:100750000002515C40F21C0220FA01F140F2040058
:10076000C2F200000068C2F200021160FFF7C2FE90
:100770000020BDE8F08100BF6068811E022907D219
:1007800058F8081C89015CBF0120BDE8F08111E028
:10079000012807D158F8081C89035CBF0120BDE877
:1007A000F08107E058F8081C890703D40120BDE850
:1007B000F08100BFD8F8001021F003010843C8F809
:1007C0000000FFF767FE064641F28837D8F80000C0
:1007D000616800F00C00B0EB810F8CD0FFF75AFE7F
:1007E000801BB842F2D90320BDE8F0810F220260DD
:1007F00043F60802C4F20202136803F003034360E5
:10080000136803F0F0038360136803F4E053C360DC
:10081000D2F800C04FF4E05303EADC030361D2F8DE
:10082000F80300F0070008607047000040F21C0069
:1008300043F60801C2F20000C4F202010068096830
:1008400043F6E632C1F38221C0F60002515CC84093
:100850007047000040F21C0043F60801C2F200009D
:10086000C4F202010068096843F6E632C1F342317E
:10087000C0F60002515CC8407047000010B543F656
:100880000404C4F202046168C1F3810142F2004031
:10089000C0F2F400DFE801F002040A0210BD00BF5C
:1008A00041F20020C0F27A0010BD00BF216801F0C3
:1008B0003F02216823684902C3F3881106D4A1FBD3
:1008C00000010023FFF77CFC07E000BF41F200209D
:1008D000C0F27A004843B0FBF2F021680222C1F373
:1008E000014102EB4101B0FBF1F010BD002804BF53
:1008F000012070472DE9F04182B00446007843F6AC
:100900000006C007C4F202060CD0B06800F00C006C
:10091000042840F081803068800303D56068002897
:1009200000F06881207880071BD5B06810F00C0FAC
:1009300009D0B06800F00C00082840F0878070688B
:10094000400200F183803068800703D5E068012809
:1009500040F050813068216920F0F80040EAC10081
:1009600030602078000713D4207840072AD4A56986
:10097000002D00F03A81B06800F00C00082840F02B
:10098000A580012D40F00E81012002B0BDE8F0816C
:100990006069002800F082800020C4F24720012115
:1009A000C0F8801EFFF776FD054600BF706F800718
:1009B000DAD4FFF76FFD401B0228F7D9032002B0FD
:1009C000BDE8F081306C5FEAC0080AD400200190D5
:1009D000306C40F080503064306C00F080500190FA
:1009E000019847F20007C4F200073868C00547D4F1
:1009F000386840F480703860FFF74CFD054600BF52
:100A00003868C0053CD4FFF745FD401B0228F7D9E4
:100A1000032002B0BDE8F081B06800F00C000828A7
:100A200003D1706840023FF576AF61683068B1F578
:100A3000803F07D0B1F5A02F40F09A8040F480208D
:100A40003060306840F4803030609AE0E068002820
:100A500040F20000C4F247205CD001210160FFF7A2
:100A600019FD0546306880073FF574AFFFF712FDAA
:100A7000401B0228F6D9032002B0BDE8F08100BF78
:100A8000A168306F012905D0052955D140F0040037
:100A90003067306F40F00100306756E00020C4F24C
:100AA00047200021C0F8801EFFF7F4FC054600BF78
:100AB000706F80077FF558AFFFF7ECFC401B0228F2
:100AC000F6D9032002B0BDE8F08100BF0027C4F2D0
:100AD000472700203866FFF7DDFC022D05460DD1C3
:100AE0003068800140F18A80FFF7D4FC401B022867
:100AF0004FF00300F4D902B0BDE8F0813068800106
:100B000073D5FFF7C7FC401B02284FF00300F5D94F
:100B1000F1E700BF00210160FFF7BCFC054600BF04
:100B2000306880077FF51DAFFFF7B4FC401B02283B
:100B30004FF00300F4D9DEE720F001003067306F9A
:100B4000002920F0040030677AD0FFF7A3FC0546A7
:100B500041F28837306F800700F18480FFF79AFCFC
:100B6000401BB842F6D9032002B0BDE8F08100BFB7
:100B700020F4803030603068002920F4802030601C
:100B80007AD0FFF787FC0546306880033FF5CAAE90
:100B9000FFF780FC401B6428F6D9032002B0BDE8B3
:100BA000F08100BF7068E16900F480028A4221D1BF
:100BB000216A00F03F028A421CD147F6C071626A86
:100BC0000140B1EB821F15D1A16A4FF6FF73C90333
:100BD000994300F44032A1F580318A420AD1E16A9A
:100BE00000F07060B0EB016F04D1002002B0BDE8EE
:100BF000F08100BF012002B0BDE8F08104F11C05C6
:100C00002FCD084340EA8210D9034FF6FF7291437B
:100C1000A1F5803140EA0560084370600120386624
:100C2000FFF738FC044600BF30688001DDD4FFF7D1
:100C300031FC001B02284FF00300F5D95BE700BF31
:100C4000FFF728FC054641F2883700BF306F800768
:100C500008D5FFF71FFC401BB8424FF00300F5D941
:100C600049E700BFB8F1000F3FF581AE306C20F0CE
:100C7000805030647BE600BFFFF70CFC054600BFE8
:100C8000306880037FF54EAEFFF704FC401B6428FC
:100C90004FF00300F4D92EE77047000070470000C2
:100CA00090F83C20012A4FF0020254D010B580F891
:100CB0003D200268D2F804E0D2F808C00C682EF09B
:100CC0007003234341F2FF74C4F20004A242536054
:100CD0000EDC40F2FF73C4F200039A4216DCB2F15C
:100CE000804F2BD040F20043C4F2000324E000BF49
:100CF00040F2FF33C4F201039A4213DC41F60003D1
:100D0000C4F200039A4219D0002313E040F6000316
:100D1000C4F200039A4211D040F60043C4F200032B
:100D20000AE000BF44F20003C4F201039A4205D076
:100D300040F20043C4F201039A4204D149682CF006
:100D40008003194391600121002280F83D1080F852
:100D50003C20BDE81040104670470000002804BF4A
:100D60000120704710B5044690F83D0028B90020D6
:100D700084F83C00204600F01FF8022084F83D0073
:100D80002068211D00F0C4FD012084F8460084F88D
:100D90003E0084F83F0084F8400084F8410084F865
:100DA000420084F8430084F8440084F8450084F845
:100DB0003D00002010BD000080B586B0006840F600
:100DC0000042C4F2000200219042CDE90411CDE9B5
:100DD000021101912ED0B0F1804F29D1002043F6AD
:100DE00040010090C4F202010A6842F001020A6068
:100DF0000A6802F001020092009A009051F8102C4B
:100E000042F0010241F8102C51F8101C01F00101D0
:100E100000910099202101910221CDE90210049056
:100E2000012005900020C4F2020001A9FFF75CFA3E
:100E300006B080BD43F640000091C4F20200016894
:100E4000002241F0080101600068052100F008005F
:100E5000009000983220FFF7DBFB322006B0BDE89F
:100E60008040FFF7C3BB000090F83D1001291CBF74
:100E700001207047022180F83D10006841F2FF72A6
:100E8000C168C4F20002904241F00101C1600DDC72
:100E900040F2FF71C4F20001884215DCB0F1804FCE
:100EA0002AD040F20041C4F2000123E040F2FF31B9
:100EB000C4F20101884213DC41F60001C4F20001D2
:100EC000884219D0002113E040F60001C4F200016D
:100ED000884211D040F60041C4F200010AE000BF90
:100EE00044F20001C4F20101884205D040F2004101
:100EF000C4F20101884206D1816801F00701062988
:100F000004BF00207047016841F00101016000202A
:100F10007047000090F83C20012A4FF002026CD08C
:100F200080B580F83D20D0F800C04FF67772DCF82D
:100F3000083023EA0202CCF808200B684F2B29DC8A
:100F40001F2B45DD202B46D0302B44D0402B40F0CA
:100F5000AF80D1F804E0C968DCF82030DCF820204C
:100F600022F00102CCF82020DCF8182022F0F00258
:100F700042EA011123F00A0242EA0E02CCF81810EC
:100F8000CCF82020DCF8081041F0470121F03001B6
:100F900028E000BF6F2B33DDB3F5005F74D0B3F5ED
:100FA000805F21D0702B40F08380D1E901E3C968D4
:100FB000DCF8082043EA0E0322F47F4243EA0121D1
:100FC0001143CCF80810DCF8081041F0770109E073
:100FD0000BB1102B6CD1DCF8081021F07001194313
:100FE00041F00701CCF808100022012180F83D10E3
:100FF000002180F83C10BDE880401046704700BFDB
:10100000502B21D0602B53D1D1F804E0C968DCF813
:101010002030DCF8202022F01002CCF82020DCF870
:10102000182022F4704242EA013123F0A00242EA81
:101030000E12CCF81810CCF82020DCF8081041F083
:10104000670121F01001CDE7D1F804E0C968DCF8B0
:101050002030DCF8202022F00102CCF82020DCF83F
:10106000182022F0F00242EA011123F00A0242EABB
:101070000E02CCF81810CCF82020DCF8081041F053
:10108000570121F02001ADE7D1E901E3C968DCF89F
:10109000082043EA0E0322F47F4243EA0121114370
:1010A000CCF80810DCF8081041F480419AE700BF42
:1010B00001229AE77047000070B504460068C568D1
:1010C0000669B10716D515F0020113D06FF00201C1
:1010D0000161012121778069800703D02046FFF755
:1010E000E9FF05E0204600F08FF8204600F08EF87A
:1010F00000202077700719D515F0040016D020685D
:101100006FF00401016102212177806910F4407FB2
:1011100004D02046FFF7CEFF06E000BF204600F0D7
:1011200073F8204600F072F800202077300717D5BA
:1011300015F0080014D020686FF008010161042147
:101140002177C069800703D02046FFF7B3FF05E091
:10115000204600F059F8204600F058F8002020778B
:10116000F00619D515F0100016D020686FF01001A8
:10117000016108212177C06910F4407F04D0204626
:10118000FFF798FF06E000BF204600F03DF820463C
:1011900000F03CF800202077F00718BF15F00100A0
:1011A00002D1300609D412E020686FF0010101611C
:1011B000204600F02DF8300609D515F0800006D045
:1011C00020686FF0800101612046FFF765FD700621
:1011D00009D515F0400006D020686FF0400101618C
:1011E000204600F01FF8B00658BF70BD15F0200073
:1011F00008D021686FF0200220460A61BDE87040E7
:10120000FFF74CBD70BD0000704700007047000044
:10121000006841F20001C4F20001884218BF704723
:10122000FFF73EB970470000002804BF0120704757
:1012300010B5044690F8410028B9002084F8400019
:10124000204600F021F8242084F841002068C1687D
:1012500021F40051C160204600F0F8FB20680169CC
:1012600021F490410161416921F02A014161C16885
:1012700041F40051C16000202021606484F84110D5
:1012800084F84210606310BD80B586B041F2000161
:101290000068C4F20101002288420592CDE90322D0
:1012A0000292019202D006B080BD00BF43F630002A
:1012B0000092C4F20200436943F0100343614369A2
:1012C00003F010030093009B0092036843F00103B6
:1012D0000360006800F00100009000984FF4C060C7
:1012E00001900220CDE9020203200490072005901E
:1012F00001F5704001A9FEF7F7FF06B080BD0000C0
:10130000FEE7000070B540F25015C2F200052878E3
:1013100040F20806C2F20006305C00F047F80120F7
:1013200000F044F841F20044C4F2020420460421D3
:101330000022FFF7A9F8204604210122FFF7A4F8B4
:101340006878305C00F032F8022000F02FF8204678
:1013500004210022FFF798F8204604210122FFF71C
:1013600093F8A878305C00F021F8042000F01EF813
:10137000204604210022FFF787F82046042101229D
:10138000FFF782F8E878305C00F010F8082000F0F1
:101390000DF8204604210022FFF776F820460421AC
:1013A0000122BDE87040FFF76FB80000B0B541F210
:1013B0000044C4F202040546C20920460221FFF798
:1013C00063F8204601210022FFF75EF82046012144
:1013D0000122FFF759F8C5F3801220460221FFF7DA
:1013E00053F8204601210022FFF74EF82046012144
:1013F0000122FFF749F8C5F3401220460221FFF70A
:1014000043F8204601210022FFF73EF82046012143
:101410000122FFF739F8C5F3001220460221FFF739
:1014200033F8204601210022FFF72EF82046012143
:101430000122FFF729F8C5F3C00220460221FFF779
:1014400023F8204601210022FFF71EF82046012143
:101450000122FFF719F8C5F3800220460221FFF7A9
:1014600013F8204601210022FFF70EF82046012143
:101470000122FFF709F8C5F3400220460221FFF7D9
:1014800003F8204601210022FEF7FEFF204601213D
:101490000122FEF7F9FF05F0010220460221FEF7C6
:1014A000F3FF204601210022FEF7EEFF2046012136
:1014B0000122BDE8B040FEF7E7BF000010B541F2E1
:1014C000957043F62442C0F60000C0F600020021E9
:1014D00000F096FB40F22804C2F20004206041F2C2
:1014E0009D7043F6F032C0F60000C0F60002002105
:1014F00000F086FB606041F2B97043F64842C0F6E6
:101500000000C0F60002002100F07AFBA06010BDD0
:101510002DE9F04387B0002743F630000697CDE968
:101520000477CDE902770197C4F20200016840F226
:10153000004941F0200101600168C4F2020901F094
:101540002001019101990197016809F5805541F049
:10155000800101600168002201F080010191019980
:1015600001970168072641F001010160016801F05F
:101570000101019101990197016841F002010160A7
:101580000068072100F00200019001982846FEF74C
:101590007BFF4846102101224FF010080124FEF77E
:1015A00073FFCDE90264022002AE05902846314661
:1015B0000497FEF799FE0320059048463146CDE991
:1015C00002840497FEF790FE07B0BDE8F0830000A8
:1015D00010B586B040F258100024C2F200004FF05F
:1015E00080414FF0FF32CDE90044C0E90014C0E96A
:1015F000024204618461FFF7B1FB002818BFFEF7C7
:101600006FFE4FF40050CDE9020440F25810C2F2D0
:10161000000002A9CDE90444FFF77CFC002818BFB4
:10162000FEF75EFE0020CDE9000040F25810C2F245
:1016300000006946FFF734FB002818BFFEF750FE94
:1016400006B010BD80B586B040F2A01040F6004252
:101650000021C2F20000C4F2000240F21F3340F247
:101660008F1C0591CDE90311CDE90011C0E90023DC
:10167000C0E9021C01618161FFF770FB002818BFFF
:10168000FEF72EFE4FF48050029040F2A010C2F2FE
:10169000000002A9FFF73EFC002818BFFEF720FE5D
:1016A00040F2A010C2F200006946FFF7F9FA0028E4
:1016B00018BFFEF715FE06B080BD000080B540F2F1
:1016C000302041F20001C2F20000C4F20101002307
:1016D0004FF00C0C4FF4E13280E80E00C0E9033308
:1016E000C0E905C3C361FFF79FFD002808BF80BDA7
:1016F000BDE88040FEF7F4BDFEE70000FEE7000015
:10170000EFF30980BFF36F8F154B1A681EF0100FAF
:1017100008BF20ED108A20E9F04F10602DE9090084
:101720004FF0500080F31188BFF34F8FBFF36F8FDE
:1017300001F03EFB4FF0000080F31188BDE8090086
:1017400019680868B0E8F04F1EF0100F08BFB0EC41
:10175000108A80F30988BFF36F8F704700BF00BF06
:101760005400002000000000000000000000000005
:10177000074B19680868B0E8F04F80F30988BFF399
:101780006F8F4FF0000080F31188704700BF00BFDB
:1017900054000020012000F0EFF9FBE740F246047E
:1017A00040F25015C2F20004C2F200052068286021
:1017B000FFF7A8FDFAE7000040F2350440F23405D7
:1017C000C2F20004C2F20005002602E0012000F08F
:1017D000D3F920780028F9D0287800F05BFA267039
:1017E000F4E7000080B54EF21000CEF20000006871
:1017F00001F0EEFF012808BF80BDBDE8804001F088
:101800001BBC000070B592B006AC20463021FEF73C
:1018100021FD002543F640000595CDE90355CDE9AE
:1018200001550095C4F202000168022641F0805182
:101830000160006800F080500090009847F20000BE
:101840000095C4F20000016841F480410160006825
:10185000A02100F4804000900098012006904FF4F1
:10186000803007904FF480000D9004200E9011906E
:1018700020460C96CDE90F16FFF738F810B172B676
:10188000FEE700BF0F20CDE901064FF4A050049001
:101890004FF48050059001A805210395FEF7F4FE52
:1018A00010B172B6FEE700BF12B070BD4EF68850A0
:1018B000CEF20000016841F4700101607047000041
:1018C000242140F23402C4F20001C2F2000208688E
:1018D0005368906098420BD1B0F5827F02D9012302
:1018E00003E000BFC72801D8002313700123537001
:1018F000506040F2A0100022C2F200000A60FFF720
:10190000DBBB000040F2E810C2F20000FFF7D4BBDE
:10191000B0B540F6FF3E0568C4F2000E40F2004C40
:101920007045C4F2010C25DCB0F1804F2FD040F29D
:101930000043C4F20003984229D040F60003C4F2E9
:101940000003984223D041F6FF73C4F2000398428B
:1019500028DC70453ADCB0F1804F5BD040F20043A8
:10196000C4F20003984255D040F60003C4F20003CD
:101970004EE000BF40F60043C4F20003984206D098
:10198000604504D00023C4F201039842DBD14B68C8
:1019900025F0700243EA020541F6FF73C4F200032A
:1019A0009842D6DD43F6FF73C4F2010398421FDC70
:1019B00042F20003C4F2000398422BD00023C4F289
:1019C0000103984226D0604524D028E040F6004329
:1019D000C4F2000398421DD041F60003C4F2000394
:1019E000984217D041F60043C4F2000310E000BF54
:1019F00044F20003C4F2010398420BD044F6000302
:101A0000C4F20103984205D044F20043C4F201033A
:101A1000984204D1CB6825F4407243EA02050A6873
:101A20008C684B69C46240F480648262644504BF80
:101A300009690163026825F0800142F0040219433C
:101A40000260012242610160B0BD0000B0B50446F1
:101A5000006804F108030ECB0569194325F44055CD
:101A60002A4302616269E3691143C268194349F27A
:101A70000C639A431143C1604169A26921F440712A
:101A800041F20043114340F48062C4F201039A42E0
:101A9000416103D1FEF7DEFE02E000BFFEF7C6FEA5
:101AA000E1694FF69C7563681922C0F6FF75B1F5C0
:101AB000004FA0FB02011FD15A00DB0FFEF780FB95
:101AC00048F21F51C5F2EB11A0FB01235A0905F1A1
:101AD000805302FB0300322303EBC000A0FB010193
:101AE0004FF4F87000EA111000EB0210C1F342113C
:101AF000084421688860B0BD9A009B0FFEF760FB28
:101B000048F21F51C5F2EB11A0FB01235A0902FB59
:101B10000500322303EB0010A0FB0101F02000EAD6
:101B2000511000EB0210C1F3431108442168886092
:101B3000B0BD0000FEE70000FEF7C0FCFFF762FE4C
:101B4000FFF7E6FCFFF7BAFDFFF77CFDFFF740FD6E
:101B500040F2501040F20031C2F20000C0F20331F6
:101B6000016000F01BF8FFF7A9FC00F02BF800BFA4
:101B7000FFF7C8FBFCE70000EFF3058100291CBF5D
:101B80006FF005007047002804BF0020704780B543
:101B900080B200F0BBFF002080BD0000EFF30580A5
:101BA00000281CBF6FF00500704740F24C10C2F2D5
:101BB00000000168002911BF4FF0FF3001210160D2
:101BC00000207047EFF3058000281CBF6FF0050070
:101BD000704740F24C10C2F20000016801291CBF9E
:101BE0004FF0FF30704780B54EF61F51CEF2000126
:101BF00000220A700221016001F05AF8002080BD25
:101C0000F0B585B08C4600230493EFF30581B0B3A3
:101C1000A9BB2AB39469002C08BF1824382C2ED8ED
:101C20001179C9072BD15669D2E902574FEA960EAE
:101C30001168002E734608BF80231DB35C2F25D387
:101C400012690023002A18BF002E18D0CDE90042E7
:101C500072466346029501F07FFD05B0F0BD00BFFE
:101C600080231824002104AF9AB26346CDE90047CF
:101C700001F042FD00230499012808BF0B461846D5
:101C800005B0F0BD17B91269002AECD00023184640
:101C900005B0F0BD40F24001C2F200010A78012A0D
:101CA0000ED0AABB4A7840EA4200C2B23C2A487031
:101CB0002ED1012008701020887000208880704785
:101CC0008B78B1F804C0013B40EA4C001A068880CA
:101CD0008B7018BF704710B54FEA4C0293B2C2F335
:101CE000032CC2B200F00F0E43F61440C0F6000001
:101CF000140910F80C201B0BC35CCA71025D10F8AC
:101D00000E008B71487200200A720880BDE81040F6
:101D1000704700002DE9F041044600F0DBFD40F281
:101D20004C06C2F20006706940F2683501307061FD
:101D3000B068C2F2000558B1B069002840F00781D0
:101D4000B068E16AC06A884298BFB460FFE000BF33
:101D5000B4607069012840F0FA80284600F05EFD0A
:101D600005F1140000F05AFD05F1280000F056FDC1
:101D700005F13C0000F052FD05F1500000F04EFD71
:101D800005F1640000F04AFD05F1780000F046FD21
:101D900005F18C0000F042FD05F1A00000F03EFDD1
:101DA00005F1B40000F03AFD05F1C80000F036FD81
:101DB00005F1DC0000F032FD05F1F00000F02EFD31
:101DC00005F5827000F02AFD05F58C7000F026FD07
:101DD00005F5967000F022FD05F5A07000F01EFDDF
:101DE00005F5AA7000F01AFD05F5B47000F016FDB7
:101DF00005F5BE7000F012FD05F5C87000F00EFD8F
:101E000005F5D27000F00AFD05F5DC7000F006FD66
:101E100005F5E67000F002FD05F5F07000F0FEFC3F
:101E200005F5FA7000F0FAFC05F5027000F0F6FC1A
:101E300005F5077000F0F2FC05F50C7000F0EEFC03
:101E400005F5117000F0EAFC05F5167000F0E6FCEF
:101E500005F51B7000F0E2FC05F5207000F0DEFCDB
:101E600005F5257000F0DAFC05F52A7000F0D6FCC7
:101E700005F52F7000F0D2FC05F5347000F0CEFCB3
:101E800005F5397000F0CAFC05F53E7000F0C6FC9F
:101E900005F5437000F0C2FC05F5487000F0BEFC8B
:101EA00005F54D7000F0BAFC05F5527000F0B6FC77
:101EB00005F5577000F0B2FC05F55C7000F0AEFC63
:101EC00005F5617000F0AAFC05F5667000F0A6FC4F
:101ED00005F56B7000F0A2FC05F5707000F09EFC3B
:101EE00005F5757000F09AFC05F57A7000F096FC27
:101EF00005F57F7000F092FC05F5826000F08EFC25
:101F000005F2244000F08AFC05F5876000F086FCAD
:101F100005F24C4000F082FC40F22418C2F20008A6
:101F2000404600F07BFC08F11407384600F076FCD0
:101F300006F1600000F072FC06F1380000F06EFC63
:101F400006F14C0000F06AFCC6F820807762F06869
:101F5000B16A421CE06AF2608842626488BFB06283
:101F600000EB800005EB8000211D00F09BFC00F0E1
:101F7000D5FCB06988B1B068E16AC06A884228BF00
:101F8000BDE8F0814EF60450CEF200004FF08051D3
:101F90000160BFF34F8FBFF36F8FBDE8F08100008A
:101FA00040F24C0540F268364EF60458C2F2000585
:101FB000C2F20006CEF200084FF0805703E000BFE7
:101FC000204600F0C3FC2869D0B100F083FC686CA7
:101FD000C468201D00F0F4FB686901386861286955
:101FE0000138286100F09AFC94F859000228EAD0E0
:101FF0000128E5D070B9206B00F0A8FCE0E700BF35
:1020000030680228DFD3C8F80070BFF34F8FBFF3EA
:102010006F8FD8E74FF0500080F31188BFF36F8FB8
:10202000BFF34F8FFEE700002DE9F0470A9C824680
:10203000206B16460F46DDE908599100A522984607
:10204000FEF701F9206B002F00EB8600A0F10400E1
:1020500020F0070644D0387884F83400D8B3787874
:1020600084F83500B8B3B87884F8360098B3F878B7
:1020700084F8370078B3387984F8380058B3787921
:1020800084F8390038B3B87984F83A0018B3F8798D
:1020900084F83B00F8B1387A84F83C00D8B1787AFB
:1020A00084F83D00B8B1B87A84F83E0098B1F87A67
:1020B00084F83F0078B1387B84F8400058B1787BD1
:1020C00084F8410038B1B87B84F8420000281CBF76
:1020D000F87B84F84300002084F8430003E000BF4D
:1020E000002084F834000027201D372D28BF372515
:1020F000E562C4E9135700F09DFB04F1180000F0FD
:1021000099FBC5F138002083304651464246246190
:102110006462676584F8587000F040FBB9F1000F05
:10212000206018BFC9F80040BDE8F0870848006883
:10213000006880F308884FF0000080F3148862B6CE
:1021400061B6BFF34F8FBFF36F8F00DF00BF00009A
:1021500008ED00E081B00020009040F22000C2F2C3
:10216000000000684FF0500181F31188BFF36F8FBA
:10217000BFF34F8F013007D0FEE700BF009830B9A2
:10218000009820B9009810B900980028F6D001B046
:102190007047000088B040F2C00AC2F2000A0DF198
:1021A0001009EB46DAF80C0005681DB1C068048818
:1021B00001E000BF002400F0F3FD01F019FBBAF8C4
:1021C00000100646884220D3002DAAF8006053D0A4
:1021D000B44251D801F01CFCDAF80C00C068C768A2
:1021E0003D1D284600F0ECFA97F82800410747D437
:1021F00000F0FA0087F828008CE000BFB880DAF819
:102200000C0029463F6100F019FBDAF80C00016868
:1022100041B3C068C76804883D1D284600F0D0FA65
:10222000396A3846884797F828004007EDD5388B3B
:10223000204481B2A142E1D8DAF80400002800F07D
:10224000578100200490ADF81440069701F0C0FAC1
:10225000DAF8040049460022002300F073FF00284A
:10226000D3D145E1DAF81010AAF80060CAE90310EA
:1022700001F0CEFB28E100BF65B1002210E000BFF5
:10228000388B3F6101198AB2B242B98020D90AF174
:102290000C0023E0DAF810000068B0FA80F0420980
:1022A000DAF80400A11B89B200F006FC01F0B0FBD3
:1022B000002840F009814EF60450CEF200004FF0A5
:1022C00080510160BFF34F8FBFF36F8FFCE000BF01
:1022D000311B89B2814207D20AF1100000682946F9
:1022E00000F0ACFA16E000BFDAF80400002800F0B5
:1022F0001D8100200490ADF81440069701F068FAA3
:10230000DAF8040049460022002300F01BFF0028F1
:1023100000F00C81396A38468847D5E00098B0F162
:10232000FF3F07DCDDE90120039990470098002872
:1023300000F1CA80029E706910B1301D00F040FAB1
:1023400001F056FABAF80010074688420DD30098FB
:10235000AAF80070092841D9B6E000BFA880DAF8D1
:102360000C0021462D6100F069FADAF80C000168D2
:1023700051B3C068C568B0F800802C1D204600F03D
:102380001FFA296A2846884795F828004007ECD5A7
:10239000288B404481B24145E0D8DAF80400002897
:1023A00000F09C8000200490ADF81480069501F0A8
:1023B0000FFADAF8040049460022002300F0C2FEBA
:1023C0000028D2D18AE000BFDAF81010CAE9031061
:1023D0000098AAF80070092800F27680DFE800F083
:1023E00006060664486C0606644800BF96F8280096
:1023F000328B40F00101BDF8040086F82810151852
:10240000ABB2314621F8045FBB42366106D9874240
:102410000AF10C0208D283420AD205E0381A80B2CF
:10242000904205D20AF11002106800F007FA4BE062
:10243000316A3046884796F82800400744D5DAF8D4
:10244000040000285ED0BDF80400318B06960844D5
:1024500000210491ADF8140001F0BAF9DAF8040093
:1024600049460022002300F06DFE68BB4AE000BF31
:1024700096F8280040F00101BDF8040086F8281005
:102480000028308348D03844314682B221F8040F06
:102490000AF110003661BA4288BF0AF10C000068E8
:1024A00000F0CCF910E000BF96F8280000F0FE0024
:1024B00086F8280008E000BF96F828008107F5D4C8
:1024C000304600F043FA00BFDAF804005946002213
:1024D00000F09CFF00287FF421AF63E64FF050002E
:1024E00080F31188BFF36F8FBFF34F8FFEE700BFFC
:1024F0004FF0500080F31188BFF36F8FBFF34F8F01
:10250000FEE700BF4FF0500080F31188BFF36F8FDC
:10251000BFF34F8FFEE700BF4FF0500080F31188EC
:10252000BFF36F8FBFF34F8FFEE700BF4FF0500038
:1025300080F31188BFF36F8FBFF34F8FFEE700006A
:10254000F0B581B0044600F0C5F994F94560012E5C
:102550000FDB04F1240500BF286850B1284601F0C4
:102560001DFA002818BF00F01DFBF0B2013E012843
:10257000F2D8FF2684F8456000F0D0F900F0AAF9FF
:1025800094F94470012F0EDB04F11005286850B156
:10259000284601F003FA002818BF00F003FBF8B248
:1025A000013F0128F2D884F8446001B0BDE8F04052
:1025B00000F0B4B970B5044600F0F2FB40F2FC0C38
:1025C000C2F2000CDCF8042012B19CF8000020E0FC
:1025D00040F2C870C2F20000420700F5705200F1EC
:1025E000070122F0070218BF21F007000021A2F125
:1025F0000803CCE90601CCF8043042E90211DCF80A
:102600000420191AC0E900210120CCE902118CF83C
:1026100000000025002C4FF0000148BF01215AD0D6
:10262000084058D124F0070000F11003600708BFEC
:1026300004F10803DCF80800591E81424BD26046C1
:1026400050F818EFDEF804509D422CD2DEF800104E
:10265000C1B174464D689D4218D20E68B6B1756816
:102660009D4217D23068A8B145689D4216D20468D1
:10267000A4B165689D4215D22168A6460029E9D11A
:1026800011E000BF0CF118000DE000BF8E4620469F
:1026900009E000BFB646084605E000BF8646304662
:1026A00001E000BFA646964514D00268DEF800405F
:1026B000E91A112904604FD30EEB0305680719D0FE
:1026C0004FF0500080F31188BFF36F8FBFF34F8F2F
:1026D000FEE700BF002501F09BF968075CD04FF0D2
:1026E000500080F31188BFF36F8FBFF34F8F00BF8F
:1026F000FEE700BF0CF118006960CEF8043000BF9F
:102700000168A9420AD20868A8420BD20168A9420E
:1027100004D208680B46A842F2D304E003460846F8
:1027200001E000BF0B465C6869681E19AE4202D129
:1027300021441D4659606C18844201D0044607E0CC
:10274000DCF80440A04203D0D0E9004008446860AF
:10275000AB422C6018BF1D60DEF80400DCE90213F8
:1027600002F10805091A9942CCF8081038BFCCF8D4
:102770000C109CF8001000294FF0000118BF40F029
:102780000040CEE90010DCF810000130CCF8100059
:1027900001F03EF96807A2D1284670BD034642F217
:1027A000551021F00101C0F600004FF0807C03E9D4
:1027B00003106FF00201A3F1440043E909127047CE
:1027C0000169D0E90132D1F804C09A6084455360B0
:1027D00008BF4A6000220261086801380860086882
:1027E0007047000044F2CC53C2F20003036044F28D
:1027F000CC30C2F2000008608020106070470000FA
:1028000044F62823C2F20003036044F22860C2F2B7
:10281000000008604FF48070106070474FF6FF7141
:10282000024622F8081F00214260C0E9032201602D
:1028300070470000002101617047000010B5B1F839
:1028400000C04FF6FF72944504D10269D2F804E04B
:102850001CE000BF00F108046268138863450DD8CE
:1028600053681C8864450DD85A68148864450BD891
:1028700054682388A6466345EED907E0964622466B
:1028800004E000BF9E4601E096461A46C1F804E007
:10289000CEF808108A60516008610168013101605A
:1028A00010BD0000D0F800C0436808619A68C1E913
:1028B0000132516099600CF1010101607047000024
:1028C000DFF80C00016841F47001016070470000FE
:1028D00088ED00E04FF0500080F31188BFF36F8F58
:1028E000BFF34F8F40F22000C2F2000001684A1C83
:1028F000026009B1704700BF4EF60450CEF20000EE
:102900000068000608BF70474FF0500080F3118840
:10291000BFF36F8FBFF34F8FFEE7000040F2200040
:10292000C2F20000016839B10139016018BF704777
:10293000002080F3118870474FF0500080F3118819
:10294000BFF36F8FBFF34F8FFEE7000070B5002815
:1029500008BF70BD40F2FC04C2F20004217850F8B8
:10296000042C002918BF4FF0004111420ED0A0F1F5
:1029700008052B68A3B14FF0500080F31188BFF316
:102980006F8FBFF34F8F00BFFEE700BF4FF05000C7
:1029900080F31188BFF36F8FBFF34F8FFEE700BF47
:1029A00022EA010140F8041C064600F0F9F956F845
:1029B000040CA1680144A16004F118010B68AB424A
:1029C0000AD21968A94213D20B68AB4204D2196823
:1029D0001A46A942F2D301E00A4619465368D618AE
:1029E000AE420AD02B188B420DD00B4612E000BF2E
:1029F0001A465368D618AE42F4D1184415465060B2
:102A00002B188B42F1D16368994203D0D1E9003190
:102A100008446860AA422B6018BF156060690130E5
:102A20006061BDE8704000F0F3BF00004EF210009E
:102A3000CEF2000000210160816040F21C01C2F270
:102A40000001096844F6D352C1F26202A1FB0212EE
:102A50004FF0FF3101EB9211416007210160704797
:102A600044F6842CC2F2000CDCF8003003B3634659
:102A700053F8082FEAB1634653F8102FCAB16346E2
:102A800053F8182FAAB1634653F8202F8AB1634632
:102A900053F8282F6AB1634653F8302F4AB15CF8D7
:102AA000382F002A634608BFC3E90010704700BFF3
:102AB0006346C3E90010704770B515460E460446DC
:102AC000FFF708FF94F84400FF2804BF002084F8B3
:102AD000440094F84500FF2804BF002084F8450016
:102AE000FFF71CFFA06B28B12046BDE87040FFF740
:102AF00027BD00BF04F1240031462A4600F098F8B3
:102B00002046BDE87040FFF71BBD000070B598B3CC
:102B100040F24C04C2F20004E16949B14FF05000A8
:102B200080F31188BFF36F8FBFF34F8FFEE700BFB5
:102B3000E16906460131E1612588A1680431084652
:102B4000FFF73EFE3544AEB2A068AE42858005D0A8
:102B5000606AA1680431FFF771FE08E0206AA1688D
:102B60000431FFF76BFE6088864238BF658000F055
:102B70004FFF002818BF70BD4EF60450CEF2000083
:102B80004FF080510160BFF34F8FBFF36F8F70BD67
:102B900040F24C01C2F200014A6B02600988818058
:102BA0007047000040F24C00C2F2000001210163B6
:102BB0007047000070B5F8B140F24C05C2F2000554
:102BC0000C46A9681831FFF739FE2E88A868043032
:102BD000FFF7F6FD4FF6FF70844217D03444A6B2DB
:102BE000A868A642848019D0686AA9680431BDE843
:102BF0007040FFF723BE00BF4FF0500080F31188F4
:102C0000BFF36F8FBFF34F8FFEE700BFA868011DB2
:102C100005F14C00BDE87040FFF744BE286AA96882
:102C20000431FFF70BFE6888864238BF6C8070BDA8
:102C3000F0B581B0C0B140F24C06C2F200060C46BD
:102C4000B16815461831FFF72DFE3788B06804309B
:102C5000FFF7B6FD95B1B068011D06F14C0001B05B
:102C6000BDE8F040FFF71EBE4FF0500080F3118822
:102C7000BFF36F8FBFF34F8FFEE700BF3C44A5B299
:102C8000B068A542848007D0706AB168043101B091
:102C9000BDE8F040FFF7D2BD306AB1680431FFF7FC
:102CA000CDFD7088854238BF748001B0F0BD000052
:102CB00010B588B00020CDE9050006A805A904AA32
:102CC000FFF790FD059800283ED0069C002C45D0CB
:102CD0005C21049A079107995C2949D107992063DF
:102CE000022084F8590007A80021CDE9001041F620
:102CF000A170C0F6000028A100230294FFF794F908
:102D00002046FFF707F8079840F24C04C2F200048F
:102D1000E062B0B100F0F6FE411C33D0012810D1C2
:102D20004FF0500080F31188BFF36F8FBFF34F8FC8
:102D30004FF6FF7060800120A0610020208000F02D
:102D40009DF808B010BD00BF4FF0500080F311880F
:102D5000BFF36F8FBFF34F8FFEE700BF4FF0500000
:102D600080F31188BFF36F8FBFF34F8FFEE700BF73
:102D70004FF0500080F31188BFF36F8FBFF34F8F78
:102D8000FEE700BF4FF0500080F31188BFF36F8F54
:102D9000BFF34F8FFEE700BF49444C4500000000E1
:102DA00040F24C00C2F20000C1690131C1617047BC
:102DB00080B540F24C0EC2F2000EDEF81C1019B1C4
:102DC0000121CEF8301080BD0021CEF83010DEF8A1
:102DD000281040F2683C01EB8102C2F2000C5CF862
:102DE0002230002B0CEB82030CD05868426803F1B0
:102DF000080082425A6023D0D068CEF80800CEF88E
:102E0000281080BD283B19B35A6901EB8100002AC4
:102E10000CEB800226D101291AD0186830BB022998
:102E200016D053F8140C28BB032911D053F8280CE2
:102E300004390028A3F15003E5D02833D5E700BFBB
:102E400052685A60D068CEF80800CEF8281080BDCD
:102E50004FF0500080F31188BFF36F8FBFF34F8F97
:102E6000FEE700BFA2F114030139BEE7A2F1280377
:102E70000239BAE7A2F13C030339B6E770B584B072
:102E80004EF20040CEF200004CF27021C4F20F115D
:102E9000D0F800294B1C9A420AD14FF0500080F321
:102EA0001188BFF36F8FBFF34F8F00BFFEE700BFE6
:102EB000D0F800298A4209D14FF0500080F31188E0
:102EC000BFF36F8FBFF34F8FFEE700BF002101916B
:102ED00001788DF80B10FF21017001788DF8031037
:102EE0009DF8031011F0500240F21C11C2F20001D3
:102EF0000A7000F08D809DF8032002F05002502AE5
:102F000040F090809DF90320B2F1FF3F66DD019A09
:102F10000024082A4FF0000206D0019A4FF4E06323
:102F2000A3EB022202F4E0624A609DF80B104EF619
:102F300020550170CEF20005286840F47F0028601B
:102F4000286840F07F40286045F8044CFFF76EFD8C
:102F500040F22006C2F200063460FFF7B1FCD5F85B
:102F6000140240F04040C5F81402FFF7DFF8FFF705
:102F70001FFF039430684FF0500181F31188BFF3B5
:102F80006F8FBFF34F8F01303CD000BFFEE700BF13
:102F9000019A013201929DF8032052008DF803201E
:102FA0009DF90320B2F1FF3FB1DC019A0132019299
:102FB0009DF8032052008DF803209DF90320B2F103
:102FC000FF3FA4DC019A013201929DF803205200D8
:102FD0008DF803209DF90320002A98D5019A01322B
:102FE00001929DF8032052008DF803209DF90320E3
:102FF000B2F1FF3FCCDD8AE7039830B9039820B9DE
:10300000039810B903980028F6D0002004B070BDD2
:103010004FF0500080F31188BFF36F8FBFF34F8FD5
:10302000FEE700BF4FF0500080F31188BFF36F8FB1
:10303000BFF34F8FFEE7000080B54FF0500080F3E4
:103040001188BFF36F8FBFF34F8F00F0DDFB30B1FE
:103050004EF60450CEF200004FF080510160002087
:1030600080F3118880BD000070B582B060B1ABB153
:10307000F1B9EAB14FF0500080F31188BFF36F8FC0
:10308000BFF34F8FFEE700BF4FF0500080F3118871
:10309000BFF36F8FBFF34F8FFEE700BF4FF05000BD
:1030A00080F31188BFF36F8FBFF34F8FFEE700BF30
:1030B00051B14AB94FF0500080F31188BFF36F8FC0
:1030C000BFF34F8FFEE700BF50250195019D502DA6
:1030D0002ED1019C069E012483F84640002908BF9A
:1030E0001A461A60C3E90F011C46FFF7F3FB20687C
:1030F000D4E90F12002502FB0103013901FB020193
:10310000A563C4E90103FF20E16084F8440084F86A
:10311000450004F11000FFF781FB04F12400FFF7E4
:103120007DFBFFF7FBFB204684F84C6002B070BDCE
:103130004FF0500080F31188BFF36F8FBFF34F8FB4
:10314000FEE700002DE9F04F83B0ADF80A20B8B1DA
:103150001D460446F1B1022D02D1E06B01285DD17C
:1031600016460F4600F034FB10BB0EB34FF0500074
:1031700080F31188BFF36F8FBFF34F8FFEE700BF5F
:103180004FF0500080F31188BFF36F8FBFF34F8F64
:10319000FEE700BF206C0028DDD04FF0500080F328
:1031A0001188BFF36F8FBFF34F8F00BFFEE700BFE3
:1031B000FFF790FBA06B022D67D0E16B884264D3D0
:1031C000BDF80A00002800F01B816846FFF7E0FC0C
:1031D000FFF7A4FBFFF7E4FDFFF77CFB94F8440046
:1031E000FF2804BF002084F8440094F84500FF281D
:1031F00004BF002084F84500FFF790FB68460DF1FE
:103200000A0100F029FA98B12046FFF799F900F079
:10321000FFFB002003B0BDE8F08F00BF4FF050006F
:1032200080F31188BFF36F8FBFF34F8FFEE700BFAE
:1032300004F11008FFF74EFBD4F83890E66BFFF767
:103240006DFBB14516D1BDF80A104046FFF7B2FC40
:103250002046FFF775F900F0DBFB80B94EF604500D
:10326000CEF200004FF080510160BFF34F8FBFF3EB
:103270006F8F04E02046FFF763F900F0C9FBFFF70A
:1032800029FBA06BE16B884266D2A66B226CDAB197
:1032900039462DB3E068FCF7C4FFE168206C226872
:1032A000091A9142E16003D2A16840420844E060FB
:1032B000A81EB0FA80F040093146002E18BF012147
:1032C0000840361A18E000BF2068A8B9A06800F0CE
:1032D0001DFB0021B0FA80F0A16040090DE000BFA5
:1032E0006068FCF79EFFD4E90101226C104488421B
:1032F000606001D3206860600120711CA16354F8F4
:10330000241FA9B1204600F049FB50B14EF60450ED
:10331000CEF200004FF080510160BFF34F8FBFF33A
:103320006F8FFFF7FBFA012003B0BDE8F08F00BFFD
:103330000028F6D14EF60450CEF200004FF0805136
:103340000160BFF34F8FBFF36F8FFFF7E7FA0120E4
:1033500003B0BDE8F08F00BFE9460DF10A060BE0AF
:103360002046FFF7EDF800F053FBFFF7B3FAA06B30
:10337000E16B8842FFF489AFBDF80A0000283FD016
:10338000FFF7CCFAFFF70CFDFFF7A4FA94F844001E
:10339000FF2804BF002084F8440094F84500FF286B
:1033A00004BF002084F84500FFF7B8FA48463146CC
:1033B00000F052F900287FF427AFFFF78BFAD4F81A
:1033C00038A0D4F83CB0FFF7A9FADA45C8D1BDF867
:1033D0000A104046FFF7EEFB2046FFF7B1F800F079
:1033E00017FB0028C1D14EF60450CEF200004FF07A
:1033F00080510160BFF34F8FBFF36F8FB5E700BF00
:10340000FFF78CFA002003B0BDE8F08F2DE9F04FF4
:1034100083B0ADF80A2098B115460446002949D07A
:103420000E4600F0D5F9A8B9A5B14FF0500080F3D1
:103430001188BFF36F8FBFF34F8F00BFFEE700BF50
:103440004FF0500080F31188BFF36F8FBFF34F8FA1
:10345000FEE700BFFFF73EFAD4F838A0BAF1000F3C
:1034600036D0226C52B1D4E9023130461144E160C9
:10347000994224BF2168E160FCF7D3FEAAF1010064
:10348000A06354F8100F70B1204600F087FA50B1D5
:103490004EF60450CEF200004FF080510160BFF3B1
:1034A0004F8FBFF36F8F0124FFF738FA204603B028
:1034B000BDE8F08F206C0028B2D04FF0500080F3B0
:1034C0001188BFF36F8FBFF34F8F00BFFEE700BFC0
:1034D000BDF80A00002800F0B7806846FFF758FBE7
:1034E000FFF71CFAFFF75CFCFFF7F4F994F84400CF
:1034F00004F12408FF2804BF002084F8440094F855
:103500004500FF2804BF002084F84500FFF706FAB5
:1035100068460DF10A0100F09FF878B12046FFF7E8
:103520000FF800F075FAFFF7D5F9A56BFFF7F6F97C
:1035300035BB0024204603B0BDE8F08FFFF7CAF981
:10354000A56BFFF7EBF92DB12046FEF7F9FF00F070
:103550005FFA15E0BDF80A104046FFF72BFB204646
:10356000FEF7EEFF00F054FA50B94EF60450CEF2DA
:1035700000004FF080510160BFF34F8FBFF36F8F9A
:10358000FFF7A8F9D4F838A0BAF1000F7FF469AFBB
:103590004FF00009EB460DF10A0713E02046FEF755
:1035A000CFFF00F035FAFFF795F9A56BFFF7B6F9F5
:1035B000002DBED0FFF78EF9D4F838A0BAF1000F75
:1035C0007FF44FAFBDF80A0000283DD0FFF7A6F901
:1035D000FFF7E6FBFFF77EF994F84400FF2808BFE9
:1035E00084F8449094F84500FF2808BF84F845907B
:1035F000FFF794F95846394600F02EF80028CDD14F
:10360000FFF768F9A56BFFF789F92DB12046FEF7A2
:1036100097FF00F0FDF9CDE7BDF80A104046FFF72F
:10362000C9FA2046FEF78CFF00F0F2F90028C1D15C
:103630004EF60450CEF200004FF080510160BFF30F
:103640004F8FBFF36F8FB5E70024FFF767F9204670
:1036500003B0BDE8F08F0000B0B558B30C4699B385
:103660000546FFF737F940F24C0CC2F2000CBCF8EB
:10367000003022884FF6FF7082422FD02946B5F8DD
:1036800004E0DCF834500868854201D073452DD23F
:10369000A3EB0E0083B29A4226D9101A2080DCF8E0
:1036A000340000240860BCF800008880FFF736F979
:1036B0002046B0BD4FF0500080F31188BFF36F8FEC
:1036C000BFF34F8FFEE700BF4FF0500080F311882B
:1036D000BFF36F8FBFF34F8FFEE700BF0024FFF7EC
:1036E0001DF92046B0BD00BF002020800124FFF757
:1036F00015F92046B0BD00002DE9F04184B0074621
:103700009000984615460E46FEF754FFF8B1044661
:103710005C20FEF74FFFB8B1DDE90A210023046306
:1037200080F85930CDE900210446384631462A4612
:1037300043460294FEF778FC2046FEF7EBFA0120A0
:1037400004B0BDE8F08100BF2046FFF7FFF84FF05E
:10375000FF3004B0BDE8F08170B586B00B9CCCB1F1
:103760000C9E0EB35C250495049D5C2D26D1049D12
:10377000DDF828C0022586F8595005AD3463CDE93F
:1037800000C50296FEF750FC3046FEF7C3FA0598D6
:1037900006B070BD4FF0500080F31188BFF36F8FFB
:1037A000BFF34F8FFEE700BF4FF0500080F311884A
:1037B000BFF36F8FBFF34F8FFEE700BF4FF0500096
:1037C00080F31188BFF36F8FBFF34F8FFEE70000C8
:1037D00040F24C00C2F20000816900290FBF0120B5
:1037E000C069B0FA80F0400918BF4000704700007F
:1037F00010B5FFF76FF840F24C00C2F200000488E9
:10380000FFF78CF8204610BD2DE9F04740F24C063A
:10381000C2F20006F06928B1B0880130B080002003
:10382000BDE8F087308801301FFA80FA8245308089
:103830001FD0306A006848B14FF0500080F3118803
:10384000BFF36F8FBFF34F8FFEE700BF306A716A1F
:1038500031627062706B01307063306A006828B149
:10386000306AC068C068808802E000BF4FF6FF7011
:103870007080708840F268388245C2F2000801D238
:10388000002432E0306A4FF6FF7900680024B0B9B6
:1038900029E000BFF86AB16A884288BFB06200EBD5
:1038A000800008EB80002946FEF7FCFFF86AB1684B
:1038B000C96A326A884228BF0124106898B1306A08
:1038C000C068C7683D4635F8040F82450AD32846CC
:1038D000FEF776FFB86A0028DCD007F11800FEF783
:1038E0006FFFD7E78146A6F80290B068C06A00EB88
:1038F000800058F82000012888BF0124306B002880
:1039000018BF01242046BDE8F087000070B588B1DB
:1039100040F24C05C2F20005A96888420CD04FF075
:10392000500080F31188BFF36F8FBFF34F8F00BF3C
:10393000FEE700BF002070BD016D29B301390165AC
:103940004FF000011DD1C26AC36C9A4219D0041D08
:1039500006462046FEF734FFF06CC0F13801F062F5
:103960003183A96A884240F2683188BFA86200EBBF
:103970008000C2F2000101EB80002146FEF792FFB9
:103980000121084670BD00BF4FF0500080F3118840
:10399000BFF36F8FBFF34F8FFEE7000070B5C068B5
:1039A000C5686DB105F118042046FEF709FF40F225
:1039B0004C06C2F20006F06960B106F160001AE040
:1039C0004FF0500080F31188BFF36F8FBFF34F8F1C
:1039D000FEE700BF2C1D2046FEF7F2FEE86AB16A42
:1039E000884240F2683188BFB06200EB8000C2F2CA
:1039F000000101EB80002146FEF754FFE86AB16840
:103A0000C96A884292BF00200120306370BD000067
:103A10002DE9F04140F24C05C2F20005E86968B1B9
:103A2000FEF758FFE8690138E861E86980B10024D1
:103A3000FEF774FF2046BDE8F08100BF4FF0500054
:103A400080F31188BFF36F8FBFF34F8FFEE700BF86
:103A500068690028EBD0286E88B340F26836C2F25D
:103A600000064FF0010800BFE86EC76807F11800B4
:103A7000FEF7A6FE3C1D2046FEF7A2FEF86AA96AE4
:103A8000884288BFA86200EB800006EB80002146D8
:103A9000FEF708FFF86AA968C96A884228BFC5F816
:103AA0003080286E0028DFD1286A006820B1286A9B
:103AB000C068C068808801E04FF6FF706880AC88FD
:103AC0005CB10126FFF7A0FE0028A4F1010418BF95
:103AD0002E632004F6D10020A880286B0028A6D0F1
:103AE0004EF60450CEF200004FF080510160BFF35B
:103AF0004F8F0124BFF36F8FFEF710FF2046BDE804
:103B0000F081000070B586B0FEF7E4FE40F2C0061A
:103B1000C2F20006706808BB06F114042046FEF7E6
:103B20007DFE06F128052846FEF778FE40F2782251
:103B300040F21833C6E903450025C2F20002C2F282
:103B400000030A2010210095FFF78EFA706028B15B
:103B500043F68941C0F60001FEF782FFFEF7DEFE64
:103B60007068D8B10020CDE9040005A804A903AA13
:103B7000FEF746FEDDE903200221059DCDE9001098
:103B800042F29510C0F6000009A100230295FFF74C
:103B9000E3FDB06010B1012006B070BD4FF05000E1
:103BA00080F31188BFF36F8FBFF34F8FFEE700BF25
:103BB000546D72205376630002E008C8121F08C1DA
:103BC000002AFAD170477047002001E001C1121F9E
:103BD000002AFBD170470000000000000000010235
:103BE00003040607080900000000010203040000A6
:103BF000753C00080000000000000000000000000C
:103C000000000000000200000800000000000000AA
:103C1000000000000001020304050608090AFFFF76
:103C2000FFFFFFFF7D3C00080000000000000000D7
:103C3000000000000000000000020000180000006A
:103C400000000000000000006C3C000800000000C4
:103C50000000000000000000000000000002000062
:103C60000800000000000000000000006D795461B1
:103C7000736B3033004C45445461736B006465666C
:103C800061756C745461736B00546D725100000067
:103C9000B03C00080000002028000000B83B0008ED
:103CA000D83C000828000020A06A0000C83B00089B
:103CB0000100000010000000C0F9A4B0999282F841
:103CC00080908CBFC6A186FFBF0000000024F400D6
:083CD000AAAAAAAA0000000044
:040000050800018965
:00000001FF
